{"contracts/NFTMarketplace.sol":{"NFTMarketplace":{"abi":[{"inputs":[{"internalType":"address","name":"_createCollectionAddress","type":"address"}],"stateMutability":"nonpayable","type":"constructor"},{"anonymous":false,"inputs":[{"indexed":true,"internalType":"uint256","name":"nftId","type":"uint256"},{"indexed":false,"internalType":"address","name":"seller","type":"address"}],"name":"AuctionCancelled","type":"event"},{"anonymous":false,"inputs":[{"indexed":true,"internalType":"uint256","name":"nftId","type":"uint256"},{"indexed":false,"internalType":"uint256","name":"startingPrice","type":"uint256"},{"indexed":false,"internalType":"uint256","name":"startTime","type":"uint256"},{"indexed":false,"internalType":"uint256","name":"endTime","type":"uint256"},{"indexed":false,"internalType":"address","name":"seller","type":"address"}],"name":"AuctionCreated","type":"event"},{"anonymous":false,"inputs":[{"indexed":true,"internalType":"uint256","name":"nftId","type":"uint256"},{"indexed":false,"internalType":"address","name":"winner","type":"address"},{"indexed":false,"internalType":"uint256","name":"winningBid","type":"uint256"}],"name":"AuctionFinalized","type":"event"},{"anonymous":false,"inputs":[{"indexed":true,"internalType":"uint256","name":"nftId","type":"uint256"},{"indexed":false,"internalType":"address","name":"bidder","type":"address"},{"indexed":false,"internalType":"uint256","name":"bidAmount","type":"uint256"}],"name":"BidPlaced","type":"event"},{"anonymous":false,"inputs":[{"indexed":true,"internalType":"uint256","name":"collectionId","type":"uint256"},{"indexed":true,"internalType":"uint256","name":"nftId","type":"uint256"},{"indexed":false,"internalType":"uint256","name":"price","type":"uint256"}],"name":"NFTListed","type":"event"},{"anonymous":false,"inputs":[{"indexed":true,"internalType":"uint256","name":"nftId","type":"uint256"},{"indexed":false,"internalType":"address","name":"seller","type":"address"}],"name":"NFTSaleCancelled","type":"event"},{"anonymous":false,"inputs":[{"indexed":true,"internalType":"uint256","name":"nftId","type":"uint256"},{"indexed":false,"internalType":"address","name":"seller","type":"address"},{"indexed":false,"internalType":"address","name":"buyer","type":"address"},{"indexed":false,"internalType":"uint256","name":"price","type":"uint256"}],"name":"NFTSold","type":"event"},{"inputs":[{"internalType":"uint256","name":"","type":"uint256"}],"name":"auctions","outputs":[{"internalType":"uint256","name":"nftId","type":"uint256"},{"internalType":"uint256","name":"startingPrice","type":"uint256"},{"internalType":"uint256","name":"startTime","type":"uint256"},{"internalType":"uint256","name":"endTime","type":"uint256"},{"internalType":"address payable","name":"seller","type":"address"},{"internalType":"address","name":"highestBidder","type":"address"},{"internalType":"uint256","name":"highestBid","type":"uint256"},{"internalType":"bool","name":"isActive","type":"bool"}],"stateMutability":"view","type":"function"},{"inputs":[{"internalType":"uint256","name":"nftId","type":"uint256"}],"name":"buyNFT","outputs":[],"stateMutability":"payable","type":"function"},{"inputs":[{"internalType":"uint256","name":"nftId","type":"uint256"}],"name":"cancelAuction","outputs":[],"stateMutability":"nonpayable","type":"function"},{"inputs":[{"internalType":"uint256","name":"nftId","type":"uint256"}],"name":"cancelSell","outputs":[],"stateMutability":"nonpayable","type":"function"},{"inputs":[{"internalType":"uint256","name":"nftId","type":"uint256"},{"internalType":"uint256","name":"startingPrice","type":"uint256"},{"internalType":"uint256","name":"startTime","type":"uint256"},{"internalType":"uint256","name":"endTime","type":"uint256"}],"name":"createAuction","outputs":[],"stateMutability":"nonpayable","type":"function"},{"inputs":[],"name":"createCollectionContract","outputs":[{"internalType":"contract ICreateCollection","name":"","type":"address"}],"stateMutability":"view","type":"function"},{"inputs":[{"internalType":"uint256","name":"nftId","type":"uint256"}],"name":"finalizeAuction","outputs":[],"stateMutability":"nonpayable","type":"function"},{"inputs":[],"name":"getCurrentTime","outputs":[{"internalType":"uint256","name":"","type":"uint256"}],"stateMutability":"view","type":"function"},{"inputs":[{"internalType":"uint256","name":"","type":"uint256"}],"name":"listedForSale","outputs":[{"internalType":"bool","name":"","type":"bool"}],"stateMutability":"view","type":"function"},{"inputs":[{"internalType":"uint256","name":"","type":"uint256"}],"name":"nftInAuction","outputs":[{"internalType":"bool","name":"","type":"bool"}],"stateMutability":"view","type":"function"},{"inputs":[{"internalType":"uint256","name":"nftId","type":"uint256"}],"name":"placeBid","outputs":[],"stateMutability":"payable","type":"function"},{"inputs":[{"internalType":"uint256","name":"nftId","type":"uint256"},{"internalType":"uint256","name":"price","type":"uint256"}],"name":"sellNFT","outputs":[],"stateMutability":"nonpayable","type":"function"}],"evm":{"bytecode":{"linkReferences":{},"object":"608060405234801561001057600080fd5b50604051613268380380613268833981810160405281019061003291906100db565b806000806101000a81548173ffffffffffffffffffffffffffffffffffffffff021916908373ffffffffffffffffffffffffffffffffffffffff16021790555050610108565b600080fd5b600073ffffffffffffffffffffffffffffffffffffffff82169050919050565b60006100a88261007d565b9050919050565b6100b88161009d565b81146100c357600080fd5b50565b6000815190506100d5816100af565b92915050565b6000602082840312156100f1576100f0610078565b5b60006100ff848285016100c6565b91505092915050565b613151806101176000396000f3fe6080604052600436106100a75760003560e01c806391a48a1e1161006457806391a48a1e146101c657806396b5a755146101ef5780639979ef4514610218578063afe4143d14610234578063ba18429a1461025f578063e80838631461029c576100a7565b806307c9cd45146100ac57806329cb924d146100d5578063431f21da1461010057806351ed82881461012957806354c0487314610145578063571a26a014610182575b600080fd5b3480156100b857600080fd5b506100d360048036038101906100ce9190611dce565b6102c5565b005b3480156100e157600080fd5b506100ea6105fd565b6040516100f79190611e0a565b60405180910390f35b34801561010c57600080fd5b5061012760048036038101906101229190611e25565b610605565b005b610143600480360381019061013e9190611dce565b610b13565b005b34801561015157600080fd5b5061016c60048036038101906101679190611dce565b610f7e565b6040516101799190611ea7565b60405180910390f35b34801561018e57600080fd5b506101a960048036038101906101a49190611dce565b610f9e565b6040516101bd989796959493929190611f24565b60405180910390f35b3480156101d257600080fd5b506101ed60048036038101906101e89190611fa2565b611033565b005b3480156101fb57600080fd5b5061021660048036038101906102119190611dce565b6113c7565b005b610232600480360381019061022d9190611dce565b61160e565b005b34801561024057600080fd5b506102496118ca565b6040516102569190612041565b60405180910390f35b34801561026b57600080fd5b5061028660048036038101906102819190611dce565b6118ee565b6040516102939190611ea7565b60405180910390f35b3480156102a857600080fd5b506102c360048036038101906102be9190611dce565b61190e565b005b6003600082815260200190815260200160002060009054906101000a900460ff16610325576040517f08c379a000000000000000000000000000000000000000000000000000000000815260040161031c906120b9565b60405180910390fd5b60008060008054906101000a900473ffffffffffffffffffffffffffffffffffffffff1673ffffffffffffffffffffffffffffffffffffffff166382260f35846040518263ffffffff1660e01b81526004016103819190611e0a565b600060405180830381865afa15801561039e573d6000803e3d6000fd5b505050506040513d6000823e3d601f19601f820116820180604052508101906103c791906122a7565b5092509250508061040d576040517f08c379a000000000000000000000000000000000000000000000000000000000815260040161040490612376565b60405180910390fd5b3373ffffffffffffffffffffffffffffffffffffffff168273ffffffffffffffffffffffffffffffffffffffff161461047b576040517f08c379a000000000000000000000000000000000000000000000000000000000815260040161047290612408565b60405180910390fd5b60006003600085815260200190815260200160002060006101000a81548160ff021916908315150217905550600060046000858152602001908152602001600020819055506000600560003373ffffffffffffffffffffffffffffffffffffffff1673ffffffffffffffffffffffffffffffffffffffff168152602001908152602001600020905060005b81805490508110156105be578482828154811061052657610525612428565b5b9060005260206000200154036105b15781600183805490506105489190612486565b8154811061055957610558612428565b5b906000526020600020015482828154811061057757610576612428565b5b906000526020600020018190555081805480610596576105956124ba565b5b600190038181906000526020600020016000905590556105be565b8080600101915050610506565b50837f5e86a35827477c5388f131ae2ae3671a03f959d1815796f76fbc695fd5adedea336040516105ef91906124e9565b60405180910390a250505050565b600042905090565b666a94d74f43000083101561064f576040517f08c379a000000000000000000000000000000000000000000000000000000000815260040161064690612576565b60405180910390fd5b60008060008060009054906101000a900473ffffffffffffffffffffffffffffffffffffffff1673ffffffffffffffffffffffffffffffffffffffff166382260f35886040518263ffffffff1660e01b81526004016106ae9190611e0a565b600060405180830381865afa1580156106cb573d6000803e3d6000fd5b505050506040513d6000823e3d601f19601f820116820180604052508101906106f491906122a7565b935093509350508161073b576040517f08c379a000000000000000000000000000000000000000000000000000000000815260040161073290612376565b60405180910390fd5b3373ffffffffffffffffffffffffffffffffffffffff168373ffffffffffffffffffffffffffffffffffffffff16146107a9576040517f08c379a00000000000000000000000000000000000000000000000000000000081526004016107a090612408565b60405180910390fd5b6003600088815260200190815260200160002060009054906101000a900460ff161561080a576040517f08c379a0000000000000000000000000000000000000000000000000000000008152600401610801906125e2565b60405180910390fd5b603c85856108189190612486565b1015610859576040517f08c379a000000000000000000000000000000000000000000000000000000000815260040161085090612674565b60405180910390fd5b42841161089b576040517f08c379a0000000000000000000000000000000000000000000000000000000008152600401610892906126e0565b60405180910390fd5b6002600088815260200190815260200160002060009054906101000a900460ff16156108fc576040517f08c379a00000000000000000000000000000000000000000000000000000000081526004016108f390612772565b60405180910390fd5b8086101561093f576040517f08c379a000000000000000000000000000000000000000000000000000000000815260040161093690612804565b60405180910390fd5b6040518061010001604052808881526020018781526020014281526020018581526020013373ffffffffffffffffffffffffffffffffffffffff168152602001600073ffffffffffffffffffffffffffffffffffffffff1681526020016000815260200160011515815250600160008981526020019081526020016000206000820151816000015560208201518160010155604082015181600201556060820151816003015560808201518160040160006101000a81548173ffffffffffffffffffffffffffffffffffffffff021916908373ffffffffffffffffffffffffffffffffffffffff16021790555060a08201518160050160006101000a81548173ffffffffffffffffffffffffffffffffffffffff021916908373ffffffffffffffffffffffffffffffffffffffff16021790555060c0820151816006015560e08201518160070160006101000a81548160ff02191690831515021790555090505060016002600089815260200190815260200160002060006101000a81548160ff021916908315150217905550867ffe21114808b55d6a54bec91c46a20e8dfe7f033edf3f058a5012a829d8d0e3ca87428733604051610b029493929190612824565b60405180910390a250505050505050565b6003600082815260200190815260200160002060009054906101000a900460ff16610b73576040517f08c379a0000000000000000000000000000000000000000000000000000000008152600401610b6a906128b5565b60405180910390fd5b600060046000838152602001908152602001600020549050803414610bcd576040517f08c379a0000000000000000000000000000000000000000000000000000000008152600401610bc490612921565b60405180910390fd5b60008060008054906101000a900473ffffffffffffffffffffffffffffffffffffffff1673ffffffffffffffffffffffffffffffffffffffff166382260f35856040518263ffffffff1660e01b8152600401610c299190611e0a565b600060405180830381865afa158015610c46573d6000803e3d6000fd5b505050506040513d6000823e3d601f19601f82011682018060405250810190610c6f91906122a7565b50925092505080610cb5576040517f08c379a0000000000000000000000000000000000000000000000000000000008152600401610cac90612376565b60405180910390fd5b8173ffffffffffffffffffffffffffffffffffffffff163373ffffffffffffffffffffffffffffffffffffffff1603610d23576040517f08c379a0000000000000000000000000000000000000000000000000000000008152600401610d1a9061298d565b60405180910390fd5b60006003600086815260200190815260200160002060006101000a81548160ff021916908315150217905550600060046000868152602001908152602001600020819055506000600560008473ffffffffffffffffffffffffffffffffffffffff1673ffffffffffffffffffffffffffffffffffffffff168152602001908152602001600020905060005b8180549050811015610e665785828281548110610dce57610dcd612428565b5b906000526020600020015403610e59578160018380549050610df09190612486565b81548110610e0157610e00612428565b5b9060005260206000200154828281548110610e1f57610e1e612428565b5b906000526020600020018190555081805480610e3e57610e3d6124ba565b5b60019003818190600052602060002001600090559055610e66565b8080600101915050610dae565b508273ffffffffffffffffffffffffffffffffffffffff166108fc349081150290604051600060405180830381858888f19350505050158015610ead573d6000803e3d6000fd5b5060008054906101000a900473ffffffffffffffffffffffffffffffffffffffff1673ffffffffffffffffffffffffffffffffffffffff16639036c05086336040518363ffffffff1660e01b8152600401610f099291906129ad565b600060405180830381600087803b158015610f2357600080fd5b505af1158015610f37573d6000803e3d6000fd5b50505050847f8562eb94748e30bb0071e932744ce902b460c683474fcb3bfd567ffa16b1afb2843387604051610f6f939291906129d6565b60405180910390a25050505050565b60036020528060005260406000206000915054906101000a900460ff1681565b60016020528060005260406000206000915090508060000154908060010154908060020154908060030154908060040160009054906101000a900473ffffffffffffffffffffffffffffffffffffffff16908060050160009054906101000a900473ffffffffffffffffffffffffffffffffffffffff16908060060154908060070160009054906101000a900460ff16905088565b666a94d74f43000081101561107d576040517f08c379a000000000000000000000000000000000000000000000000000000000815260040161107490612a59565b60405180910390fd5b6003600083815260200190815260200160002060009054906101000a900460ff16156110de576040517f08c379a00000000000000000000000000000000000000000000000000000000081526004016110d590612ac5565b60405180910390fd5b6002600083815260200190815260200160002060009054906101000a900460ff161561113f576040517f08c379a000000000000000000000000000000000000000000000000000000000815260040161113690612b31565b60405180910390fd5b60008060008060009054906101000a900473ffffffffffffffffffffffffffffffffffffffff1673ffffffffffffffffffffffffffffffffffffffff166382260f35866040518263ffffffff1660e01b815260040161119e9190611e0a565b600060405180830381865afa1580156111bb573d6000803e3d6000fd5b505050506040513d6000823e3d601f19601f820116820180604052508101906111e491906122a7565b935093509350508161122b576040517f08c379a000000000000000000000000000000000000000000000000000000000815260040161122290612376565b60405180910390fd5b3373ffffffffffffffffffffffffffffffffffffffff168373ffffffffffffffffffffffffffffffffffffffff1614611299576040517f08c379a000000000000000000000000000000000000000000000000000000000815260040161129090612408565b60405180910390fd5b808410156112dc576040517f08c379a00000000000000000000000000000000000000000000000000000000081526004016112d390612bc3565b60405180910390fd5b60016003600087815260200190815260200160002060006101000a81548160ff021916908315150217905550836004600087815260200190815260200160002081905550600560003373ffffffffffffffffffffffffffffffffffffffff1673ffffffffffffffffffffffffffffffffffffffff1681526020019081526020016000208590806001815401808255809150506001900390600052602060002001600090919091909150558460007fcc0c9a64fc84375ceec206f2fc87eb06d3cacae06967a94d2ba499000ea17617866040516113b89190611e0a565b60405180910390a35050505050565b60006001600083815260200190815260200160002090508060070160009054906101000a900460ff1661142f576040517f08c379a000000000000000000000000000000000000000000000000000000000815260040161142690612c2f565b60405180910390fd5b3373ffffffffffffffffffffffffffffffffffffffff168160040160009054906101000a900473ffffffffffffffffffffffffffffffffffffffff1673ffffffffffffffffffffffffffffffffffffffff16146114c1576040517f08c379a00000000000000000000000000000000000000000000000000000000081526004016114b890612cc1565b60405180910390fd5b60008160070160006101000a81548160ff02191690831515021790555060006002600084815260200190815260200160002060006101000a81548160ff021916908315150217905550600073ffffffffffffffffffffffffffffffffffffffff168160050160009054906101000a900473ffffffffffffffffffffffffffffffffffffffff1673ffffffffffffffffffffffffffffffffffffffff16146115d2578060050160009054906101000a900473ffffffffffffffffffffffffffffffffffffffff1673ffffffffffffffffffffffffffffffffffffffff166108fc82600601549081150290604051600060405180830381858888f193505050501580156115d0573d6000803e3d6000fd5b505b817f10ac9f0bb365b5d22d7bec500408692f23fdf83eadfec71615ef88b4c1134f0e3360405161160291906124e9565b60405180910390a25050565b60006001600083815260200190815260200160002090508060070160009054906101000a900460ff16611676576040517f08c379a000000000000000000000000000000000000000000000000000000000815260040161166d90612c2f565b60405180910390fd5b80600301544211156116bd576040517f08c379a00000000000000000000000000000000000000000000000000000000081526004016116b490612d2d565b60405180910390fd5b806006015434116116d18260060154611c24565b6040516020016116e19190612e06565b60405160208183030381529060405290611731576040517f08c379a00000000000000000000000000000000000000000000000000000000081526004016117289190612e61565b60405180910390fd5b5080600101543411611778576040517f08c379a000000000000000000000000000000000000000000000000000000000815260040161176f90612ef5565b60405180910390fd5b600073ffffffffffffffffffffffffffffffffffffffff168160050160009054906101000a900473ffffffffffffffffffffffffffffffffffffffff1673ffffffffffffffffffffffffffffffffffffffff1614611840578060050160009054906101000a900473ffffffffffffffffffffffffffffffffffffffff1673ffffffffffffffffffffffffffffffffffffffff166108fc82600601549081150290604051600060405180830381858888f1935050505015801561183e573d6000803e3d6000fd5b505b338160050160006101000a81548173ffffffffffffffffffffffffffffffffffffffff021916908373ffffffffffffffffffffffffffffffffffffffff160217905550348160060181905550817f0e54eff26401bf69b81b26f60bd85ef47f5d85275c1d268d84f68d6897431c4733346040516118be929190612f15565b60405180910390a25050565b60008054906101000a900473ffffffffffffffffffffffffffffffffffffffff1681565b60026020528060005260406000206000915054906101000a900460ff1681565b60006001600083815260200190815260200160002090508060070160009054906101000a900460ff16611976576040517f08c379a000000000000000000000000000000000000000000000000000000000815260040161196d90612c2f565b60405180910390fd5b806003015442116119bc576040517f08c379a00000000000000000000000000000000000000000000000000000000081526004016119b390612f8a565b60405180910390fd5b60008160070160006101000a81548160ff02191690831515021790555060006002600084815260200190815260200160002060006101000a81548160ff021916908315150217905550600073ffffffffffffffffffffffffffffffffffffffff168160050160009054906101000a900473ffffffffffffffffffffffffffffffffffffffff1673ffffffffffffffffffffffffffffffffffffffff1614611be45760008054906101000a900473ffffffffffffffffffffffffffffffffffffffff1673ffffffffffffffffffffffffffffffffffffffff16639036c050838360050160009054906101000a900473ffffffffffffffffffffffffffffffffffffffff166040518363ffffffff1660e01b8152600401611adc9291906129ad565b600060405180830381600087803b158015611af657600080fd5b505af1158015611b0a573d6000803e3d6000fd5b505050508060040160009054906101000a900473ffffffffffffffffffffffffffffffffffffffff1673ffffffffffffffffffffffffffffffffffffffff166108fc82600601549081150290604051600060405180830381858888f19350505050158015611b7c573d6000803e3d6000fd5b50817f4d9113a1377d665eaa1f9168a9c9080f2e488cb820b10149de3d6d2e0f2780c78260050160009054906101000a900473ffffffffffffffffffffffffffffffffffffffff168360060154604051611bd7929190612f15565b60405180910390a2611c20565b817f4d9113a1377d665eaa1f9168a9c9080f2e488cb820b10149de3d6d2e0f2780c7600080604051611c17929190612fe5565b60405180910390a25b5050565b606060008203611c6b576040518060400160405280600181526020017f30000000000000000000000000000000000000000000000000000000000000008152509050611d7f565b600082905060005b60008214611c9d578080611c869061300e565b915050600a82611c969190613085565b9150611c73565b60008167ffffffffffffffff811115611cb957611cb86120f4565b5b6040519080825280601f01601f191660200182016040528015611ceb5781602001600182028036833780820191505090505b5090505b60008514611d7857600182611d049190612486565b9150600a85611d1391906130b6565b6030611d1f91906130e7565b60f81b818381518110611d3557611d34612428565b5b60200101907effffffffffffffffffffffffffffffffffffffffffffffffffffffffffffff1916908160001a905350600a85611d719190613085565b9450611cef565b8093505050505b919050565b6000604051905090565b600080fd5b600080fd5b6000819050919050565b611dab81611d98565b8114611db657600080fd5b50565b600081359050611dc881611da2565b92915050565b600060208284031215611de457611de3611d8e565b5b6000611df284828501611db9565b91505092915050565b611e0481611d98565b82525050565b6000602082019050611e1f6000830184611dfb565b92915050565b60008060008060808587031215611e3f57611e3e611d8e565b5b6000611e4d87828801611db9565b9450506020611e5e87828801611db9565b9350506040611e6f87828801611db9565b9250506060611e8087828801611db9565b91505092959194509250565b60008115159050919050565b611ea181611e8c565b82525050565b6000602082019050611ebc6000830184611e98565b92915050565b600073ffffffffffffffffffffffffffffffffffffffff82169050919050565b6000611eed82611ec2565b9050919050565b611efd81611ee2565b82525050565b6000611f0e82611ec2565b9050919050565b611f1e81611f03565b82525050565b600061010082019050611f3a600083018b611dfb565b611f47602083018a611dfb565b611f546040830189611dfb565b611f616060830188611dfb565b611f6e6080830187611ef4565b611f7b60a0830186611f15565b611f8860c0830185611dfb565b611f9560e0830184611e98565b9998505050505050505050565b60008060408385031215611fb957611fb8611d8e565b5b6000611fc785828601611db9565b9250506020611fd885828601611db9565b9150509250929050565b6000819050919050565b6000612007612002611ffd84611ec2565b611fe2565b611ec2565b9050919050565b600061201982611fec565b9050919050565b600061202b8261200e565b9050919050565b61203b81612020565b82525050565b60006020820190506120566000830184612032565b92915050565b600082825260208201905092915050565b7f4e4654206973206e6f74206c697374656420666f722073616c65000000000000600082015250565b60006120a3601a8361205c565b91506120ae8261206d565b602082019050919050565b600060208201905081810360008301526120d281612096565b9050919050565b600080fd5b600080fd5b6000601f19601f8301169050919050565b7f4e487b7100000000000000000000000000000000000000000000000000000000600052604160045260246000fd5b61212c826120e3565b810181811067ffffffffffffffff8211171561214b5761214a6120f4565b5b80604052505050565b600061215e611d84565b905061216a8282612123565b919050565b600067ffffffffffffffff82111561218a576121896120f4565b5b612193826120e3565b9050602081019050919050565b60005b838110156121be5780820151818401526020810190506121a3565b60008484015250505050565b60006121dd6121d88461216f565b612154565b9050828152602081018484840111156121f9576121f86120de565b5b6122048482856121a0565b509392505050565b600082601f830112612221576122206120d9565b5b81516122318482602086016121ca565b91505092915050565b61224381611f03565b811461224e57600080fd5b50565b6000815190506122608161223a565b92915050565b61226f81611e8c565b811461227a57600080fd5b50565b60008151905061228c81612266565b92915050565b6000815190506122a181611da2565b92915050565b600080600080608085870312156122c1576122c0611d8e565b5b600085015167ffffffffffffffff8111156122df576122de611d93565b5b6122eb8782880161220c565b94505060206122fc87828801612251565b935050604061230d8782880161227d565b925050606061231e87828801612292565b91505092959194509250565b7f4e465420646f6573206e6f742065786973740000000000000000000000000000600082015250565b600061236060128361205c565b915061236b8261232a565b602082019050919050565b6000602082019050818103600083015261238f81612353565b9050919050565b7f596f7520617265206e6f7420746865206f776e6572206f662074686973204e4660008201527f5400000000000000000000000000000000000000000000000000000000000000602082015250565b60006123f260218361205c565b91506123fd82612396565b604082019050919050565b60006020820190508181036000830152612421816123e5565b9050919050565b7f4e487b7100000000000000000000000000000000000000000000000000000000600052603260045260246000fd5b7f4e487b7100000000000000000000000000000000000000000000000000000000600052601160045260246000fd5b600061249182611d98565b915061249c83611d98565b92508282039050818111156124b4576124b3612457565b5b92915050565b7f4e487b7100000000000000000000000000000000000000000000000000000000600052603160045260246000fd5b60006020820190506124fe6000830184611f15565b92915050565b7f5374617274696e67207072696365206d757374206265206174206c656173742060008201527f302e303320455448000000000000000000000000000000000000000000000000602082015250565b600061256060288361205c565b915061256b82612504565b604082019050919050565b6000602082019050818103600083015261258f81612553565b9050919050565b7f4e465420697320616c7265616479206c697374656420666f722073616c650000600082015250565b60006125cc601e8361205c565b91506125d782612596565b602082019050919050565b600060208201905081810360008301526125fb816125bf565b9050919050565b7f41756374696f6e206d7573742072756e20666f72206174206c6561737420312060008201527f6d696e7574650000000000000000000000000000000000000000000000000000602082015250565b600061265e60268361205c565b915061266982612602565b604082019050919050565b6000602082019050818103600083015261268d81612651565b9050919050565b7f456e642074696d65206d75737420626520696e20746865206675747572650000600082015250565b60006126ca601e8361205c565b91506126d582612694565b602082019050919050565b600060208201905081810360008301526126f9816126bd565b9050919050565b7f41756374696f6e20616c72656164792065786973747320666f7220746869732060008201527f4e46540000000000000000000000000000000000000000000000000000000000602082015250565b600061275c60238361205c565b915061276782612700565b604082019050919050565b6000602082019050818103600083015261278b8161274f565b9050919050565b7f5374617274696e67207072696365206d757374206265206174206c656173742060008201527f746865206d696e74207072696365000000000000000000000000000000000000602082015250565b60006127ee602e8361205c565b91506127f982612792565b604082019050919050565b6000602082019050818103600083015261281d816127e1565b9050919050565b60006080820190506128396000830187611dfb565b6128466020830186611dfb565b6128536040830185611dfb565b6128606060830184611f15565b95945050505050565b7f4e4654206e6f74206c697374656420666f722073616c65000000000000000000600082015250565b600061289f60178361205c565b91506128aa82612869565b602082019050919050565b600060208201905081810360008301526128ce81612892565b9050919050565b7f496e636f7272656374207061796d656e7420616d6f756e740000000000000000600082015250565b600061290b60188361205c565b9150612916826128d5565b602082019050919050565b6000602082019050818103600083015261293a816128fe565b9050919050565b7f43616e6e6f742062757920796f7572206f776e204e4654000000000000000000600082015250565b600061297760178361205c565b915061298282612941565b602082019050919050565b600060208201905081810360008301526129a68161296a565b9050919050565b60006040820190506129c26000830185611dfb565b6129cf6020830184611f15565b9392505050565b60006060820190506129eb6000830186611f15565b6129f86020830185611f15565b612a056040830184611dfb565b949350505050565b7f5072696365206d757374206265206174206c6561737420302e30332045544800600082015250565b6000612a43601f8361205c565b9150612a4e82612a0d565b602082019050919050565b60006020820190508181036000830152612a7281612a36565b9050919050565b7f4e465420616c7265616479206c69737465640000000000000000000000000000600082015250565b6000612aaf60128361205c565b9150612aba82612a79565b602082019050919050565b60006020820190508181036000830152612ade81612aa2565b9050919050565b7f4e46542069732063757272656e746c7920696e2061756374696f6e0000000000600082015250565b6000612b1b601b8361205c565b9150612b2682612ae5565b602082019050919050565b60006020820190508181036000830152612b4a81612b0e565b9050919050565b7f53616c65207072696365206d757374206265206174206c65617374207468652060008201527f6d696e7420707269636500000000000000000000000000000000000000000000602082015250565b6000612bad602a8361205c565b9150612bb882612b51565b604082019050919050565b60006020820190508181036000830152612bdc81612ba0565b9050919050565b7f41756374696f6e206973206e6f74206163746976650000000000000000000000600082015250565b6000612c1960158361205c565b9150612c2482612be3565b602082019050919050565b60006020820190508181036000830152612c4881612c0c565b9050919050565b7f596f7520617265206e6f74207468652073656c6c6572206f662074686973206160008201527f756374696f6e0000000000000000000000000000000000000000000000000000602082015250565b6000612cab60268361205c565b9150612cb682612c4f565b604082019050919050565b60006020820190508181036000830152612cda81612c9e565b9050919050565b7f41756374696f6e2068617320616c726561647920656e64656400000000000000600082015250565b6000612d1760198361205c565b9150612d2282612ce1565b602082019050919050565b60006020820190508181036000830152612d4681612d0a565b9050919050565b600081905092915050565b7f42696420616d6f756e74206d75737420626520686967686572207468616e207460008201527f68652063757272656e742068696768657374206269643a200000000000000000602082015250565b6000612db4603883612d4d565b9150612dbf82612d58565b603882019050919050565b600081519050919050565b6000612de082612dca565b612dea8185612d4d565b9350612dfa8185602086016121a0565b80840191505092915050565b6000612e1182612da7565b9150612e1d8284612dd5565b915081905092915050565b6000612e3382612dca565b612e3d818561205c565b9350612e4d8185602086016121a0565b612e56816120e3565b840191505092915050565b60006020820190508181036000830152612e7b8184612e28565b905092915050565b7f42696420616d6f756e74206d75737420626520686967686572207468616e207460008201527f6865207374617274696e67207072696365000000000000000000000000000000602082015250565b6000612edf60318361205c565b9150612eea82612e83565b604082019050919050565b60006020820190508181036000830152612f0e81612ed2565b9050919050565b6000604082019050612f2a6000830185611f15565b612f376020830184611dfb565b9392505050565b7f41756374696f6e20686173206e6f7420656e6465642079657400000000000000600082015250565b6000612f7460198361205c565b9150612f7f82612f3e565b602082019050919050565b60006020820190508181036000830152612fa381612f67565b9050919050565b6000819050919050565b6000612fcf612fca612fc584612faa565b611fe2565b611d98565b9050919050565b612fdf81612fb4565b82525050565b6000604082019050612ffa6000830185611f15565b6130076020830184612fd6565b9392505050565b600061301982611d98565b91507fffffffffffffffffffffffffffffffffffffffffffffffffffffffffffffffff820361304b5761304a612457565b5b600182019050919050565b7f4e487b7100000000000000000000000000000000000000000000000000000000600052601260045260246000fd5b600061309082611d98565b915061309b83611d98565b9250826130ab576130aa613056565b5b828204905092915050565b60006130c182611d98565b91506130cc83611d98565b9250826130dc576130db613056565b5b828206905092915050565b60006130f282611d98565b91506130fd83611d98565b925082820190508082111561311557613114612457565b5b9291505056fea26469706673582212209377048d564879b9742ea27adddbb377d71e40535c7fd953488f2ae6b573463a64736f6c634300081c0033","opcodes":"PUSH1 0x80 PUSH1 0x40 MSTORE CALLVALUE DUP1 ISZERO PUSH2 0x10 JUMPI PUSH1 0x0 DUP1 REVERT JUMPDEST POP PUSH1 0x40 MLOAD PUSH2 0x3268 CODESIZE SUB DUP1 PUSH2 0x3268 DUP4 CODECOPY DUP2 DUP2 ADD PUSH1 0x40 MSTORE DUP2 ADD SWAP1 PUSH2 0x32 SWAP2 SWAP1 PUSH2 0xDB JUMP JUMPDEST DUP1 PUSH1 0x0 DUP1 PUSH2 0x100 EXP DUP2 SLOAD DUP2 PUSH20 0xFFFFFFFFFFFFFFFFFFFFFFFFFFFFFFFFFFFFFFFF MUL NOT AND SWAP1 DUP4 PUSH20 0xFFFFFFFFFFFFFFFFFFFFFFFFFFFFFFFFFFFFFFFF AND MUL OR SWAP1 SSTORE POP POP PUSH2 0x108 JUMP JUMPDEST PUSH1 0x0 DUP1 REVERT JUMPDEST PUSH1 0x0 PUSH20 0xFFFFFFFFFFFFFFFFFFFFFFFFFFFFFFFFFFFFFFFF DUP3 AND SWAP1 POP SWAP2 SWAP1 POP JUMP JUMPDEST PUSH1 0x0 PUSH2 0xA8 DUP3 PUSH2 0x7D JUMP JUMPDEST SWAP1 POP SWAP2 SWAP1 POP JUMP JUMPDEST PUSH2 0xB8 DUP2 PUSH2 0x9D JUMP JUMPDEST DUP2 EQ PUSH2 0xC3 JUMPI PUSH1 0x0 DUP1 REVERT JUMPDEST POP JUMP JUMPDEST PUSH1 0x0 DUP2 MLOAD SWAP1 POP PUSH2 0xD5 DUP2 PUSH2 0xAF JUMP JUMPDEST SWAP3 SWAP2 POP POP JUMP JUMPDEST PUSH1 0x0 PUSH1 0x20 DUP3 DUP5 SUB SLT ISZERO PUSH2 0xF1 JUMPI PUSH2 0xF0 PUSH2 0x78 JUMP JUMPDEST JUMPDEST PUSH1 0x0 PUSH2 0xFF DUP5 DUP3 DUP6 ADD PUSH2 0xC6 JUMP JUMPDEST SWAP2 POP POP SWAP3 SWAP2 POP POP JUMP JUMPDEST PUSH2 0x3151 DUP1 PUSH2 0x117 PUSH1 0x0 CODECOPY PUSH1 0x0 RETURN INVALID PUSH1 0x80 PUSH1 0x40 MSTORE PUSH1 0x4 CALLDATASIZE LT PUSH2 0xA7 JUMPI PUSH1 0x0 CALLDATALOAD PUSH1 0xE0 SHR DUP1 PUSH4 0x91A48A1E GT PUSH2 0x64 JUMPI DUP1 PUSH4 0x91A48A1E EQ PUSH2 0x1C6 JUMPI DUP1 PUSH4 0x96B5A755 EQ PUSH2 0x1EF JUMPI DUP1 PUSH4 0x9979EF45 EQ PUSH2 0x218 JUMPI DUP1 PUSH4 0xAFE4143D EQ PUSH2 0x234 JUMPI DUP1 PUSH4 0xBA18429A EQ PUSH2 0x25F JUMPI DUP1 PUSH4 0xE8083863 EQ PUSH2 0x29C JUMPI PUSH2 0xA7 JUMP JUMPDEST DUP1 PUSH4 0x7C9CD45 EQ PUSH2 0xAC JUMPI DUP1 PUSH4 0x29CB924D EQ PUSH2 0xD5 JUMPI DUP1 PUSH4 0x431F21DA EQ PUSH2 0x100 JUMPI DUP1 PUSH4 0x51ED8288 EQ PUSH2 0x129 JUMPI DUP1 PUSH4 0x54C04873 EQ PUSH2 0x145 JUMPI DUP1 PUSH4 0x571A26A0 EQ PUSH2 0x182 JUMPI JUMPDEST PUSH1 0x0 DUP1 REVERT JUMPDEST CALLVALUE DUP1 ISZERO PUSH2 0xB8 JUMPI PUSH1 0x0 DUP1 REVERT JUMPDEST POP PUSH2 0xD3 PUSH1 0x4 DUP1 CALLDATASIZE SUB DUP2 ADD SWAP1 PUSH2 0xCE SWAP2 SWAP1 PUSH2 0x1DCE JUMP JUMPDEST PUSH2 0x2C5 JUMP JUMPDEST STOP JUMPDEST CALLVALUE DUP1 ISZERO PUSH2 0xE1 JUMPI PUSH1 0x0 DUP1 REVERT JUMPDEST POP PUSH2 0xEA PUSH2 0x5FD JUMP JUMPDEST PUSH1 0x40 MLOAD PUSH2 0xF7 SWAP2 SWAP1 PUSH2 0x1E0A JUMP JUMPDEST PUSH1 0x40 MLOAD DUP1 SWAP2 SUB SWAP1 RETURN JUMPDEST CALLVALUE DUP1 ISZERO PUSH2 0x10C JUMPI PUSH1 0x0 DUP1 REVERT JUMPDEST POP PUSH2 0x127 PUSH1 0x4 DUP1 CALLDATASIZE SUB DUP2 ADD SWAP1 PUSH2 0x122 SWAP2 SWAP1 PUSH2 0x1E25 JUMP JUMPDEST PUSH2 0x605 JUMP JUMPDEST STOP JUMPDEST PUSH2 0x143 PUSH1 0x4 DUP1 CALLDATASIZE SUB DUP2 ADD SWAP1 PUSH2 0x13E SWAP2 SWAP1 PUSH2 0x1DCE JUMP JUMPDEST PUSH2 0xB13 JUMP JUMPDEST STOP JUMPDEST CALLVALUE DUP1 ISZERO PUSH2 0x151 JUMPI PUSH1 0x0 DUP1 REVERT JUMPDEST POP PUSH2 0x16C PUSH1 0x4 DUP1 CALLDATASIZE SUB DUP2 ADD SWAP1 PUSH2 0x167 SWAP2 SWAP1 PUSH2 0x1DCE JUMP JUMPDEST PUSH2 0xF7E JUMP JUMPDEST PUSH1 0x40 MLOAD PUSH2 0x179 SWAP2 SWAP1 PUSH2 0x1EA7 JUMP JUMPDEST PUSH1 0x40 MLOAD DUP1 SWAP2 SUB SWAP1 RETURN JUMPDEST CALLVALUE DUP1 ISZERO PUSH2 0x18E JUMPI PUSH1 0x0 DUP1 REVERT JUMPDEST POP PUSH2 0x1A9 PUSH1 0x4 DUP1 CALLDATASIZE SUB DUP2 ADD SWAP1 PUSH2 0x1A4 SWAP2 SWAP1 PUSH2 0x1DCE JUMP JUMPDEST PUSH2 0xF9E JUMP JUMPDEST PUSH1 0x40 MLOAD PUSH2 0x1BD SWAP9 SWAP8 SWAP7 SWAP6 SWAP5 SWAP4 SWAP3 SWAP2 SWAP1 PUSH2 0x1F24 JUMP JUMPDEST PUSH1 0x40 MLOAD DUP1 SWAP2 SUB SWAP1 RETURN JUMPDEST CALLVALUE DUP1 ISZERO PUSH2 0x1D2 JUMPI PUSH1 0x0 DUP1 REVERT JUMPDEST POP PUSH2 0x1ED PUSH1 0x4 DUP1 CALLDATASIZE SUB DUP2 ADD SWAP1 PUSH2 0x1E8 SWAP2 SWAP1 PUSH2 0x1FA2 JUMP JUMPDEST PUSH2 0x1033 JUMP JUMPDEST STOP JUMPDEST CALLVALUE DUP1 ISZERO PUSH2 0x1FB JUMPI PUSH1 0x0 DUP1 REVERT JUMPDEST POP PUSH2 0x216 PUSH1 0x4 DUP1 CALLDATASIZE SUB DUP2 ADD SWAP1 PUSH2 0x211 SWAP2 SWAP1 PUSH2 0x1DCE JUMP JUMPDEST PUSH2 0x13C7 JUMP JUMPDEST STOP JUMPDEST PUSH2 0x232 PUSH1 0x4 DUP1 CALLDATASIZE SUB DUP2 ADD SWAP1 PUSH2 0x22D SWAP2 SWAP1 PUSH2 0x1DCE JUMP JUMPDEST PUSH2 0x160E JUMP JUMPDEST STOP JUMPDEST CALLVALUE DUP1 ISZERO PUSH2 0x240 JUMPI PUSH1 0x0 DUP1 REVERT JUMPDEST POP PUSH2 0x249 PUSH2 0x18CA JUMP JUMPDEST PUSH1 0x40 MLOAD PUSH2 0x256 SWAP2 SWAP1 PUSH2 0x2041 JUMP JUMPDEST PUSH1 0x40 MLOAD DUP1 SWAP2 SUB SWAP1 RETURN JUMPDEST CALLVALUE DUP1 ISZERO PUSH2 0x26B JUMPI PUSH1 0x0 DUP1 REVERT JUMPDEST POP PUSH2 0x286 PUSH1 0x4 DUP1 CALLDATASIZE SUB DUP2 ADD SWAP1 PUSH2 0x281 SWAP2 SWAP1 PUSH2 0x1DCE JUMP JUMPDEST PUSH2 0x18EE JUMP JUMPDEST PUSH1 0x40 MLOAD PUSH2 0x293 SWAP2 SWAP1 PUSH2 0x1EA7 JUMP JUMPDEST PUSH1 0x40 MLOAD DUP1 SWAP2 SUB SWAP1 RETURN JUMPDEST CALLVALUE DUP1 ISZERO PUSH2 0x2A8 JUMPI PUSH1 0x0 DUP1 REVERT JUMPDEST POP PUSH2 0x2C3 PUSH1 0x4 DUP1 CALLDATASIZE SUB DUP2 ADD SWAP1 PUSH2 0x2BE SWAP2 SWAP1 PUSH2 0x1DCE JUMP JUMPDEST PUSH2 0x190E JUMP JUMPDEST STOP JUMPDEST PUSH1 0x3 PUSH1 0x0 DUP3 DUP2 MSTORE PUSH1 0x20 ADD SWAP1 DUP2 MSTORE PUSH1 0x20 ADD PUSH1 0x0 KECCAK256 PUSH1 0x0 SWAP1 SLOAD SWAP1 PUSH2 0x100 EXP SWAP1 DIV PUSH1 0xFF AND PUSH2 0x325 JUMPI PUSH1 0x40 MLOAD PUSH32 0x8C379A000000000000000000000000000000000000000000000000000000000 DUP2 MSTORE PUSH1 0x4 ADD PUSH2 0x31C SWAP1 PUSH2 0x20B9 JUMP JUMPDEST PUSH1 0x40 MLOAD DUP1 SWAP2 SUB SWAP1 REVERT JUMPDEST PUSH1 0x0 DUP1 PUSH1 0x0 DUP1 SLOAD SWAP1 PUSH2 0x100 EXP SWAP1 DIV PUSH20 0xFFFFFFFFFFFFFFFFFFFFFFFFFFFFFFFFFFFFFFFF AND PUSH20 0xFFFFFFFFFFFFFFFFFFFFFFFFFFFFFFFFFFFFFFFF AND PUSH4 0x82260F35 DUP5 PUSH1 0x40 MLOAD DUP3 PUSH4 0xFFFFFFFF AND PUSH1 0xE0 SHL DUP2 MSTORE PUSH1 0x4 ADD PUSH2 0x381 SWAP2 SWAP1 PUSH2 0x1E0A JUMP JUMPDEST PUSH1 0x0 PUSH1 0x40 MLOAD DUP1 DUP4 SUB DUP2 DUP7 GAS STATICCALL ISZERO DUP1 ISZERO PUSH2 0x39E JUMPI RETURNDATASIZE PUSH1 0x0 DUP1 RETURNDATACOPY RETURNDATASIZE PUSH1 0x0 REVERT JUMPDEST POP POP POP POP PUSH1 0x40 MLOAD RETURNDATASIZE PUSH1 0x0 DUP3 RETURNDATACOPY RETURNDATASIZE PUSH1 0x1F NOT PUSH1 0x1F DUP3 ADD AND DUP3 ADD DUP1 PUSH1 0x40 MSTORE POP DUP2 ADD SWAP1 PUSH2 0x3C7 SWAP2 SWAP1 PUSH2 0x22A7 JUMP JUMPDEST POP SWAP3 POP SWAP3 POP POP DUP1 PUSH2 0x40D JUMPI PUSH1 0x40 MLOAD PUSH32 0x8C379A000000000000000000000000000000000000000000000000000000000 DUP2 MSTORE PUSH1 0x4 ADD PUSH2 0x404 SWAP1 PUSH2 0x2376 JUMP JUMPDEST PUSH1 0x40 MLOAD DUP1 SWAP2 SUB SWAP1 REVERT JUMPDEST CALLER PUSH20 0xFFFFFFFFFFFFFFFFFFFFFFFFFFFFFFFFFFFFFFFF AND DUP3 PUSH20 0xFFFFFFFFFFFFFFFFFFFFFFFFFFFFFFFFFFFFFFFF AND EQ PUSH2 0x47B JUMPI PUSH1 0x40 MLOAD PUSH32 0x8C379A000000000000000000000000000000000000000000000000000000000 DUP2 MSTORE PUSH1 0x4 ADD PUSH2 0x472 SWAP1 PUSH2 0x2408 JUMP JUMPDEST PUSH1 0x40 MLOAD DUP1 SWAP2 SUB SWAP1 REVERT JUMPDEST PUSH1 0x0 PUSH1 0x3 PUSH1 0x0 DUP6 DUP2 MSTORE PUSH1 0x20 ADD SWAP1 DUP2 MSTORE PUSH1 0x20 ADD PUSH1 0x0 KECCAK256 PUSH1 0x0 PUSH2 0x100 EXP DUP2 SLOAD DUP2 PUSH1 0xFF MUL NOT AND SWAP1 DUP4 ISZERO ISZERO MUL OR SWAP1 SSTORE POP PUSH1 0x0 PUSH1 0x4 PUSH1 0x0 DUP6 DUP2 MSTORE PUSH1 0x20 ADD SWAP1 DUP2 MSTORE PUSH1 0x20 ADD PUSH1 0x0 KECCAK256 DUP2 SWAP1 SSTORE POP PUSH1 0x0 PUSH1 0x5 PUSH1 0x0 CALLER PUSH20 0xFFFFFFFFFFFFFFFFFFFFFFFFFFFFFFFFFFFFFFFF AND PUSH20 0xFFFFFFFFFFFFFFFFFFFFFFFFFFFFFFFFFFFFFFFF AND DUP2 MSTORE PUSH1 0x20 ADD SWAP1 DUP2 MSTORE PUSH1 0x20 ADD PUSH1 0x0 KECCAK256 SWAP1 POP PUSH1 0x0 JUMPDEST DUP2 DUP1 SLOAD SWAP1 POP DUP2 LT ISZERO PUSH2 0x5BE JUMPI DUP5 DUP3 DUP3 DUP2 SLOAD DUP2 LT PUSH2 0x526 JUMPI PUSH2 0x525 PUSH2 0x2428 JUMP JUMPDEST JUMPDEST SWAP1 PUSH1 0x0 MSTORE PUSH1 0x20 PUSH1 0x0 KECCAK256 ADD SLOAD SUB PUSH2 0x5B1 JUMPI DUP2 PUSH1 0x1 DUP4 DUP1 SLOAD SWAP1 POP PUSH2 0x548 SWAP2 SWAP1 PUSH2 0x2486 JUMP JUMPDEST DUP2 SLOAD DUP2 LT PUSH2 0x559 JUMPI PUSH2 0x558 PUSH2 0x2428 JUMP JUMPDEST JUMPDEST SWAP1 PUSH1 0x0 MSTORE PUSH1 0x20 PUSH1 0x0 KECCAK256 ADD SLOAD DUP3 DUP3 DUP2 SLOAD DUP2 LT PUSH2 0x577 JUMPI PUSH2 0x576 PUSH2 0x2428 JUMP JUMPDEST JUMPDEST SWAP1 PUSH1 0x0 MSTORE PUSH1 0x20 PUSH1 0x0 KECCAK256 ADD DUP2 SWAP1 SSTORE POP DUP2 DUP1 SLOAD DUP1 PUSH2 0x596 JUMPI PUSH2 0x595 PUSH2 0x24BA JUMP JUMPDEST JUMPDEST PUSH1 0x1 SWAP1 SUB DUP2 DUP2 SWAP1 PUSH1 0x0 MSTORE PUSH1 0x20 PUSH1 0x0 KECCAK256 ADD PUSH1 0x0 SWAP1 SSTORE SWAP1 SSTORE PUSH2 0x5BE JUMP JUMPDEST DUP1 DUP1 PUSH1 0x1 ADD SWAP2 POP POP PUSH2 0x506 JUMP JUMPDEST POP DUP4 PUSH32 0x5E86A35827477C5388F131AE2AE3671A03F959D1815796F76FBC695FD5ADEDEA CALLER PUSH1 0x40 MLOAD PUSH2 0x5EF SWAP2 SWAP1 PUSH2 0x24E9 JUMP JUMPDEST PUSH1 0x40 MLOAD DUP1 SWAP2 SUB SWAP1 LOG2 POP POP POP POP JUMP JUMPDEST PUSH1 0x0 TIMESTAMP SWAP1 POP SWAP1 JUMP JUMPDEST PUSH7 0x6A94D74F430000 DUP4 LT ISZERO PUSH2 0x64F JUMPI PUSH1 0x40 MLOAD PUSH32 0x8C379A000000000000000000000000000000000000000000000000000000000 DUP2 MSTORE PUSH1 0x4 ADD PUSH2 0x646 SWAP1 PUSH2 0x2576 JUMP JUMPDEST PUSH1 0x40 MLOAD DUP1 SWAP2 SUB SWAP1 REVERT JUMPDEST PUSH1 0x0 DUP1 PUSH1 0x0 DUP1 PUSH1 0x0 SWAP1 SLOAD SWAP1 PUSH2 0x100 EXP SWAP1 DIV PUSH20 0xFFFFFFFFFFFFFFFFFFFFFFFFFFFFFFFFFFFFFFFF AND PUSH20 0xFFFFFFFFFFFFFFFFFFFFFFFFFFFFFFFFFFFFFFFF AND PUSH4 0x82260F35 DUP9 PUSH1 0x40 MLOAD DUP3 PUSH4 0xFFFFFFFF AND PUSH1 0xE0 SHL DUP2 MSTORE PUSH1 0x4 ADD PUSH2 0x6AE SWAP2 SWAP1 PUSH2 0x1E0A JUMP JUMPDEST PUSH1 0x0 PUSH1 0x40 MLOAD DUP1 DUP4 SUB DUP2 DUP7 GAS STATICCALL ISZERO DUP1 ISZERO PUSH2 0x6CB JUMPI RETURNDATASIZE PUSH1 0x0 DUP1 RETURNDATACOPY RETURNDATASIZE PUSH1 0x0 REVERT JUMPDEST POP POP POP POP PUSH1 0x40 MLOAD RETURNDATASIZE PUSH1 0x0 DUP3 RETURNDATACOPY RETURNDATASIZE PUSH1 0x1F NOT PUSH1 0x1F DUP3 ADD AND DUP3 ADD DUP1 PUSH1 0x40 MSTORE POP DUP2 ADD SWAP1 PUSH2 0x6F4 SWAP2 SWAP1 PUSH2 0x22A7 JUMP JUMPDEST SWAP4 POP SWAP4 POP SWAP4 POP POP DUP2 PUSH2 0x73B JUMPI PUSH1 0x40 MLOAD PUSH32 0x8C379A000000000000000000000000000000000000000000000000000000000 DUP2 MSTORE PUSH1 0x4 ADD PUSH2 0x732 SWAP1 PUSH2 0x2376 JUMP JUMPDEST PUSH1 0x40 MLOAD DUP1 SWAP2 SUB SWAP1 REVERT JUMPDEST CALLER PUSH20 0xFFFFFFFFFFFFFFFFFFFFFFFFFFFFFFFFFFFFFFFF AND DUP4 PUSH20 0xFFFFFFFFFFFFFFFFFFFFFFFFFFFFFFFFFFFFFFFF AND EQ PUSH2 0x7A9 JUMPI PUSH1 0x40 MLOAD PUSH32 0x8C379A000000000000000000000000000000000000000000000000000000000 DUP2 MSTORE PUSH1 0x4 ADD PUSH2 0x7A0 SWAP1 PUSH2 0x2408 JUMP JUMPDEST PUSH1 0x40 MLOAD DUP1 SWAP2 SUB SWAP1 REVERT JUMPDEST PUSH1 0x3 PUSH1 0x0 DUP9 DUP2 MSTORE PUSH1 0x20 ADD SWAP1 DUP2 MSTORE PUSH1 0x20 ADD PUSH1 0x0 KECCAK256 PUSH1 0x0 SWAP1 SLOAD SWAP1 PUSH2 0x100 EXP SWAP1 DIV PUSH1 0xFF AND ISZERO PUSH2 0x80A JUMPI PUSH1 0x40 MLOAD PUSH32 0x8C379A000000000000000000000000000000000000000000000000000000000 DUP2 MSTORE PUSH1 0x4 ADD PUSH2 0x801 SWAP1 PUSH2 0x25E2 JUMP JUMPDEST PUSH1 0x40 MLOAD DUP1 SWAP2 SUB SWAP1 REVERT JUMPDEST PUSH1 0x3C DUP6 DUP6 PUSH2 0x818 SWAP2 SWAP1 PUSH2 0x2486 JUMP JUMPDEST LT ISZERO PUSH2 0x859 JUMPI PUSH1 0x40 MLOAD PUSH32 0x8C379A000000000000000000000000000000000000000000000000000000000 DUP2 MSTORE PUSH1 0x4 ADD PUSH2 0x850 SWAP1 PUSH2 0x2674 JUMP JUMPDEST PUSH1 0x40 MLOAD DUP1 SWAP2 SUB SWAP1 REVERT JUMPDEST TIMESTAMP DUP5 GT PUSH2 0x89B JUMPI PUSH1 0x40 MLOAD PUSH32 0x8C379A000000000000000000000000000000000000000000000000000000000 DUP2 MSTORE PUSH1 0x4 ADD PUSH2 0x892 SWAP1 PUSH2 0x26E0 JUMP JUMPDEST PUSH1 0x40 MLOAD DUP1 SWAP2 SUB SWAP1 REVERT JUMPDEST PUSH1 0x2 PUSH1 0x0 DUP9 DUP2 MSTORE PUSH1 0x20 ADD SWAP1 DUP2 MSTORE PUSH1 0x20 ADD PUSH1 0x0 KECCAK256 PUSH1 0x0 SWAP1 SLOAD SWAP1 PUSH2 0x100 EXP SWAP1 DIV PUSH1 0xFF AND ISZERO PUSH2 0x8FC JUMPI PUSH1 0x40 MLOAD PUSH32 0x8C379A000000000000000000000000000000000000000000000000000000000 DUP2 MSTORE PUSH1 0x4 ADD PUSH2 0x8F3 SWAP1 PUSH2 0x2772 JUMP JUMPDEST PUSH1 0x40 MLOAD DUP1 SWAP2 SUB SWAP1 REVERT JUMPDEST DUP1 DUP7 LT ISZERO PUSH2 0x93F JUMPI PUSH1 0x40 MLOAD PUSH32 0x8C379A000000000000000000000000000000000000000000000000000000000 DUP2 MSTORE PUSH1 0x4 ADD PUSH2 0x936 SWAP1 PUSH2 0x2804 JUMP JUMPDEST PUSH1 0x40 MLOAD DUP1 SWAP2 SUB SWAP1 REVERT JUMPDEST PUSH1 0x40 MLOAD DUP1 PUSH2 0x100 ADD PUSH1 0x40 MSTORE DUP1 DUP9 DUP2 MSTORE PUSH1 0x20 ADD DUP8 DUP2 MSTORE PUSH1 0x20 ADD TIMESTAMP DUP2 MSTORE PUSH1 0x20 ADD DUP6 DUP2 MSTORE PUSH1 0x20 ADD CALLER PUSH20 0xFFFFFFFFFFFFFFFFFFFFFFFFFFFFFFFFFFFFFFFF AND DUP2 MSTORE PUSH1 0x20 ADD PUSH1 0x0 PUSH20 0xFFFFFFFFFFFFFFFFFFFFFFFFFFFFFFFFFFFFFFFF AND DUP2 MSTORE PUSH1 0x20 ADD PUSH1 0x0 DUP2 MSTORE PUSH1 0x20 ADD PUSH1 0x1 ISZERO ISZERO DUP2 MSTORE POP PUSH1 0x1 PUSH1 0x0 DUP10 DUP2 MSTORE PUSH1 0x20 ADD SWAP1 DUP2 MSTORE PUSH1 0x20 ADD PUSH1 0x0 KECCAK256 PUSH1 0x0 DUP3 ADD MLOAD DUP2 PUSH1 0x0 ADD SSTORE PUSH1 0x20 DUP3 ADD MLOAD DUP2 PUSH1 0x1 ADD SSTORE PUSH1 0x40 DUP3 ADD MLOAD DUP2 PUSH1 0x2 ADD SSTORE PUSH1 0x60 DUP3 ADD MLOAD DUP2 PUSH1 0x3 ADD SSTORE PUSH1 0x80 DUP3 ADD MLOAD DUP2 PUSH1 0x4 ADD PUSH1 0x0 PUSH2 0x100 EXP DUP2 SLOAD DUP2 PUSH20 0xFFFFFFFFFFFFFFFFFFFFFFFFFFFFFFFFFFFFFFFF MUL NOT AND SWAP1 DUP4 PUSH20 0xFFFFFFFFFFFFFFFFFFFFFFFFFFFFFFFFFFFFFFFF AND MUL OR SWAP1 SSTORE POP PUSH1 0xA0 DUP3 ADD MLOAD DUP2 PUSH1 0x5 ADD PUSH1 0x0 PUSH2 0x100 EXP DUP2 SLOAD DUP2 PUSH20 0xFFFFFFFFFFFFFFFFFFFFFFFFFFFFFFFFFFFFFFFF MUL NOT AND SWAP1 DUP4 PUSH20 0xFFFFFFFFFFFFFFFFFFFFFFFFFFFFFFFFFFFFFFFF AND MUL OR SWAP1 SSTORE POP PUSH1 0xC0 DUP3 ADD MLOAD DUP2 PUSH1 0x6 ADD SSTORE PUSH1 0xE0 DUP3 ADD MLOAD DUP2 PUSH1 0x7 ADD PUSH1 0x0 PUSH2 0x100 EXP DUP2 SLOAD DUP2 PUSH1 0xFF MUL NOT AND SWAP1 DUP4 ISZERO ISZERO MUL OR SWAP1 SSTORE POP SWAP1 POP POP PUSH1 0x1 PUSH1 0x2 PUSH1 0x0 DUP10 DUP2 MSTORE PUSH1 0x20 ADD SWAP1 DUP2 MSTORE PUSH1 0x20 ADD PUSH1 0x0 KECCAK256 PUSH1 0x0 PUSH2 0x100 EXP DUP2 SLOAD DUP2 PUSH1 0xFF MUL NOT AND SWAP1 DUP4 ISZERO ISZERO MUL OR SWAP1 SSTORE POP DUP7 PUSH32 0xFE21114808B55D6A54BEC91C46A20E8DFE7F033EDF3F058A5012A829D8D0E3CA DUP8 TIMESTAMP DUP8 CALLER PUSH1 0x40 MLOAD PUSH2 0xB02 SWAP5 SWAP4 SWAP3 SWAP2 SWAP1 PUSH2 0x2824 JUMP JUMPDEST PUSH1 0x40 MLOAD DUP1 SWAP2 SUB SWAP1 LOG2 POP POP POP POP POP POP POP JUMP JUMPDEST PUSH1 0x3 PUSH1 0x0 DUP3 DUP2 MSTORE PUSH1 0x20 ADD SWAP1 DUP2 MSTORE PUSH1 0x20 ADD PUSH1 0x0 KECCAK256 PUSH1 0x0 SWAP1 SLOAD SWAP1 PUSH2 0x100 EXP SWAP1 DIV PUSH1 0xFF AND PUSH2 0xB73 JUMPI PUSH1 0x40 MLOAD PUSH32 0x8C379A000000000000000000000000000000000000000000000000000000000 DUP2 MSTORE PUSH1 0x4 ADD PUSH2 0xB6A SWAP1 PUSH2 0x28B5 JUMP JUMPDEST PUSH1 0x40 MLOAD DUP1 SWAP2 SUB SWAP1 REVERT JUMPDEST PUSH1 0x0 PUSH1 0x4 PUSH1 0x0 DUP4 DUP2 MSTORE PUSH1 0x20 ADD SWAP1 DUP2 MSTORE PUSH1 0x20 ADD PUSH1 0x0 KECCAK256 SLOAD SWAP1 POP DUP1 CALLVALUE EQ PUSH2 0xBCD JUMPI PUSH1 0x40 MLOAD PUSH32 0x8C379A000000000000000000000000000000000000000000000000000000000 DUP2 MSTORE PUSH1 0x4 ADD PUSH2 0xBC4 SWAP1 PUSH2 0x2921 JUMP JUMPDEST PUSH1 0x40 MLOAD DUP1 SWAP2 SUB SWAP1 REVERT JUMPDEST PUSH1 0x0 DUP1 PUSH1 0x0 DUP1 SLOAD SWAP1 PUSH2 0x100 EXP SWAP1 DIV PUSH20 0xFFFFFFFFFFFFFFFFFFFFFFFFFFFFFFFFFFFFFFFF AND PUSH20 0xFFFFFFFFFFFFFFFFFFFFFFFFFFFFFFFFFFFFFFFF AND PUSH4 0x82260F35 DUP6 PUSH1 0x40 MLOAD DUP3 PUSH4 0xFFFFFFFF AND PUSH1 0xE0 SHL DUP2 MSTORE PUSH1 0x4 ADD PUSH2 0xC29 SWAP2 SWAP1 PUSH2 0x1E0A JUMP JUMPDEST PUSH1 0x0 PUSH1 0x40 MLOAD DUP1 DUP4 SUB DUP2 DUP7 GAS STATICCALL ISZERO DUP1 ISZERO PUSH2 0xC46 JUMPI RETURNDATASIZE PUSH1 0x0 DUP1 RETURNDATACOPY RETURNDATASIZE PUSH1 0x0 REVERT JUMPDEST POP POP POP POP PUSH1 0x40 MLOAD RETURNDATASIZE PUSH1 0x0 DUP3 RETURNDATACOPY RETURNDATASIZE PUSH1 0x1F NOT PUSH1 0x1F DUP3 ADD AND DUP3 ADD DUP1 PUSH1 0x40 MSTORE POP DUP2 ADD SWAP1 PUSH2 0xC6F SWAP2 SWAP1 PUSH2 0x22A7 JUMP JUMPDEST POP SWAP3 POP SWAP3 POP POP DUP1 PUSH2 0xCB5 JUMPI PUSH1 0x40 MLOAD PUSH32 0x8C379A000000000000000000000000000000000000000000000000000000000 DUP2 MSTORE PUSH1 0x4 ADD PUSH2 0xCAC SWAP1 PUSH2 0x2376 JUMP JUMPDEST PUSH1 0x40 MLOAD DUP1 SWAP2 SUB SWAP1 REVERT JUMPDEST DUP2 PUSH20 0xFFFFFFFFFFFFFFFFFFFFFFFFFFFFFFFFFFFFFFFF AND CALLER PUSH20 0xFFFFFFFFFFFFFFFFFFFFFFFFFFFFFFFFFFFFFFFF AND SUB PUSH2 0xD23 JUMPI PUSH1 0x40 MLOAD PUSH32 0x8C379A000000000000000000000000000000000000000000000000000000000 DUP2 MSTORE PUSH1 0x4 ADD PUSH2 0xD1A SWAP1 PUSH2 0x298D JUMP JUMPDEST PUSH1 0x40 MLOAD DUP1 SWAP2 SUB SWAP1 REVERT JUMPDEST PUSH1 0x0 PUSH1 0x3 PUSH1 0x0 DUP7 DUP2 MSTORE PUSH1 0x20 ADD SWAP1 DUP2 MSTORE PUSH1 0x20 ADD PUSH1 0x0 KECCAK256 PUSH1 0x0 PUSH2 0x100 EXP DUP2 SLOAD DUP2 PUSH1 0xFF MUL NOT AND SWAP1 DUP4 ISZERO ISZERO MUL OR SWAP1 SSTORE POP PUSH1 0x0 PUSH1 0x4 PUSH1 0x0 DUP7 DUP2 MSTORE PUSH1 0x20 ADD SWAP1 DUP2 MSTORE PUSH1 0x20 ADD PUSH1 0x0 KECCAK256 DUP2 SWAP1 SSTORE POP PUSH1 0x0 PUSH1 0x5 PUSH1 0x0 DUP5 PUSH20 0xFFFFFFFFFFFFFFFFFFFFFFFFFFFFFFFFFFFFFFFF AND PUSH20 0xFFFFFFFFFFFFFFFFFFFFFFFFFFFFFFFFFFFFFFFF AND DUP2 MSTORE PUSH1 0x20 ADD SWAP1 DUP2 MSTORE PUSH1 0x20 ADD PUSH1 0x0 KECCAK256 SWAP1 POP PUSH1 0x0 JUMPDEST DUP2 DUP1 SLOAD SWAP1 POP DUP2 LT ISZERO PUSH2 0xE66 JUMPI DUP6 DUP3 DUP3 DUP2 SLOAD DUP2 LT PUSH2 0xDCE JUMPI PUSH2 0xDCD PUSH2 0x2428 JUMP JUMPDEST JUMPDEST SWAP1 PUSH1 0x0 MSTORE PUSH1 0x20 PUSH1 0x0 KECCAK256 ADD SLOAD SUB PUSH2 0xE59 JUMPI DUP2 PUSH1 0x1 DUP4 DUP1 SLOAD SWAP1 POP PUSH2 0xDF0 SWAP2 SWAP1 PUSH2 0x2486 JUMP JUMPDEST DUP2 SLOAD DUP2 LT PUSH2 0xE01 JUMPI PUSH2 0xE00 PUSH2 0x2428 JUMP JUMPDEST JUMPDEST SWAP1 PUSH1 0x0 MSTORE PUSH1 0x20 PUSH1 0x0 KECCAK256 ADD SLOAD DUP3 DUP3 DUP2 SLOAD DUP2 LT PUSH2 0xE1F JUMPI PUSH2 0xE1E PUSH2 0x2428 JUMP JUMPDEST JUMPDEST SWAP1 PUSH1 0x0 MSTORE PUSH1 0x20 PUSH1 0x0 KECCAK256 ADD DUP2 SWAP1 SSTORE POP DUP2 DUP1 SLOAD DUP1 PUSH2 0xE3E JUMPI PUSH2 0xE3D PUSH2 0x24BA JUMP JUMPDEST JUMPDEST PUSH1 0x1 SWAP1 SUB DUP2 DUP2 SWAP1 PUSH1 0x0 MSTORE PUSH1 0x20 PUSH1 0x0 KECCAK256 ADD PUSH1 0x0 SWAP1 SSTORE SWAP1 SSTORE PUSH2 0xE66 JUMP JUMPDEST DUP1 DUP1 PUSH1 0x1 ADD SWAP2 POP POP PUSH2 0xDAE JUMP JUMPDEST POP DUP3 PUSH20 0xFFFFFFFFFFFFFFFFFFFFFFFFFFFFFFFFFFFFFFFF AND PUSH2 0x8FC CALLVALUE SWAP1 DUP2 ISZERO MUL SWAP1 PUSH1 0x40 MLOAD PUSH1 0x0 PUSH1 0x40 MLOAD DUP1 DUP4 SUB DUP2 DUP6 DUP9 DUP9 CALL SWAP4 POP POP POP POP ISZERO DUP1 ISZERO PUSH2 0xEAD JUMPI RETURNDATASIZE PUSH1 0x0 DUP1 RETURNDATACOPY RETURNDATASIZE PUSH1 0x0 REVERT JUMPDEST POP PUSH1 0x0 DUP1 SLOAD SWAP1 PUSH2 0x100 EXP SWAP1 DIV PUSH20 0xFFFFFFFFFFFFFFFFFFFFFFFFFFFFFFFFFFFFFFFF AND PUSH20 0xFFFFFFFFFFFFFFFFFFFFFFFFFFFFFFFFFFFFFFFF AND PUSH4 0x9036C050 DUP7 CALLER PUSH1 0x40 MLOAD DUP4 PUSH4 0xFFFFFFFF AND PUSH1 0xE0 SHL DUP2 MSTORE PUSH1 0x4 ADD PUSH2 0xF09 SWAP3 SWAP2 SWAP1 PUSH2 0x29AD JUMP JUMPDEST PUSH1 0x0 PUSH1 0x40 MLOAD DUP1 DUP4 SUB DUP2 PUSH1 0x0 DUP8 DUP1 EXTCODESIZE ISZERO DUP1 ISZERO PUSH2 0xF23 JUMPI PUSH1 0x0 DUP1 REVERT JUMPDEST POP GAS CALL ISZERO DUP1 ISZERO PUSH2 0xF37 JUMPI RETURNDATASIZE PUSH1 0x0 DUP1 RETURNDATACOPY RETURNDATASIZE PUSH1 0x0 REVERT JUMPDEST POP POP POP POP DUP5 PUSH32 0x8562EB94748E30BB0071E932744CE902B460C683474FCB3BFD567FFA16B1AFB2 DUP5 CALLER DUP8 PUSH1 0x40 MLOAD PUSH2 0xF6F SWAP4 SWAP3 SWAP2 SWAP1 PUSH2 0x29D6 JUMP JUMPDEST PUSH1 0x40 MLOAD DUP1 SWAP2 SUB SWAP1 LOG2 POP POP POP POP POP JUMP JUMPDEST PUSH1 0x3 PUSH1 0x20 MSTORE DUP1 PUSH1 0x0 MSTORE PUSH1 0x40 PUSH1 0x0 KECCAK256 PUSH1 0x0 SWAP2 POP SLOAD SWAP1 PUSH2 0x100 EXP SWAP1 DIV PUSH1 0xFF AND DUP2 JUMP JUMPDEST PUSH1 0x1 PUSH1 0x20 MSTORE DUP1 PUSH1 0x0 MSTORE PUSH1 0x40 PUSH1 0x0 KECCAK256 PUSH1 0x0 SWAP2 POP SWAP1 POP DUP1 PUSH1 0x0 ADD SLOAD SWAP1 DUP1 PUSH1 0x1 ADD SLOAD SWAP1 DUP1 PUSH1 0x2 ADD SLOAD SWAP1 DUP1 PUSH1 0x3 ADD SLOAD SWAP1 DUP1 PUSH1 0x4 ADD PUSH1 0x0 SWAP1 SLOAD SWAP1 PUSH2 0x100 EXP SWAP1 DIV PUSH20 0xFFFFFFFFFFFFFFFFFFFFFFFFFFFFFFFFFFFFFFFF AND SWAP1 DUP1 PUSH1 0x5 ADD PUSH1 0x0 SWAP1 SLOAD SWAP1 PUSH2 0x100 EXP SWAP1 DIV PUSH20 0xFFFFFFFFFFFFFFFFFFFFFFFFFFFFFFFFFFFFFFFF AND SWAP1 DUP1 PUSH1 0x6 ADD SLOAD SWAP1 DUP1 PUSH1 0x7 ADD PUSH1 0x0 SWAP1 SLOAD SWAP1 PUSH2 0x100 EXP SWAP1 DIV PUSH1 0xFF AND SWAP1 POP DUP9 JUMP JUMPDEST PUSH7 0x6A94D74F430000 DUP2 LT ISZERO PUSH2 0x107D JUMPI PUSH1 0x40 MLOAD PUSH32 0x8C379A000000000000000000000000000000000000000000000000000000000 DUP2 MSTORE PUSH1 0x4 ADD PUSH2 0x1074 SWAP1 PUSH2 0x2A59 JUMP JUMPDEST PUSH1 0x40 MLOAD DUP1 SWAP2 SUB SWAP1 REVERT JUMPDEST PUSH1 0x3 PUSH1 0x0 DUP4 DUP2 MSTORE PUSH1 0x20 ADD SWAP1 DUP2 MSTORE PUSH1 0x20 ADD PUSH1 0x0 KECCAK256 PUSH1 0x0 SWAP1 SLOAD SWAP1 PUSH2 0x100 EXP SWAP1 DIV PUSH1 0xFF AND ISZERO PUSH2 0x10DE JUMPI PUSH1 0x40 MLOAD PUSH32 0x8C379A000000000000000000000000000000000000000000000000000000000 DUP2 MSTORE PUSH1 0x4 ADD PUSH2 0x10D5 SWAP1 PUSH2 0x2AC5 JUMP JUMPDEST PUSH1 0x40 MLOAD DUP1 SWAP2 SUB SWAP1 REVERT JUMPDEST PUSH1 0x2 PUSH1 0x0 DUP4 DUP2 MSTORE PUSH1 0x20 ADD SWAP1 DUP2 MSTORE PUSH1 0x20 ADD PUSH1 0x0 KECCAK256 PUSH1 0x0 SWAP1 SLOAD SWAP1 PUSH2 0x100 EXP SWAP1 DIV PUSH1 0xFF AND ISZERO PUSH2 0x113F JUMPI PUSH1 0x40 MLOAD PUSH32 0x8C379A000000000000000000000000000000000000000000000000000000000 DUP2 MSTORE PUSH1 0x4 ADD PUSH2 0x1136 SWAP1 PUSH2 0x2B31 JUMP JUMPDEST PUSH1 0x40 MLOAD DUP1 SWAP2 SUB SWAP1 REVERT JUMPDEST PUSH1 0x0 DUP1 PUSH1 0x0 DUP1 PUSH1 0x0 SWAP1 SLOAD SWAP1 PUSH2 0x100 EXP SWAP1 DIV PUSH20 0xFFFFFFFFFFFFFFFFFFFFFFFFFFFFFFFFFFFFFFFF AND PUSH20 0xFFFFFFFFFFFFFFFFFFFFFFFFFFFFFFFFFFFFFFFF AND PUSH4 0x82260F35 DUP7 PUSH1 0x40 MLOAD DUP3 PUSH4 0xFFFFFFFF AND PUSH1 0xE0 SHL DUP2 MSTORE PUSH1 0x4 ADD PUSH2 0x119E SWAP2 SWAP1 PUSH2 0x1E0A JUMP JUMPDEST PUSH1 0x0 PUSH1 0x40 MLOAD DUP1 DUP4 SUB DUP2 DUP7 GAS STATICCALL ISZERO DUP1 ISZERO PUSH2 0x11BB JUMPI RETURNDATASIZE PUSH1 0x0 DUP1 RETURNDATACOPY RETURNDATASIZE PUSH1 0x0 REVERT JUMPDEST POP POP POP POP PUSH1 0x40 MLOAD RETURNDATASIZE PUSH1 0x0 DUP3 RETURNDATACOPY RETURNDATASIZE PUSH1 0x1F NOT PUSH1 0x1F DUP3 ADD AND DUP3 ADD DUP1 PUSH1 0x40 MSTORE POP DUP2 ADD SWAP1 PUSH2 0x11E4 SWAP2 SWAP1 PUSH2 0x22A7 JUMP JUMPDEST SWAP4 POP SWAP4 POP SWAP4 POP POP DUP2 PUSH2 0x122B JUMPI PUSH1 0x40 MLOAD PUSH32 0x8C379A000000000000000000000000000000000000000000000000000000000 DUP2 MSTORE PUSH1 0x4 ADD PUSH2 0x1222 SWAP1 PUSH2 0x2376 JUMP JUMPDEST PUSH1 0x40 MLOAD DUP1 SWAP2 SUB SWAP1 REVERT JUMPDEST CALLER PUSH20 0xFFFFFFFFFFFFFFFFFFFFFFFFFFFFFFFFFFFFFFFF AND DUP4 PUSH20 0xFFFFFFFFFFFFFFFFFFFFFFFFFFFFFFFFFFFFFFFF AND EQ PUSH2 0x1299 JUMPI PUSH1 0x40 MLOAD PUSH32 0x8C379A000000000000000000000000000000000000000000000000000000000 DUP2 MSTORE PUSH1 0x4 ADD PUSH2 0x1290 SWAP1 PUSH2 0x2408 JUMP JUMPDEST PUSH1 0x40 MLOAD DUP1 SWAP2 SUB SWAP1 REVERT JUMPDEST DUP1 DUP5 LT ISZERO PUSH2 0x12DC JUMPI PUSH1 0x40 MLOAD PUSH32 0x8C379A000000000000000000000000000000000000000000000000000000000 DUP2 MSTORE PUSH1 0x4 ADD PUSH2 0x12D3 SWAP1 PUSH2 0x2BC3 JUMP JUMPDEST PUSH1 0x40 MLOAD DUP1 SWAP2 SUB SWAP1 REVERT JUMPDEST PUSH1 0x1 PUSH1 0x3 PUSH1 0x0 DUP8 DUP2 MSTORE PUSH1 0x20 ADD SWAP1 DUP2 MSTORE PUSH1 0x20 ADD PUSH1 0x0 KECCAK256 PUSH1 0x0 PUSH2 0x100 EXP DUP2 SLOAD DUP2 PUSH1 0xFF MUL NOT AND SWAP1 DUP4 ISZERO ISZERO MUL OR SWAP1 SSTORE POP DUP4 PUSH1 0x4 PUSH1 0x0 DUP8 DUP2 MSTORE PUSH1 0x20 ADD SWAP1 DUP2 MSTORE PUSH1 0x20 ADD PUSH1 0x0 KECCAK256 DUP2 SWAP1 SSTORE POP PUSH1 0x5 PUSH1 0x0 CALLER PUSH20 0xFFFFFFFFFFFFFFFFFFFFFFFFFFFFFFFFFFFFFFFF AND PUSH20 0xFFFFFFFFFFFFFFFFFFFFFFFFFFFFFFFFFFFFFFFF AND DUP2 MSTORE PUSH1 0x20 ADD SWAP1 DUP2 MSTORE PUSH1 0x20 ADD PUSH1 0x0 KECCAK256 DUP6 SWAP1 DUP1 PUSH1 0x1 DUP2 SLOAD ADD DUP1 DUP3 SSTORE DUP1 SWAP2 POP POP PUSH1 0x1 SWAP1 SUB SWAP1 PUSH1 0x0 MSTORE PUSH1 0x20 PUSH1 0x0 KECCAK256 ADD PUSH1 0x0 SWAP1 SWAP2 SWAP1 SWAP2 SWAP1 SWAP2 POP SSTORE DUP5 PUSH1 0x0 PUSH32 0xCC0C9A64FC84375CEEC206F2FC87EB06D3CACAE06967A94D2BA499000EA17617 DUP7 PUSH1 0x40 MLOAD PUSH2 0x13B8 SWAP2 SWAP1 PUSH2 0x1E0A JUMP JUMPDEST PUSH1 0x40 MLOAD DUP1 SWAP2 SUB SWAP1 LOG3 POP POP POP POP POP JUMP JUMPDEST PUSH1 0x0 PUSH1 0x1 PUSH1 0x0 DUP4 DUP2 MSTORE PUSH1 0x20 ADD SWAP1 DUP2 MSTORE PUSH1 0x20 ADD PUSH1 0x0 KECCAK256 SWAP1 POP DUP1 PUSH1 0x7 ADD PUSH1 0x0 SWAP1 SLOAD SWAP1 PUSH2 0x100 EXP SWAP1 DIV PUSH1 0xFF AND PUSH2 0x142F JUMPI PUSH1 0x40 MLOAD PUSH32 0x8C379A000000000000000000000000000000000000000000000000000000000 DUP2 MSTORE PUSH1 0x4 ADD PUSH2 0x1426 SWAP1 PUSH2 0x2C2F JUMP JUMPDEST PUSH1 0x40 MLOAD DUP1 SWAP2 SUB SWAP1 REVERT JUMPDEST CALLER PUSH20 0xFFFFFFFFFFFFFFFFFFFFFFFFFFFFFFFFFFFFFFFF AND DUP2 PUSH1 0x4 ADD PUSH1 0x0 SWAP1 SLOAD SWAP1 PUSH2 0x100 EXP SWAP1 DIV PUSH20 0xFFFFFFFFFFFFFFFFFFFFFFFFFFFFFFFFFFFFFFFF AND PUSH20 0xFFFFFFFFFFFFFFFFFFFFFFFFFFFFFFFFFFFFFFFF AND EQ PUSH2 0x14C1 JUMPI PUSH1 0x40 MLOAD PUSH32 0x8C379A000000000000000000000000000000000000000000000000000000000 DUP2 MSTORE PUSH1 0x4 ADD PUSH2 0x14B8 SWAP1 PUSH2 0x2CC1 JUMP JUMPDEST PUSH1 0x40 MLOAD DUP1 SWAP2 SUB SWAP1 REVERT JUMPDEST PUSH1 0x0 DUP2 PUSH1 0x7 ADD PUSH1 0x0 PUSH2 0x100 EXP DUP2 SLOAD DUP2 PUSH1 0xFF MUL NOT AND SWAP1 DUP4 ISZERO ISZERO MUL OR SWAP1 SSTORE POP PUSH1 0x0 PUSH1 0x2 PUSH1 0x0 DUP5 DUP2 MSTORE PUSH1 0x20 ADD SWAP1 DUP2 MSTORE PUSH1 0x20 ADD PUSH1 0x0 KECCAK256 PUSH1 0x0 PUSH2 0x100 EXP DUP2 SLOAD DUP2 PUSH1 0xFF MUL NOT AND SWAP1 DUP4 ISZERO ISZERO MUL OR SWAP1 SSTORE POP PUSH1 0x0 PUSH20 0xFFFFFFFFFFFFFFFFFFFFFFFFFFFFFFFFFFFFFFFF AND DUP2 PUSH1 0x5 ADD PUSH1 0x0 SWAP1 SLOAD SWAP1 PUSH2 0x100 EXP SWAP1 DIV PUSH20 0xFFFFFFFFFFFFFFFFFFFFFFFFFFFFFFFFFFFFFFFF AND PUSH20 0xFFFFFFFFFFFFFFFFFFFFFFFFFFFFFFFFFFFFFFFF AND EQ PUSH2 0x15D2 JUMPI DUP1 PUSH1 0x5 ADD PUSH1 0x0 SWAP1 SLOAD SWAP1 PUSH2 0x100 EXP SWAP1 DIV PUSH20 0xFFFFFFFFFFFFFFFFFFFFFFFFFFFFFFFFFFFFFFFF AND PUSH20 0xFFFFFFFFFFFFFFFFFFFFFFFFFFFFFFFFFFFFFFFF AND PUSH2 0x8FC DUP3 PUSH1 0x6 ADD SLOAD SWAP1 DUP2 ISZERO MUL SWAP1 PUSH1 0x40 MLOAD PUSH1 0x0 PUSH1 0x40 MLOAD DUP1 DUP4 SUB DUP2 DUP6 DUP9 DUP9 CALL SWAP4 POP POP POP POP ISZERO DUP1 ISZERO PUSH2 0x15D0 JUMPI RETURNDATASIZE PUSH1 0x0 DUP1 RETURNDATACOPY RETURNDATASIZE PUSH1 0x0 REVERT JUMPDEST POP JUMPDEST DUP2 PUSH32 0x10AC9F0BB365B5D22D7BEC500408692F23FDF83EADFEC71615EF88B4C1134F0E CALLER PUSH1 0x40 MLOAD PUSH2 0x1602 SWAP2 SWAP1 PUSH2 0x24E9 JUMP JUMPDEST PUSH1 0x40 MLOAD DUP1 SWAP2 SUB SWAP1 LOG2 POP POP JUMP JUMPDEST PUSH1 0x0 PUSH1 0x1 PUSH1 0x0 DUP4 DUP2 MSTORE PUSH1 0x20 ADD SWAP1 DUP2 MSTORE PUSH1 0x20 ADD PUSH1 0x0 KECCAK256 SWAP1 POP DUP1 PUSH1 0x7 ADD PUSH1 0x0 SWAP1 SLOAD SWAP1 PUSH2 0x100 EXP SWAP1 DIV PUSH1 0xFF AND PUSH2 0x1676 JUMPI PUSH1 0x40 MLOAD PUSH32 0x8C379A000000000000000000000000000000000000000000000000000000000 DUP2 MSTORE PUSH1 0x4 ADD PUSH2 0x166D SWAP1 PUSH2 0x2C2F JUMP JUMPDEST PUSH1 0x40 MLOAD DUP1 SWAP2 SUB SWAP1 REVERT JUMPDEST DUP1 PUSH1 0x3 ADD SLOAD TIMESTAMP GT ISZERO PUSH2 0x16BD JUMPI PUSH1 0x40 MLOAD PUSH32 0x8C379A000000000000000000000000000000000000000000000000000000000 DUP2 MSTORE PUSH1 0x4 ADD PUSH2 0x16B4 SWAP1 PUSH2 0x2D2D JUMP JUMPDEST PUSH1 0x40 MLOAD DUP1 SWAP2 SUB SWAP1 REVERT JUMPDEST DUP1 PUSH1 0x6 ADD SLOAD CALLVALUE GT PUSH2 0x16D1 DUP3 PUSH1 0x6 ADD SLOAD PUSH2 0x1C24 JUMP JUMPDEST PUSH1 0x40 MLOAD PUSH1 0x20 ADD PUSH2 0x16E1 SWAP2 SWAP1 PUSH2 0x2E06 JUMP JUMPDEST PUSH1 0x40 MLOAD PUSH1 0x20 DUP2 DUP4 SUB SUB DUP2 MSTORE SWAP1 PUSH1 0x40 MSTORE SWAP1 PUSH2 0x1731 JUMPI PUSH1 0x40 MLOAD PUSH32 0x8C379A000000000000000000000000000000000000000000000000000000000 DUP2 MSTORE PUSH1 0x4 ADD PUSH2 0x1728 SWAP2 SWAP1 PUSH2 0x2E61 JUMP JUMPDEST PUSH1 0x40 MLOAD DUP1 SWAP2 SUB SWAP1 REVERT JUMPDEST POP DUP1 PUSH1 0x1 ADD SLOAD CALLVALUE GT PUSH2 0x1778 JUMPI PUSH1 0x40 MLOAD PUSH32 0x8C379A000000000000000000000000000000000000000000000000000000000 DUP2 MSTORE PUSH1 0x4 ADD PUSH2 0x176F SWAP1 PUSH2 0x2EF5 JUMP JUMPDEST PUSH1 0x40 MLOAD DUP1 SWAP2 SUB SWAP1 REVERT JUMPDEST PUSH1 0x0 PUSH20 0xFFFFFFFFFFFFFFFFFFFFFFFFFFFFFFFFFFFFFFFF AND DUP2 PUSH1 0x5 ADD PUSH1 0x0 SWAP1 SLOAD SWAP1 PUSH2 0x100 EXP SWAP1 DIV PUSH20 0xFFFFFFFFFFFFFFFFFFFFFFFFFFFFFFFFFFFFFFFF AND PUSH20 0xFFFFFFFFFFFFFFFFFFFFFFFFFFFFFFFFFFFFFFFF AND EQ PUSH2 0x1840 JUMPI DUP1 PUSH1 0x5 ADD PUSH1 0x0 SWAP1 SLOAD SWAP1 PUSH2 0x100 EXP SWAP1 DIV PUSH20 0xFFFFFFFFFFFFFFFFFFFFFFFFFFFFFFFFFFFFFFFF AND PUSH20 0xFFFFFFFFFFFFFFFFFFFFFFFFFFFFFFFFFFFFFFFF AND PUSH2 0x8FC DUP3 PUSH1 0x6 ADD SLOAD SWAP1 DUP2 ISZERO MUL SWAP1 PUSH1 0x40 MLOAD PUSH1 0x0 PUSH1 0x40 MLOAD DUP1 DUP4 SUB DUP2 DUP6 DUP9 DUP9 CALL SWAP4 POP POP POP POP ISZERO DUP1 ISZERO PUSH2 0x183E JUMPI RETURNDATASIZE PUSH1 0x0 DUP1 RETURNDATACOPY RETURNDATASIZE PUSH1 0x0 REVERT JUMPDEST POP JUMPDEST CALLER DUP2 PUSH1 0x5 ADD PUSH1 0x0 PUSH2 0x100 EXP DUP2 SLOAD DUP2 PUSH20 0xFFFFFFFFFFFFFFFFFFFFFFFFFFFFFFFFFFFFFFFF MUL NOT AND SWAP1 DUP4 PUSH20 0xFFFFFFFFFFFFFFFFFFFFFFFFFFFFFFFFFFFFFFFF AND MUL OR SWAP1 SSTORE POP CALLVALUE DUP2 PUSH1 0x6 ADD DUP2 SWAP1 SSTORE POP DUP2 PUSH32 0xE54EFF26401BF69B81B26F60BD85EF47F5D85275C1D268D84F68D6897431C47 CALLER CALLVALUE PUSH1 0x40 MLOAD PUSH2 0x18BE SWAP3 SWAP2 SWAP1 PUSH2 0x2F15 JUMP JUMPDEST PUSH1 0x40 MLOAD DUP1 SWAP2 SUB SWAP1 LOG2 POP POP JUMP JUMPDEST PUSH1 0x0 DUP1 SLOAD SWAP1 PUSH2 0x100 EXP SWAP1 DIV PUSH20 0xFFFFFFFFFFFFFFFFFFFFFFFFFFFFFFFFFFFFFFFF AND DUP2 JUMP JUMPDEST PUSH1 0x2 PUSH1 0x20 MSTORE DUP1 PUSH1 0x0 MSTORE PUSH1 0x40 PUSH1 0x0 KECCAK256 PUSH1 0x0 SWAP2 POP SLOAD SWAP1 PUSH2 0x100 EXP SWAP1 DIV PUSH1 0xFF AND DUP2 JUMP JUMPDEST PUSH1 0x0 PUSH1 0x1 PUSH1 0x0 DUP4 DUP2 MSTORE PUSH1 0x20 ADD SWAP1 DUP2 MSTORE PUSH1 0x20 ADD PUSH1 0x0 KECCAK256 SWAP1 POP DUP1 PUSH1 0x7 ADD PUSH1 0x0 SWAP1 SLOAD SWAP1 PUSH2 0x100 EXP SWAP1 DIV PUSH1 0xFF AND PUSH2 0x1976 JUMPI PUSH1 0x40 MLOAD PUSH32 0x8C379A000000000000000000000000000000000000000000000000000000000 DUP2 MSTORE PUSH1 0x4 ADD PUSH2 0x196D SWAP1 PUSH2 0x2C2F JUMP JUMPDEST PUSH1 0x40 MLOAD DUP1 SWAP2 SUB SWAP1 REVERT JUMPDEST DUP1 PUSH1 0x3 ADD SLOAD TIMESTAMP GT PUSH2 0x19BC JUMPI PUSH1 0x40 MLOAD PUSH32 0x8C379A000000000000000000000000000000000000000000000000000000000 DUP2 MSTORE PUSH1 0x4 ADD PUSH2 0x19B3 SWAP1 PUSH2 0x2F8A JUMP JUMPDEST PUSH1 0x40 MLOAD DUP1 SWAP2 SUB SWAP1 REVERT JUMPDEST PUSH1 0x0 DUP2 PUSH1 0x7 ADD PUSH1 0x0 PUSH2 0x100 EXP DUP2 SLOAD DUP2 PUSH1 0xFF MUL NOT AND SWAP1 DUP4 ISZERO ISZERO MUL OR SWAP1 SSTORE POP PUSH1 0x0 PUSH1 0x2 PUSH1 0x0 DUP5 DUP2 MSTORE PUSH1 0x20 ADD SWAP1 DUP2 MSTORE PUSH1 0x20 ADD PUSH1 0x0 KECCAK256 PUSH1 0x0 PUSH2 0x100 EXP DUP2 SLOAD DUP2 PUSH1 0xFF MUL NOT AND SWAP1 DUP4 ISZERO ISZERO MUL OR SWAP1 SSTORE POP PUSH1 0x0 PUSH20 0xFFFFFFFFFFFFFFFFFFFFFFFFFFFFFFFFFFFFFFFF AND DUP2 PUSH1 0x5 ADD PUSH1 0x0 SWAP1 SLOAD SWAP1 PUSH2 0x100 EXP SWAP1 DIV PUSH20 0xFFFFFFFFFFFFFFFFFFFFFFFFFFFFFFFFFFFFFFFF AND PUSH20 0xFFFFFFFFFFFFFFFFFFFFFFFFFFFFFFFFFFFFFFFF AND EQ PUSH2 0x1BE4 JUMPI PUSH1 0x0 DUP1 SLOAD SWAP1 PUSH2 0x100 EXP SWAP1 DIV PUSH20 0xFFFFFFFFFFFFFFFFFFFFFFFFFFFFFFFFFFFFFFFF AND PUSH20 0xFFFFFFFFFFFFFFFFFFFFFFFFFFFFFFFFFFFFFFFF AND PUSH4 0x9036C050 DUP4 DUP4 PUSH1 0x5 ADD PUSH1 0x0 SWAP1 SLOAD SWAP1 PUSH2 0x100 EXP SWAP1 DIV PUSH20 0xFFFFFFFFFFFFFFFFFFFFFFFFFFFFFFFFFFFFFFFF AND PUSH1 0x40 MLOAD DUP4 PUSH4 0xFFFFFFFF AND PUSH1 0xE0 SHL DUP2 MSTORE PUSH1 0x4 ADD PUSH2 0x1ADC SWAP3 SWAP2 SWAP1 PUSH2 0x29AD JUMP JUMPDEST PUSH1 0x0 PUSH1 0x40 MLOAD DUP1 DUP4 SUB DUP2 PUSH1 0x0 DUP8 DUP1 EXTCODESIZE ISZERO DUP1 ISZERO PUSH2 0x1AF6 JUMPI PUSH1 0x0 DUP1 REVERT JUMPDEST POP GAS CALL ISZERO DUP1 ISZERO PUSH2 0x1B0A JUMPI RETURNDATASIZE PUSH1 0x0 DUP1 RETURNDATACOPY RETURNDATASIZE PUSH1 0x0 REVERT JUMPDEST POP POP POP POP DUP1 PUSH1 0x4 ADD PUSH1 0x0 SWAP1 SLOAD SWAP1 PUSH2 0x100 EXP SWAP1 DIV PUSH20 0xFFFFFFFFFFFFFFFFFFFFFFFFFFFFFFFFFFFFFFFF AND PUSH20 0xFFFFFFFFFFFFFFFFFFFFFFFFFFFFFFFFFFFFFFFF AND PUSH2 0x8FC DUP3 PUSH1 0x6 ADD SLOAD SWAP1 DUP2 ISZERO MUL SWAP1 PUSH1 0x40 MLOAD PUSH1 0x0 PUSH1 0x40 MLOAD DUP1 DUP4 SUB DUP2 DUP6 DUP9 DUP9 CALL SWAP4 POP POP POP POP ISZERO DUP1 ISZERO PUSH2 0x1B7C JUMPI RETURNDATASIZE PUSH1 0x0 DUP1 RETURNDATACOPY RETURNDATASIZE PUSH1 0x0 REVERT JUMPDEST POP DUP2 PUSH32 0x4D9113A1377D665EAA1F9168A9C9080F2E488CB820B10149DE3D6D2E0F2780C7 DUP3 PUSH1 0x5 ADD PUSH1 0x0 SWAP1 SLOAD SWAP1 PUSH2 0x100 EXP SWAP1 DIV PUSH20 0xFFFFFFFFFFFFFFFFFFFFFFFFFFFFFFFFFFFFFFFF AND DUP4 PUSH1 0x6 ADD SLOAD PUSH1 0x40 MLOAD PUSH2 0x1BD7 SWAP3 SWAP2 SWAP1 PUSH2 0x2F15 JUMP JUMPDEST PUSH1 0x40 MLOAD DUP1 SWAP2 SUB SWAP1 LOG2 PUSH2 0x1C20 JUMP JUMPDEST DUP2 PUSH32 0x4D9113A1377D665EAA1F9168A9C9080F2E488CB820B10149DE3D6D2E0F2780C7 PUSH1 0x0 DUP1 PUSH1 0x40 MLOAD PUSH2 0x1C17 SWAP3 SWAP2 SWAP1 PUSH2 0x2FE5 JUMP JUMPDEST PUSH1 0x40 MLOAD DUP1 SWAP2 SUB SWAP1 LOG2 JUMPDEST POP POP JUMP JUMPDEST PUSH1 0x60 PUSH1 0x0 DUP3 SUB PUSH2 0x1C6B JUMPI PUSH1 0x40 MLOAD DUP1 PUSH1 0x40 ADD PUSH1 0x40 MSTORE DUP1 PUSH1 0x1 DUP2 MSTORE PUSH1 0x20 ADD PUSH32 0x3000000000000000000000000000000000000000000000000000000000000000 DUP2 MSTORE POP SWAP1 POP PUSH2 0x1D7F JUMP JUMPDEST PUSH1 0x0 DUP3 SWAP1 POP PUSH1 0x0 JUMPDEST PUSH1 0x0 DUP3 EQ PUSH2 0x1C9D JUMPI DUP1 DUP1 PUSH2 0x1C86 SWAP1 PUSH2 0x300E JUMP JUMPDEST SWAP2 POP POP PUSH1 0xA DUP3 PUSH2 0x1C96 SWAP2 SWAP1 PUSH2 0x3085 JUMP JUMPDEST SWAP2 POP PUSH2 0x1C73 JUMP JUMPDEST PUSH1 0x0 DUP2 PUSH8 0xFFFFFFFFFFFFFFFF DUP2 GT ISZERO PUSH2 0x1CB9 JUMPI PUSH2 0x1CB8 PUSH2 0x20F4 JUMP JUMPDEST JUMPDEST PUSH1 0x40 MLOAD SWAP1 DUP1 DUP3 MSTORE DUP1 PUSH1 0x1F ADD PUSH1 0x1F NOT AND PUSH1 0x20 ADD DUP3 ADD PUSH1 0x40 MSTORE DUP1 ISZERO PUSH2 0x1CEB JUMPI DUP2 PUSH1 0x20 ADD PUSH1 0x1 DUP3 MUL DUP1 CALLDATASIZE DUP4 CALLDATACOPY DUP1 DUP3 ADD SWAP2 POP POP SWAP1 POP JUMPDEST POP SWAP1 POP JUMPDEST PUSH1 0x0 DUP6 EQ PUSH2 0x1D78 JUMPI PUSH1 0x1 DUP3 PUSH2 0x1D04 SWAP2 SWAP1 PUSH2 0x2486 JUMP JUMPDEST SWAP2 POP PUSH1 0xA DUP6 PUSH2 0x1D13 SWAP2 SWAP1 PUSH2 0x30B6 JUMP JUMPDEST PUSH1 0x30 PUSH2 0x1D1F SWAP2 SWAP1 PUSH2 0x30E7 JUMP JUMPDEST PUSH1 0xF8 SHL DUP2 DUP4 DUP2 MLOAD DUP2 LT PUSH2 0x1D35 JUMPI PUSH2 0x1D34 PUSH2 0x2428 JUMP JUMPDEST JUMPDEST PUSH1 0x20 ADD ADD SWAP1 PUSH31 0xFFFFFFFFFFFFFFFFFFFFFFFFFFFFFFFFFFFFFFFFFFFFFFFFFFFFFFFFFFFFFF NOT AND SWAP1 DUP2 PUSH1 0x0 BYTE SWAP1 MSTORE8 POP PUSH1 0xA DUP6 PUSH2 0x1D71 SWAP2 SWAP1 PUSH2 0x3085 JUMP JUMPDEST SWAP5 POP PUSH2 0x1CEF JUMP JUMPDEST DUP1 SWAP4 POP POP POP POP JUMPDEST SWAP2 SWAP1 POP JUMP JUMPDEST PUSH1 0x0 PUSH1 0x40 MLOAD SWAP1 POP SWAP1 JUMP JUMPDEST PUSH1 0x0 DUP1 REVERT JUMPDEST PUSH1 0x0 DUP1 REVERT JUMPDEST PUSH1 0x0 DUP2 SWAP1 POP SWAP2 SWAP1 POP JUMP JUMPDEST PUSH2 0x1DAB DUP2 PUSH2 0x1D98 JUMP JUMPDEST DUP2 EQ PUSH2 0x1DB6 JUMPI PUSH1 0x0 DUP1 REVERT JUMPDEST POP JUMP JUMPDEST PUSH1 0x0 DUP2 CALLDATALOAD SWAP1 POP PUSH2 0x1DC8 DUP2 PUSH2 0x1DA2 JUMP JUMPDEST SWAP3 SWAP2 POP POP JUMP JUMPDEST PUSH1 0x0 PUSH1 0x20 DUP3 DUP5 SUB SLT ISZERO PUSH2 0x1DE4 JUMPI PUSH2 0x1DE3 PUSH2 0x1D8E JUMP JUMPDEST JUMPDEST PUSH1 0x0 PUSH2 0x1DF2 DUP5 DUP3 DUP6 ADD PUSH2 0x1DB9 JUMP JUMPDEST SWAP2 POP POP SWAP3 SWAP2 POP POP JUMP JUMPDEST PUSH2 0x1E04 DUP2 PUSH2 0x1D98 JUMP JUMPDEST DUP3 MSTORE POP POP JUMP JUMPDEST PUSH1 0x0 PUSH1 0x20 DUP3 ADD SWAP1 POP PUSH2 0x1E1F PUSH1 0x0 DUP4 ADD DUP5 PUSH2 0x1DFB JUMP JUMPDEST SWAP3 SWAP2 POP POP JUMP JUMPDEST PUSH1 0x0 DUP1 PUSH1 0x0 DUP1 PUSH1 0x80 DUP6 DUP8 SUB SLT ISZERO PUSH2 0x1E3F JUMPI PUSH2 0x1E3E PUSH2 0x1D8E JUMP JUMPDEST JUMPDEST PUSH1 0x0 PUSH2 0x1E4D DUP8 DUP3 DUP9 ADD PUSH2 0x1DB9 JUMP JUMPDEST SWAP5 POP POP PUSH1 0x20 PUSH2 0x1E5E DUP8 DUP3 DUP9 ADD PUSH2 0x1DB9 JUMP JUMPDEST SWAP4 POP POP PUSH1 0x40 PUSH2 0x1E6F DUP8 DUP3 DUP9 ADD PUSH2 0x1DB9 JUMP JUMPDEST SWAP3 POP POP PUSH1 0x60 PUSH2 0x1E80 DUP8 DUP3 DUP9 ADD PUSH2 0x1DB9 JUMP JUMPDEST SWAP2 POP POP SWAP3 SWAP6 SWAP2 SWAP5 POP SWAP3 POP JUMP JUMPDEST PUSH1 0x0 DUP2 ISZERO ISZERO SWAP1 POP SWAP2 SWAP1 POP JUMP JUMPDEST PUSH2 0x1EA1 DUP2 PUSH2 0x1E8C JUMP JUMPDEST DUP3 MSTORE POP POP JUMP JUMPDEST PUSH1 0x0 PUSH1 0x20 DUP3 ADD SWAP1 POP PUSH2 0x1EBC PUSH1 0x0 DUP4 ADD DUP5 PUSH2 0x1E98 JUMP JUMPDEST SWAP3 SWAP2 POP POP JUMP JUMPDEST PUSH1 0x0 PUSH20 0xFFFFFFFFFFFFFFFFFFFFFFFFFFFFFFFFFFFFFFFF DUP3 AND SWAP1 POP SWAP2 SWAP1 POP JUMP JUMPDEST PUSH1 0x0 PUSH2 0x1EED DUP3 PUSH2 0x1EC2 JUMP JUMPDEST SWAP1 POP SWAP2 SWAP1 POP JUMP JUMPDEST PUSH2 0x1EFD DUP2 PUSH2 0x1EE2 JUMP JUMPDEST DUP3 MSTORE POP POP JUMP JUMPDEST PUSH1 0x0 PUSH2 0x1F0E DUP3 PUSH2 0x1EC2 JUMP JUMPDEST SWAP1 POP SWAP2 SWAP1 POP JUMP JUMPDEST PUSH2 0x1F1E DUP2 PUSH2 0x1F03 JUMP JUMPDEST DUP3 MSTORE POP POP JUMP JUMPDEST PUSH1 0x0 PUSH2 0x100 DUP3 ADD SWAP1 POP PUSH2 0x1F3A PUSH1 0x0 DUP4 ADD DUP12 PUSH2 0x1DFB JUMP JUMPDEST PUSH2 0x1F47 PUSH1 0x20 DUP4 ADD DUP11 PUSH2 0x1DFB JUMP JUMPDEST PUSH2 0x1F54 PUSH1 0x40 DUP4 ADD DUP10 PUSH2 0x1DFB JUMP JUMPDEST PUSH2 0x1F61 PUSH1 0x60 DUP4 ADD DUP9 PUSH2 0x1DFB JUMP JUMPDEST PUSH2 0x1F6E PUSH1 0x80 DUP4 ADD DUP8 PUSH2 0x1EF4 JUMP JUMPDEST PUSH2 0x1F7B PUSH1 0xA0 DUP4 ADD DUP7 PUSH2 0x1F15 JUMP JUMPDEST PUSH2 0x1F88 PUSH1 0xC0 DUP4 ADD DUP6 PUSH2 0x1DFB JUMP JUMPDEST PUSH2 0x1F95 PUSH1 0xE0 DUP4 ADD DUP5 PUSH2 0x1E98 JUMP JUMPDEST SWAP10 SWAP9 POP POP POP POP POP POP POP POP POP JUMP JUMPDEST PUSH1 0x0 DUP1 PUSH1 0x40 DUP4 DUP6 SUB SLT ISZERO PUSH2 0x1FB9 JUMPI PUSH2 0x1FB8 PUSH2 0x1D8E JUMP JUMPDEST JUMPDEST PUSH1 0x0 PUSH2 0x1FC7 DUP6 DUP3 DUP7 ADD PUSH2 0x1DB9 JUMP JUMPDEST SWAP3 POP POP PUSH1 0x20 PUSH2 0x1FD8 DUP6 DUP3 DUP7 ADD PUSH2 0x1DB9 JUMP JUMPDEST SWAP2 POP POP SWAP3 POP SWAP3 SWAP1 POP JUMP JUMPDEST PUSH1 0x0 DUP2 SWAP1 POP SWAP2 SWAP1 POP JUMP JUMPDEST PUSH1 0x0 PUSH2 0x2007 PUSH2 0x2002 PUSH2 0x1FFD DUP5 PUSH2 0x1EC2 JUMP JUMPDEST PUSH2 0x1FE2 JUMP JUMPDEST PUSH2 0x1EC2 JUMP JUMPDEST SWAP1 POP SWAP2 SWAP1 POP JUMP JUMPDEST PUSH1 0x0 PUSH2 0x2019 DUP3 PUSH2 0x1FEC JUMP JUMPDEST SWAP1 POP SWAP2 SWAP1 POP JUMP JUMPDEST PUSH1 0x0 PUSH2 0x202B DUP3 PUSH2 0x200E JUMP JUMPDEST SWAP1 POP SWAP2 SWAP1 POP JUMP JUMPDEST PUSH2 0x203B DUP2 PUSH2 0x2020 JUMP JUMPDEST DUP3 MSTORE POP POP JUMP JUMPDEST PUSH1 0x0 PUSH1 0x20 DUP3 ADD SWAP1 POP PUSH2 0x2056 PUSH1 0x0 DUP4 ADD DUP5 PUSH2 0x2032 JUMP JUMPDEST SWAP3 SWAP2 POP POP JUMP JUMPDEST PUSH1 0x0 DUP3 DUP3 MSTORE PUSH1 0x20 DUP3 ADD SWAP1 POP SWAP3 SWAP2 POP POP JUMP JUMPDEST PUSH32 0x4E4654206973206E6F74206C697374656420666F722073616C65000000000000 PUSH1 0x0 DUP3 ADD MSTORE POP JUMP JUMPDEST PUSH1 0x0 PUSH2 0x20A3 PUSH1 0x1A DUP4 PUSH2 0x205C JUMP JUMPDEST SWAP2 POP PUSH2 0x20AE DUP3 PUSH2 0x206D JUMP JUMPDEST PUSH1 0x20 DUP3 ADD SWAP1 POP SWAP2 SWAP1 POP JUMP JUMPDEST PUSH1 0x0 PUSH1 0x20 DUP3 ADD SWAP1 POP DUP2 DUP2 SUB PUSH1 0x0 DUP4 ADD MSTORE PUSH2 0x20D2 DUP2 PUSH2 0x2096 JUMP JUMPDEST SWAP1 POP SWAP2 SWAP1 POP JUMP JUMPDEST PUSH1 0x0 DUP1 REVERT JUMPDEST PUSH1 0x0 DUP1 REVERT JUMPDEST PUSH1 0x0 PUSH1 0x1F NOT PUSH1 0x1F DUP4 ADD AND SWAP1 POP SWAP2 SWAP1 POP JUMP JUMPDEST PUSH32 0x4E487B7100000000000000000000000000000000000000000000000000000000 PUSH1 0x0 MSTORE PUSH1 0x41 PUSH1 0x4 MSTORE PUSH1 0x24 PUSH1 0x0 REVERT JUMPDEST PUSH2 0x212C DUP3 PUSH2 0x20E3 JUMP JUMPDEST DUP2 ADD DUP2 DUP2 LT PUSH8 0xFFFFFFFFFFFFFFFF DUP3 GT OR ISZERO PUSH2 0x214B JUMPI PUSH2 0x214A PUSH2 0x20F4 JUMP JUMPDEST JUMPDEST DUP1 PUSH1 0x40 MSTORE POP POP POP JUMP JUMPDEST PUSH1 0x0 PUSH2 0x215E PUSH2 0x1D84 JUMP JUMPDEST SWAP1 POP PUSH2 0x216A DUP3 DUP3 PUSH2 0x2123 JUMP JUMPDEST SWAP2 SWAP1 POP JUMP JUMPDEST PUSH1 0x0 PUSH8 0xFFFFFFFFFFFFFFFF DUP3 GT ISZERO PUSH2 0x218A JUMPI PUSH2 0x2189 PUSH2 0x20F4 JUMP JUMPDEST JUMPDEST PUSH2 0x2193 DUP3 PUSH2 0x20E3 JUMP JUMPDEST SWAP1 POP PUSH1 0x20 DUP2 ADD SWAP1 POP SWAP2 SWAP1 POP JUMP JUMPDEST PUSH1 0x0 JUMPDEST DUP4 DUP2 LT ISZERO PUSH2 0x21BE JUMPI DUP1 DUP3 ADD MLOAD DUP2 DUP5 ADD MSTORE PUSH1 0x20 DUP2 ADD SWAP1 POP PUSH2 0x21A3 JUMP JUMPDEST PUSH1 0x0 DUP5 DUP5 ADD MSTORE POP POP POP POP JUMP JUMPDEST PUSH1 0x0 PUSH2 0x21DD PUSH2 0x21D8 DUP5 PUSH2 0x216F JUMP JUMPDEST PUSH2 0x2154 JUMP JUMPDEST SWAP1 POP DUP3 DUP2 MSTORE PUSH1 0x20 DUP2 ADD DUP5 DUP5 DUP5 ADD GT ISZERO PUSH2 0x21F9 JUMPI PUSH2 0x21F8 PUSH2 0x20DE JUMP JUMPDEST JUMPDEST PUSH2 0x2204 DUP5 DUP3 DUP6 PUSH2 0x21A0 JUMP JUMPDEST POP SWAP4 SWAP3 POP POP POP JUMP JUMPDEST PUSH1 0x0 DUP3 PUSH1 0x1F DUP4 ADD SLT PUSH2 0x2221 JUMPI PUSH2 0x2220 PUSH2 0x20D9 JUMP JUMPDEST JUMPDEST DUP2 MLOAD PUSH2 0x2231 DUP5 DUP3 PUSH1 0x20 DUP7 ADD PUSH2 0x21CA JUMP JUMPDEST SWAP2 POP POP SWAP3 SWAP2 POP POP JUMP JUMPDEST PUSH2 0x2243 DUP2 PUSH2 0x1F03 JUMP JUMPDEST DUP2 EQ PUSH2 0x224E JUMPI PUSH1 0x0 DUP1 REVERT JUMPDEST POP JUMP JUMPDEST PUSH1 0x0 DUP2 MLOAD SWAP1 POP PUSH2 0x2260 DUP2 PUSH2 0x223A JUMP JUMPDEST SWAP3 SWAP2 POP POP JUMP JUMPDEST PUSH2 0x226F DUP2 PUSH2 0x1E8C JUMP JUMPDEST DUP2 EQ PUSH2 0x227A JUMPI PUSH1 0x0 DUP1 REVERT JUMPDEST POP JUMP JUMPDEST PUSH1 0x0 DUP2 MLOAD SWAP1 POP PUSH2 0x228C DUP2 PUSH2 0x2266 JUMP JUMPDEST SWAP3 SWAP2 POP POP JUMP JUMPDEST PUSH1 0x0 DUP2 MLOAD SWAP1 POP PUSH2 0x22A1 DUP2 PUSH2 0x1DA2 JUMP JUMPDEST SWAP3 SWAP2 POP POP JUMP JUMPDEST PUSH1 0x0 DUP1 PUSH1 0x0 DUP1 PUSH1 0x80 DUP6 DUP8 SUB SLT ISZERO PUSH2 0x22C1 JUMPI PUSH2 0x22C0 PUSH2 0x1D8E JUMP JUMPDEST JUMPDEST PUSH1 0x0 DUP6 ADD MLOAD PUSH8 0xFFFFFFFFFFFFFFFF DUP2 GT ISZERO PUSH2 0x22DF JUMPI PUSH2 0x22DE PUSH2 0x1D93 JUMP JUMPDEST JUMPDEST PUSH2 0x22EB DUP8 DUP3 DUP9 ADD PUSH2 0x220C JUMP JUMPDEST SWAP5 POP POP PUSH1 0x20 PUSH2 0x22FC DUP8 DUP3 DUP9 ADD PUSH2 0x2251 JUMP JUMPDEST SWAP4 POP POP PUSH1 0x40 PUSH2 0x230D DUP8 DUP3 DUP9 ADD PUSH2 0x227D JUMP JUMPDEST SWAP3 POP POP PUSH1 0x60 PUSH2 0x231E DUP8 DUP3 DUP9 ADD PUSH2 0x2292 JUMP JUMPDEST SWAP2 POP POP SWAP3 SWAP6 SWAP2 SWAP5 POP SWAP3 POP JUMP JUMPDEST PUSH32 0x4E465420646F6573206E6F742065786973740000000000000000000000000000 PUSH1 0x0 DUP3 ADD MSTORE POP JUMP JUMPDEST PUSH1 0x0 PUSH2 0x2360 PUSH1 0x12 DUP4 PUSH2 0x205C JUMP JUMPDEST SWAP2 POP PUSH2 0x236B DUP3 PUSH2 0x232A JUMP JUMPDEST PUSH1 0x20 DUP3 ADD SWAP1 POP SWAP2 SWAP1 POP JUMP JUMPDEST PUSH1 0x0 PUSH1 0x20 DUP3 ADD SWAP1 POP DUP2 DUP2 SUB PUSH1 0x0 DUP4 ADD MSTORE PUSH2 0x238F DUP2 PUSH2 0x2353 JUMP JUMPDEST SWAP1 POP SWAP2 SWAP1 POP JUMP JUMPDEST PUSH32 0x596F7520617265206E6F7420746865206F776E6572206F662074686973204E46 PUSH1 0x0 DUP3 ADD MSTORE PUSH32 0x5400000000000000000000000000000000000000000000000000000000000000 PUSH1 0x20 DUP3 ADD MSTORE POP JUMP JUMPDEST PUSH1 0x0 PUSH2 0x23F2 PUSH1 0x21 DUP4 PUSH2 0x205C JUMP JUMPDEST SWAP2 POP PUSH2 0x23FD DUP3 PUSH2 0x2396 JUMP JUMPDEST PUSH1 0x40 DUP3 ADD SWAP1 POP SWAP2 SWAP1 POP JUMP JUMPDEST PUSH1 0x0 PUSH1 0x20 DUP3 ADD SWAP1 POP DUP2 DUP2 SUB PUSH1 0x0 DUP4 ADD MSTORE PUSH2 0x2421 DUP2 PUSH2 0x23E5 JUMP JUMPDEST SWAP1 POP SWAP2 SWAP1 POP JUMP JUMPDEST PUSH32 0x4E487B7100000000000000000000000000000000000000000000000000000000 PUSH1 0x0 MSTORE PUSH1 0x32 PUSH1 0x4 MSTORE PUSH1 0x24 PUSH1 0x0 REVERT JUMPDEST PUSH32 0x4E487B7100000000000000000000000000000000000000000000000000000000 PUSH1 0x0 MSTORE PUSH1 0x11 PUSH1 0x4 MSTORE PUSH1 0x24 PUSH1 0x0 REVERT JUMPDEST PUSH1 0x0 PUSH2 0x2491 DUP3 PUSH2 0x1D98 JUMP JUMPDEST SWAP2 POP PUSH2 0x249C DUP4 PUSH2 0x1D98 JUMP JUMPDEST SWAP3 POP DUP3 DUP3 SUB SWAP1 POP DUP2 DUP2 GT ISZERO PUSH2 0x24B4 JUMPI PUSH2 0x24B3 PUSH2 0x2457 JUMP JUMPDEST JUMPDEST SWAP3 SWAP2 POP POP JUMP JUMPDEST PUSH32 0x4E487B7100000000000000000000000000000000000000000000000000000000 PUSH1 0x0 MSTORE PUSH1 0x31 PUSH1 0x4 MSTORE PUSH1 0x24 PUSH1 0x0 REVERT JUMPDEST PUSH1 0x0 PUSH1 0x20 DUP3 ADD SWAP1 POP PUSH2 0x24FE PUSH1 0x0 DUP4 ADD DUP5 PUSH2 0x1F15 JUMP JUMPDEST SWAP3 SWAP2 POP POP JUMP JUMPDEST PUSH32 0x5374617274696E67207072696365206D757374206265206174206C6561737420 PUSH1 0x0 DUP3 ADD MSTORE PUSH32 0x302E303320455448000000000000000000000000000000000000000000000000 PUSH1 0x20 DUP3 ADD MSTORE POP JUMP JUMPDEST PUSH1 0x0 PUSH2 0x2560 PUSH1 0x28 DUP4 PUSH2 0x205C JUMP JUMPDEST SWAP2 POP PUSH2 0x256B DUP3 PUSH2 0x2504 JUMP JUMPDEST PUSH1 0x40 DUP3 ADD SWAP1 POP SWAP2 SWAP1 POP JUMP JUMPDEST PUSH1 0x0 PUSH1 0x20 DUP3 ADD SWAP1 POP DUP2 DUP2 SUB PUSH1 0x0 DUP4 ADD MSTORE PUSH2 0x258F DUP2 PUSH2 0x2553 JUMP JUMPDEST SWAP1 POP SWAP2 SWAP1 POP JUMP JUMPDEST PUSH32 0x4E465420697320616C7265616479206C697374656420666F722073616C650000 PUSH1 0x0 DUP3 ADD MSTORE POP JUMP JUMPDEST PUSH1 0x0 PUSH2 0x25CC PUSH1 0x1E DUP4 PUSH2 0x205C JUMP JUMPDEST SWAP2 POP PUSH2 0x25D7 DUP3 PUSH2 0x2596 JUMP JUMPDEST PUSH1 0x20 DUP3 ADD SWAP1 POP SWAP2 SWAP1 POP JUMP JUMPDEST PUSH1 0x0 PUSH1 0x20 DUP3 ADD SWAP1 POP DUP2 DUP2 SUB PUSH1 0x0 DUP4 ADD MSTORE PUSH2 0x25FB DUP2 PUSH2 0x25BF JUMP JUMPDEST SWAP1 POP SWAP2 SWAP1 POP JUMP JUMPDEST PUSH32 0x41756374696F6E206D7573742072756E20666F72206174206C65617374203120 PUSH1 0x0 DUP3 ADD MSTORE PUSH32 0x6D696E7574650000000000000000000000000000000000000000000000000000 PUSH1 0x20 DUP3 ADD MSTORE POP JUMP JUMPDEST PUSH1 0x0 PUSH2 0x265E PUSH1 0x26 DUP4 PUSH2 0x205C JUMP JUMPDEST SWAP2 POP PUSH2 0x2669 DUP3 PUSH2 0x2602 JUMP JUMPDEST PUSH1 0x40 DUP3 ADD SWAP1 POP SWAP2 SWAP1 POP JUMP JUMPDEST PUSH1 0x0 PUSH1 0x20 DUP3 ADD SWAP1 POP DUP2 DUP2 SUB PUSH1 0x0 DUP4 ADD MSTORE PUSH2 0x268D DUP2 PUSH2 0x2651 JUMP JUMPDEST SWAP1 POP SWAP2 SWAP1 POP JUMP JUMPDEST PUSH32 0x456E642074696D65206D75737420626520696E20746865206675747572650000 PUSH1 0x0 DUP3 ADD MSTORE POP JUMP JUMPDEST PUSH1 0x0 PUSH2 0x26CA PUSH1 0x1E DUP4 PUSH2 0x205C JUMP JUMPDEST SWAP2 POP PUSH2 0x26D5 DUP3 PUSH2 0x2694 JUMP JUMPDEST PUSH1 0x20 DUP3 ADD SWAP1 POP SWAP2 SWAP1 POP JUMP JUMPDEST PUSH1 0x0 PUSH1 0x20 DUP3 ADD SWAP1 POP DUP2 DUP2 SUB PUSH1 0x0 DUP4 ADD MSTORE PUSH2 0x26F9 DUP2 PUSH2 0x26BD JUMP JUMPDEST SWAP1 POP SWAP2 SWAP1 POP JUMP JUMPDEST PUSH32 0x41756374696F6E20616C72656164792065786973747320666F72207468697320 PUSH1 0x0 DUP3 ADD MSTORE PUSH32 0x4E46540000000000000000000000000000000000000000000000000000000000 PUSH1 0x20 DUP3 ADD MSTORE POP JUMP JUMPDEST PUSH1 0x0 PUSH2 0x275C PUSH1 0x23 DUP4 PUSH2 0x205C JUMP JUMPDEST SWAP2 POP PUSH2 0x2767 DUP3 PUSH2 0x2700 JUMP JUMPDEST PUSH1 0x40 DUP3 ADD SWAP1 POP SWAP2 SWAP1 POP JUMP JUMPDEST PUSH1 0x0 PUSH1 0x20 DUP3 ADD SWAP1 POP DUP2 DUP2 SUB PUSH1 0x0 DUP4 ADD MSTORE PUSH2 0x278B DUP2 PUSH2 0x274F JUMP JUMPDEST SWAP1 POP SWAP2 SWAP1 POP JUMP JUMPDEST PUSH32 0x5374617274696E67207072696365206D757374206265206174206C6561737420 PUSH1 0x0 DUP3 ADD MSTORE PUSH32 0x746865206D696E74207072696365000000000000000000000000000000000000 PUSH1 0x20 DUP3 ADD MSTORE POP JUMP JUMPDEST PUSH1 0x0 PUSH2 0x27EE PUSH1 0x2E DUP4 PUSH2 0x205C JUMP JUMPDEST SWAP2 POP PUSH2 0x27F9 DUP3 PUSH2 0x2792 JUMP JUMPDEST PUSH1 0x40 DUP3 ADD SWAP1 POP SWAP2 SWAP1 POP JUMP JUMPDEST PUSH1 0x0 PUSH1 0x20 DUP3 ADD SWAP1 POP DUP2 DUP2 SUB PUSH1 0x0 DUP4 ADD MSTORE PUSH2 0x281D DUP2 PUSH2 0x27E1 JUMP JUMPDEST SWAP1 POP SWAP2 SWAP1 POP JUMP JUMPDEST PUSH1 0x0 PUSH1 0x80 DUP3 ADD SWAP1 POP PUSH2 0x2839 PUSH1 0x0 DUP4 ADD DUP8 PUSH2 0x1DFB JUMP JUMPDEST PUSH2 0x2846 PUSH1 0x20 DUP4 ADD DUP7 PUSH2 0x1DFB JUMP JUMPDEST PUSH2 0x2853 PUSH1 0x40 DUP4 ADD DUP6 PUSH2 0x1DFB JUMP JUMPDEST PUSH2 0x2860 PUSH1 0x60 DUP4 ADD DUP5 PUSH2 0x1F15 JUMP JUMPDEST SWAP6 SWAP5 POP POP POP POP POP JUMP JUMPDEST PUSH32 0x4E4654206E6F74206C697374656420666F722073616C65000000000000000000 PUSH1 0x0 DUP3 ADD MSTORE POP JUMP JUMPDEST PUSH1 0x0 PUSH2 0x289F PUSH1 0x17 DUP4 PUSH2 0x205C JUMP JUMPDEST SWAP2 POP PUSH2 0x28AA DUP3 PUSH2 0x2869 JUMP JUMPDEST PUSH1 0x20 DUP3 ADD SWAP1 POP SWAP2 SWAP1 POP JUMP JUMPDEST PUSH1 0x0 PUSH1 0x20 DUP3 ADD SWAP1 POP DUP2 DUP2 SUB PUSH1 0x0 DUP4 ADD MSTORE PUSH2 0x28CE DUP2 PUSH2 0x2892 JUMP JUMPDEST SWAP1 POP SWAP2 SWAP1 POP JUMP JUMPDEST PUSH32 0x496E636F7272656374207061796D656E7420616D6F756E740000000000000000 PUSH1 0x0 DUP3 ADD MSTORE POP JUMP JUMPDEST PUSH1 0x0 PUSH2 0x290B PUSH1 0x18 DUP4 PUSH2 0x205C JUMP JUMPDEST SWAP2 POP PUSH2 0x2916 DUP3 PUSH2 0x28D5 JUMP JUMPDEST PUSH1 0x20 DUP3 ADD SWAP1 POP SWAP2 SWAP1 POP JUMP JUMPDEST PUSH1 0x0 PUSH1 0x20 DUP3 ADD SWAP1 POP DUP2 DUP2 SUB PUSH1 0x0 DUP4 ADD MSTORE PUSH2 0x293A DUP2 PUSH2 0x28FE JUMP JUMPDEST SWAP1 POP SWAP2 SWAP1 POP JUMP JUMPDEST PUSH32 0x43616E6E6F742062757920796F7572206F776E204E4654000000000000000000 PUSH1 0x0 DUP3 ADD MSTORE POP JUMP JUMPDEST PUSH1 0x0 PUSH2 0x2977 PUSH1 0x17 DUP4 PUSH2 0x205C JUMP JUMPDEST SWAP2 POP PUSH2 0x2982 DUP3 PUSH2 0x2941 JUMP JUMPDEST PUSH1 0x20 DUP3 ADD SWAP1 POP SWAP2 SWAP1 POP JUMP JUMPDEST PUSH1 0x0 PUSH1 0x20 DUP3 ADD SWAP1 POP DUP2 DUP2 SUB PUSH1 0x0 DUP4 ADD MSTORE PUSH2 0x29A6 DUP2 PUSH2 0x296A JUMP JUMPDEST SWAP1 POP SWAP2 SWAP1 POP JUMP JUMPDEST PUSH1 0x0 PUSH1 0x40 DUP3 ADD SWAP1 POP PUSH2 0x29C2 PUSH1 0x0 DUP4 ADD DUP6 PUSH2 0x1DFB JUMP JUMPDEST PUSH2 0x29CF PUSH1 0x20 DUP4 ADD DUP5 PUSH2 0x1F15 JUMP JUMPDEST SWAP4 SWAP3 POP POP POP JUMP JUMPDEST PUSH1 0x0 PUSH1 0x60 DUP3 ADD SWAP1 POP PUSH2 0x29EB PUSH1 0x0 DUP4 ADD DUP7 PUSH2 0x1F15 JUMP JUMPDEST PUSH2 0x29F8 PUSH1 0x20 DUP4 ADD DUP6 PUSH2 0x1F15 JUMP JUMPDEST PUSH2 0x2A05 PUSH1 0x40 DUP4 ADD DUP5 PUSH2 0x1DFB JUMP JUMPDEST SWAP5 SWAP4 POP POP POP POP JUMP JUMPDEST PUSH32 0x5072696365206D757374206265206174206C6561737420302E30332045544800 PUSH1 0x0 DUP3 ADD MSTORE POP JUMP JUMPDEST PUSH1 0x0 PUSH2 0x2A43 PUSH1 0x1F DUP4 PUSH2 0x205C JUMP JUMPDEST SWAP2 POP PUSH2 0x2A4E DUP3 PUSH2 0x2A0D JUMP JUMPDEST PUSH1 0x20 DUP3 ADD SWAP1 POP SWAP2 SWAP1 POP JUMP JUMPDEST PUSH1 0x0 PUSH1 0x20 DUP3 ADD SWAP1 POP DUP2 DUP2 SUB PUSH1 0x0 DUP4 ADD MSTORE PUSH2 0x2A72 DUP2 PUSH2 0x2A36 JUMP JUMPDEST SWAP1 POP SWAP2 SWAP1 POP JUMP JUMPDEST PUSH32 0x4E465420616C7265616479206C69737465640000000000000000000000000000 PUSH1 0x0 DUP3 ADD MSTORE POP JUMP JUMPDEST PUSH1 0x0 PUSH2 0x2AAF PUSH1 0x12 DUP4 PUSH2 0x205C JUMP JUMPDEST SWAP2 POP PUSH2 0x2ABA DUP3 PUSH2 0x2A79 JUMP JUMPDEST PUSH1 0x20 DUP3 ADD SWAP1 POP SWAP2 SWAP1 POP JUMP JUMPDEST PUSH1 0x0 PUSH1 0x20 DUP3 ADD SWAP1 POP DUP2 DUP2 SUB PUSH1 0x0 DUP4 ADD MSTORE PUSH2 0x2ADE DUP2 PUSH2 0x2AA2 JUMP JUMPDEST SWAP1 POP SWAP2 SWAP1 POP JUMP JUMPDEST PUSH32 0x4E46542069732063757272656E746C7920696E2061756374696F6E0000000000 PUSH1 0x0 DUP3 ADD MSTORE POP JUMP JUMPDEST PUSH1 0x0 PUSH2 0x2B1B PUSH1 0x1B DUP4 PUSH2 0x205C JUMP JUMPDEST SWAP2 POP PUSH2 0x2B26 DUP3 PUSH2 0x2AE5 JUMP JUMPDEST PUSH1 0x20 DUP3 ADD SWAP1 POP SWAP2 SWAP1 POP JUMP JUMPDEST PUSH1 0x0 PUSH1 0x20 DUP3 ADD SWAP1 POP DUP2 DUP2 SUB PUSH1 0x0 DUP4 ADD MSTORE PUSH2 0x2B4A DUP2 PUSH2 0x2B0E JUMP JUMPDEST SWAP1 POP SWAP2 SWAP1 POP JUMP JUMPDEST PUSH32 0x53616C65207072696365206D757374206265206174206C656173742074686520 PUSH1 0x0 DUP3 ADD MSTORE PUSH32 0x6D696E7420707269636500000000000000000000000000000000000000000000 PUSH1 0x20 DUP3 ADD MSTORE POP JUMP JUMPDEST PUSH1 0x0 PUSH2 0x2BAD PUSH1 0x2A DUP4 PUSH2 0x205C JUMP JUMPDEST SWAP2 POP PUSH2 0x2BB8 DUP3 PUSH2 0x2B51 JUMP JUMPDEST PUSH1 0x40 DUP3 ADD SWAP1 POP SWAP2 SWAP1 POP JUMP JUMPDEST PUSH1 0x0 PUSH1 0x20 DUP3 ADD SWAP1 POP DUP2 DUP2 SUB PUSH1 0x0 DUP4 ADD MSTORE PUSH2 0x2BDC DUP2 PUSH2 0x2BA0 JUMP JUMPDEST SWAP1 POP SWAP2 SWAP1 POP JUMP JUMPDEST PUSH32 0x41756374696F6E206973206E6F74206163746976650000000000000000000000 PUSH1 0x0 DUP3 ADD MSTORE POP JUMP JUMPDEST PUSH1 0x0 PUSH2 0x2C19 PUSH1 0x15 DUP4 PUSH2 0x205C JUMP JUMPDEST SWAP2 POP PUSH2 0x2C24 DUP3 PUSH2 0x2BE3 JUMP JUMPDEST PUSH1 0x20 DUP3 ADD SWAP1 POP SWAP2 SWAP1 POP JUMP JUMPDEST PUSH1 0x0 PUSH1 0x20 DUP3 ADD SWAP1 POP DUP2 DUP2 SUB PUSH1 0x0 DUP4 ADD MSTORE PUSH2 0x2C48 DUP2 PUSH2 0x2C0C JUMP JUMPDEST SWAP1 POP SWAP2 SWAP1 POP JUMP JUMPDEST PUSH32 0x596F7520617265206E6F74207468652073656C6C6572206F6620746869732061 PUSH1 0x0 DUP3 ADD MSTORE PUSH32 0x756374696F6E0000000000000000000000000000000000000000000000000000 PUSH1 0x20 DUP3 ADD MSTORE POP JUMP JUMPDEST PUSH1 0x0 PUSH2 0x2CAB PUSH1 0x26 DUP4 PUSH2 0x205C JUMP JUMPDEST SWAP2 POP PUSH2 0x2CB6 DUP3 PUSH2 0x2C4F JUMP JUMPDEST PUSH1 0x40 DUP3 ADD SWAP1 POP SWAP2 SWAP1 POP JUMP JUMPDEST PUSH1 0x0 PUSH1 0x20 DUP3 ADD SWAP1 POP DUP2 DUP2 SUB PUSH1 0x0 DUP4 ADD MSTORE PUSH2 0x2CDA DUP2 PUSH2 0x2C9E JUMP JUMPDEST SWAP1 POP SWAP2 SWAP1 POP JUMP JUMPDEST PUSH32 0x41756374696F6E2068617320616C726561647920656E64656400000000000000 PUSH1 0x0 DUP3 ADD MSTORE POP JUMP JUMPDEST PUSH1 0x0 PUSH2 0x2D17 PUSH1 0x19 DUP4 PUSH2 0x205C JUMP JUMPDEST SWAP2 POP PUSH2 0x2D22 DUP3 PUSH2 0x2CE1 JUMP JUMPDEST PUSH1 0x20 DUP3 ADD SWAP1 POP SWAP2 SWAP1 POP JUMP JUMPDEST PUSH1 0x0 PUSH1 0x20 DUP3 ADD SWAP1 POP DUP2 DUP2 SUB PUSH1 0x0 DUP4 ADD MSTORE PUSH2 0x2D46 DUP2 PUSH2 0x2D0A JUMP JUMPDEST SWAP1 POP SWAP2 SWAP1 POP JUMP JUMPDEST PUSH1 0x0 DUP2 SWAP1 POP SWAP3 SWAP2 POP POP JUMP JUMPDEST PUSH32 0x42696420616D6F756E74206D75737420626520686967686572207468616E2074 PUSH1 0x0 DUP3 ADD MSTORE PUSH32 0x68652063757272656E742068696768657374206269643A200000000000000000 PUSH1 0x20 DUP3 ADD MSTORE POP JUMP JUMPDEST PUSH1 0x0 PUSH2 0x2DB4 PUSH1 0x38 DUP4 PUSH2 0x2D4D JUMP JUMPDEST SWAP2 POP PUSH2 0x2DBF DUP3 PUSH2 0x2D58 JUMP JUMPDEST PUSH1 0x38 DUP3 ADD SWAP1 POP SWAP2 SWAP1 POP JUMP JUMPDEST PUSH1 0x0 DUP2 MLOAD SWAP1 POP SWAP2 SWAP1 POP JUMP JUMPDEST PUSH1 0x0 PUSH2 0x2DE0 DUP3 PUSH2 0x2DCA JUMP JUMPDEST PUSH2 0x2DEA DUP2 DUP6 PUSH2 0x2D4D JUMP JUMPDEST SWAP4 POP PUSH2 0x2DFA DUP2 DUP6 PUSH1 0x20 DUP7 ADD PUSH2 0x21A0 JUMP JUMPDEST DUP1 DUP5 ADD SWAP2 POP POP SWAP3 SWAP2 POP POP JUMP JUMPDEST PUSH1 0x0 PUSH2 0x2E11 DUP3 PUSH2 0x2DA7 JUMP JUMPDEST SWAP2 POP PUSH2 0x2E1D DUP3 DUP5 PUSH2 0x2DD5 JUMP JUMPDEST SWAP2 POP DUP2 SWAP1 POP SWAP3 SWAP2 POP POP JUMP JUMPDEST PUSH1 0x0 PUSH2 0x2E33 DUP3 PUSH2 0x2DCA JUMP JUMPDEST PUSH2 0x2E3D DUP2 DUP6 PUSH2 0x205C JUMP JUMPDEST SWAP4 POP PUSH2 0x2E4D DUP2 DUP6 PUSH1 0x20 DUP7 ADD PUSH2 0x21A0 JUMP JUMPDEST PUSH2 0x2E56 DUP2 PUSH2 0x20E3 JUMP JUMPDEST DUP5 ADD SWAP2 POP POP SWAP3 SWAP2 POP POP JUMP JUMPDEST PUSH1 0x0 PUSH1 0x20 DUP3 ADD SWAP1 POP DUP2 DUP2 SUB PUSH1 0x0 DUP4 ADD MSTORE PUSH2 0x2E7B DUP2 DUP5 PUSH2 0x2E28 JUMP JUMPDEST SWAP1 POP SWAP3 SWAP2 POP POP JUMP JUMPDEST PUSH32 0x42696420616D6F756E74206D75737420626520686967686572207468616E2074 PUSH1 0x0 DUP3 ADD MSTORE PUSH32 0x6865207374617274696E67207072696365000000000000000000000000000000 PUSH1 0x20 DUP3 ADD MSTORE POP JUMP JUMPDEST PUSH1 0x0 PUSH2 0x2EDF PUSH1 0x31 DUP4 PUSH2 0x205C JUMP JUMPDEST SWAP2 POP PUSH2 0x2EEA DUP3 PUSH2 0x2E83 JUMP JUMPDEST PUSH1 0x40 DUP3 ADD SWAP1 POP SWAP2 SWAP1 POP JUMP JUMPDEST PUSH1 0x0 PUSH1 0x20 DUP3 ADD SWAP1 POP DUP2 DUP2 SUB PUSH1 0x0 DUP4 ADD MSTORE PUSH2 0x2F0E DUP2 PUSH2 0x2ED2 JUMP JUMPDEST SWAP1 POP SWAP2 SWAP1 POP JUMP JUMPDEST PUSH1 0x0 PUSH1 0x40 DUP3 ADD SWAP1 POP PUSH2 0x2F2A PUSH1 0x0 DUP4 ADD DUP6 PUSH2 0x1F15 JUMP JUMPDEST PUSH2 0x2F37 PUSH1 0x20 DUP4 ADD DUP5 PUSH2 0x1DFB JUMP JUMPDEST SWAP4 SWAP3 POP POP POP JUMP JUMPDEST PUSH32 0x41756374696F6E20686173206E6F7420656E6465642079657400000000000000 PUSH1 0x0 DUP3 ADD MSTORE POP JUMP JUMPDEST PUSH1 0x0 PUSH2 0x2F74 PUSH1 0x19 DUP4 PUSH2 0x205C JUMP JUMPDEST SWAP2 POP PUSH2 0x2F7F DUP3 PUSH2 0x2F3E JUMP JUMPDEST PUSH1 0x20 DUP3 ADD SWAP1 POP SWAP2 SWAP1 POP JUMP JUMPDEST PUSH1 0x0 PUSH1 0x20 DUP3 ADD SWAP1 POP DUP2 DUP2 SUB PUSH1 0x0 DUP4 ADD MSTORE PUSH2 0x2FA3 DUP2 PUSH2 0x2F67 JUMP JUMPDEST SWAP1 POP SWAP2 SWAP1 POP JUMP JUMPDEST PUSH1 0x0 DUP2 SWAP1 POP SWAP2 SWAP1 POP JUMP JUMPDEST PUSH1 0x0 PUSH2 0x2FCF PUSH2 0x2FCA PUSH2 0x2FC5 DUP5 PUSH2 0x2FAA JUMP JUMPDEST PUSH2 0x1FE2 JUMP JUMPDEST PUSH2 0x1D98 JUMP JUMPDEST SWAP1 POP SWAP2 SWAP1 POP JUMP JUMPDEST PUSH2 0x2FDF DUP2 PUSH2 0x2FB4 JUMP JUMPDEST DUP3 MSTORE POP POP JUMP JUMPDEST PUSH1 0x0 PUSH1 0x40 DUP3 ADD SWAP1 POP PUSH2 0x2FFA PUSH1 0x0 DUP4 ADD DUP6 PUSH2 0x1F15 JUMP JUMPDEST PUSH2 0x3007 PUSH1 0x20 DUP4 ADD DUP5 PUSH2 0x2FD6 JUMP JUMPDEST SWAP4 SWAP3 POP POP POP JUMP JUMPDEST PUSH1 0x0 PUSH2 0x3019 DUP3 PUSH2 0x1D98 JUMP JUMPDEST SWAP2 POP PUSH32 0xFFFFFFFFFFFFFFFFFFFFFFFFFFFFFFFFFFFFFFFFFFFFFFFFFFFFFFFFFFFFFFFF DUP3 SUB PUSH2 0x304B JUMPI PUSH2 0x304A PUSH2 0x2457 JUMP JUMPDEST JUMPDEST PUSH1 0x1 DUP3 ADD SWAP1 POP SWAP2 SWAP1 POP JUMP JUMPDEST PUSH32 0x4E487B7100000000000000000000000000000000000000000000000000000000 PUSH1 0x0 MSTORE PUSH1 0x12 PUSH1 0x4 MSTORE PUSH1 0x24 PUSH1 0x0 REVERT JUMPDEST PUSH1 0x0 PUSH2 0x3090 DUP3 PUSH2 0x1D98 JUMP JUMPDEST SWAP2 POP PUSH2 0x309B DUP4 PUSH2 0x1D98 JUMP JUMPDEST SWAP3 POP DUP3 PUSH2 0x30AB JUMPI PUSH2 0x30AA PUSH2 0x3056 JUMP JUMPDEST JUMPDEST DUP3 DUP3 DIV SWAP1 POP SWAP3 SWAP2 POP POP JUMP JUMPDEST PUSH1 0x0 PUSH2 0x30C1 DUP3 PUSH2 0x1D98 JUMP JUMPDEST SWAP2 POP PUSH2 0x30CC DUP4 PUSH2 0x1D98 JUMP JUMPDEST SWAP3 POP DUP3 PUSH2 0x30DC JUMPI PUSH2 0x30DB PUSH2 0x3056 JUMP JUMPDEST JUMPDEST DUP3 DUP3 MOD SWAP1 POP SWAP3 SWAP2 POP POP JUMP JUMPDEST PUSH1 0x0 PUSH2 0x30F2 DUP3 PUSH2 0x1D98 JUMP JUMPDEST SWAP2 POP PUSH2 0x30FD DUP4 PUSH2 0x1D98 JUMP JUMPDEST SWAP3 POP DUP3 DUP3 ADD SWAP1 POP DUP1 DUP3 GT ISZERO PUSH2 0x3115 JUMPI PUSH2 0x3114 PUSH2 0x2457 JUMP JUMPDEST JUMPDEST SWAP3 SWAP2 POP POP JUMP INVALID LOG2 PUSH5 0x6970667358 0x22 SLT KECCAK256 SWAP4 PUSH24 0x48D564879B9742EA27ADDDBB377D71E40535C7FD953488F 0x2A 0xE6 0xB5 PUSH20 0x463A64736F6C634300081C003300000000000000 "},"methodIdentifiers":{"auctions(uint256)":"571a26a0","buyNFT(uint256)":"51ed8288","cancelAuction(uint256)":"96b5a755","cancelSell(uint256)":"07c9cd45","createAuction(uint256,uint256,uint256,uint256)":"431f21da","createCollectionContract()":"afe4143d","finalizeAuction(uint256)":"e8083863","getCurrentTime()":"29cb924d","listedForSale(uint256)":"54c04873","nftInAuction(uint256)":"ba18429a","placeBid(uint256)":"9979ef45","sellNFT(uint256,uint256)":"91a48a1e"}}}}}