{"contracts/NFTMarketplace.sol":{"NFTMarketplace":{"abi":[{"inputs":[{"internalType":"address","name":"_createCollectionAddress","type":"address"}],"stateMutability":"nonpayable","type":"constructor"},{"anonymous":false,"inputs":[{"indexed":true,"internalType":"uint256","name":"nftId","type":"uint256"},{"indexed":false,"internalType":"address","name":"seller","type":"address"}],"name":"AuctionCancelled","type":"event"},{"anonymous":false,"inputs":[{"indexed":true,"internalType":"uint256","name":"nftId","type":"uint256"},{"indexed":false,"internalType":"uint256","name":"startingPrice","type":"uint256"},{"indexed":false,"internalType":"uint256","name":"startTime","type":"uint256"},{"indexed":false,"internalType":"uint256","name":"endTime","type":"uint256"},{"indexed":false,"internalType":"address","name":"seller","type":"address"}],"name":"AuctionCreated","type":"event"},{"anonymous":false,"inputs":[{"indexed":true,"internalType":"uint256","name":"nftId","type":"uint256"},{"indexed":false,"internalType":"address","name":"winner","type":"address"},{"indexed":false,"internalType":"uint256","name":"winningBid","type":"uint256"}],"name":"AuctionFinalized","type":"event"},{"anonymous":false,"inputs":[{"indexed":true,"internalType":"uint256","name":"nftId","type":"uint256"},{"indexed":false,"internalType":"address","name":"bidder","type":"address"},{"indexed":false,"internalType":"uint256","name":"bidAmount","type":"uint256"}],"name":"BidPlaced","type":"event"},{"anonymous":false,"inputs":[{"indexed":true,"internalType":"uint256","name":"collectionId","type":"uint256"},{"indexed":true,"internalType":"uint256","name":"nftId","type":"uint256"},{"indexed":false,"internalType":"uint256","name":"price","type":"uint256"}],"name":"NFTListed","type":"event"},{"anonymous":false,"inputs":[{"indexed":true,"internalType":"uint256","name":"nftId","type":"uint256"},{"indexed":false,"internalType":"address","name":"seller","type":"address"}],"name":"NFTSaleCancelled","type":"event"},{"anonymous":false,"inputs":[{"indexed":true,"internalType":"uint256","name":"nftId","type":"uint256"},{"indexed":false,"internalType":"address","name":"seller","type":"address"},{"indexed":false,"internalType":"address","name":"buyer","type":"address"},{"indexed":false,"internalType":"uint256","name":"price","type":"uint256"}],"name":"NFTSold","type":"event"},{"inputs":[{"internalType":"uint256","name":"","type":"uint256"}],"name":"auctions","outputs":[{"internalType":"uint256","name":"nftId","type":"uint256"},{"internalType":"uint256","name":"startingPrice","type":"uint256"},{"internalType":"uint256","name":"startTime","type":"uint256"},{"internalType":"uint256","name":"endTime","type":"uint256"},{"internalType":"address payable","name":"seller","type":"address"},{"internalType":"address","name":"highestBidder","type":"address"},{"internalType":"uint256","name":"highestBid","type":"uint256"},{"internalType":"bool","name":"isActive","type":"bool"}],"stateMutability":"view","type":"function"},{"inputs":[{"internalType":"uint256","name":"nftId","type":"uint256"}],"name":"buyNFT","outputs":[],"stateMutability":"payable","type":"function"},{"inputs":[{"internalType":"uint256","name":"nftId","type":"uint256"}],"name":"cancelAuction","outputs":[],"stateMutability":"nonpayable","type":"function"},{"inputs":[{"internalType":"uint256","name":"nftId","type":"uint256"}],"name":"cancelSell","outputs":[],"stateMutability":"nonpayable","type":"function"},{"inputs":[{"internalType":"uint256","name":"nftId","type":"uint256"},{"internalType":"uint256","name":"startingPrice","type":"uint256"},{"internalType":"uint256","name":"startTime","type":"uint256"},{"internalType":"uint256","name":"endTime","type":"uint256"}],"name":"createAuction","outputs":[],"stateMutability":"nonpayable","type":"function"},{"inputs":[],"name":"createCollectionContract","outputs":[{"internalType":"contract ICreateCollection","name":"","type":"address"}],"stateMutability":"view","type":"function"},{"inputs":[{"internalType":"uint256","name":"nftId","type":"uint256"}],"name":"finalizeAuction","outputs":[],"stateMutability":"nonpayable","type":"function"},{"inputs":[],"name":"getCurrentTime","outputs":[{"internalType":"uint256","name":"","type":"uint256"}],"stateMutability":"view","type":"function"},{"inputs":[{"internalType":"uint256","name":"","type":"uint256"}],"name":"listedForSale","outputs":[{"internalType":"bool","name":"","type":"bool"}],"stateMutability":"view","type":"function"},{"inputs":[{"internalType":"uint256","name":"","type":"uint256"}],"name":"nftInAuction","outputs":[{"internalType":"bool","name":"","type":"bool"}],"stateMutability":"view","type":"function"},{"inputs":[{"internalType":"uint256","name":"nftId","type":"uint256"}],"name":"placeBid","outputs":[],"stateMutability":"payable","type":"function"},{"inputs":[{"internalType":"uint256","name":"nftId","type":"uint256"},{"internalType":"uint256","name":"price","type":"uint256"}],"name":"sellNFT","outputs":[],"stateMutability":"nonpayable","type":"function"}],"evm":{"bytecode":{"linkReferences":{},"object":"608060405234801561001057600080fd5b50604051613416380380613416833981810160405281019061003291906100db565b806000806101000a81548173ffffffffffffffffffffffffffffffffffffffff021916908373ffffffffffffffffffffffffffffffffffffffff16021790555050610108565b600080fd5b600073ffffffffffffffffffffffffffffffffffffffff82169050919050565b60006100a88261007d565b9050919050565b6100b88161009d565b81146100c357600080fd5b50565b6000815190506100d5816100af565b92915050565b6000602082840312156100f1576100f0610078565b5b60006100ff848285016100c6565b91505092915050565b6132ff806101176000396000f3fe6080604052600436106100a75760003560e01c806391a48a1e1161006457806391a48a1e146101c657806396b5a755146101ef5780639979ef4514610218578063afe4143d14610234578063ba18429a1461025f578063e80838631461029c576100a7565b806307c9cd45146100ac57806329cb924d146100d5578063431f21da1461010057806351ed82881461012957806354c0487314610145578063571a26a014610182575b600080fd5b3480156100b857600080fd5b506100d360048036038101906100ce9190611e58565b6102c5565b005b3480156100e157600080fd5b506100ea6105fd565b6040516100f79190611e94565b60405180910390f35b34801561010c57600080fd5b5061012760048036038101906101229190611eaf565b610605565b005b610143600480360381019061013e9190611e58565b610b56565b005b34801561015157600080fd5b5061016c60048036038101906101679190611e58565b610fc1565b6040516101799190611f31565b60405180910390f35b34801561018e57600080fd5b506101a960048036038101906101a49190611e58565b610fe1565b6040516101bd989796959493929190611fae565b60405180910390f35b3480156101d257600080fd5b506101ed60048036038101906101e8919061202c565b611076565b005b3480156101fb57600080fd5b5061021660048036038101906102119190611e58565b61140a565b005b610232600480360381019061022d9190611e58565b611651565b005b34801561024057600080fd5b50610249611954565b60405161025691906120cb565b60405180910390f35b34801561026b57600080fd5b5061028660048036038101906102819190611e58565b611978565b6040516102939190611f31565b60405180910390f35b3480156102a857600080fd5b506102c360048036038101906102be9190611e58565b611998565b005b6003600082815260200190815260200160002060009054906101000a900460ff16610325576040517f08c379a000000000000000000000000000000000000000000000000000000000815260040161031c90612143565b60405180910390fd5b60008060008054906101000a900473ffffffffffffffffffffffffffffffffffffffff1673ffffffffffffffffffffffffffffffffffffffff166382260f35846040518263ffffffff1660e01b81526004016103819190611e94565b600060405180830381865afa15801561039e573d6000803e3d6000fd5b505050506040513d6000823e3d601f19601f820116820180604052508101906103c79190612331565b5092509250508061040d576040517f08c379a000000000000000000000000000000000000000000000000000000000815260040161040490612400565b60405180910390fd5b3373ffffffffffffffffffffffffffffffffffffffff168273ffffffffffffffffffffffffffffffffffffffff161461047b576040517f08c379a000000000000000000000000000000000000000000000000000000000815260040161047290612492565b60405180910390fd5b60006003600085815260200190815260200160002060006101000a81548160ff021916908315150217905550600060046000858152602001908152602001600020819055506000600560003373ffffffffffffffffffffffffffffffffffffffff1673ffffffffffffffffffffffffffffffffffffffff168152602001908152602001600020905060005b81805490508110156105be5784828281548110610526576105256124b2565b5b9060005260206000200154036105b15781600183805490506105489190612510565b81548110610559576105586124b2565b5b9060005260206000200154828281548110610577576105766124b2565b5b90600052602060002001819055508180548061059657610595612544565b5b600190038181906000526020600020016000905590556105be565b8080600101915050610506565b50837f5e86a35827477c5388f131ae2ae3671a03f959d1815796f76fbc695fd5adedea336040516105ef9190612573565b60405180910390a250505050565b600042905090565b666a94d74f43000083101561064f576040517f08c379a000000000000000000000000000000000000000000000000000000000815260040161064690612600565b60405180910390fd5b60008060008060009054906101000a900473ffffffffffffffffffffffffffffffffffffffff1673ffffffffffffffffffffffffffffffffffffffff166382260f35886040518263ffffffff1660e01b81526004016106ae9190611e94565b600060405180830381865afa1580156106cb573d6000803e3d6000fd5b505050506040513d6000823e3d601f19601f820116820180604052508101906106f49190612331565b935093509350508161073b576040517f08c379a000000000000000000000000000000000000000000000000000000000815260040161073290612400565b60405180910390fd5b3373ffffffffffffffffffffffffffffffffffffffff168373ffffffffffffffffffffffffffffffffffffffff16146107a9576040517f08c379a00000000000000000000000000000000000000000000000000000000081526004016107a090612492565b60405180910390fd5b6003600088815260200190815260200160002060009054906101000a900460ff161561080a576040517f08c379a00000000000000000000000000000000000000000000000000000000081526004016108019061266c565b60405180910390fd5b603c85856108189190612510565b1015610859576040517f08c379a0000000000000000000000000000000000000000000000000000000008152600401610850906126fe565b60405180910390fd5b4285101561089c576040517f08c379a000000000000000000000000000000000000000000000000000000000815260040161089390612790565b60405180910390fd5b8484116108de576040517f08c379a00000000000000000000000000000000000000000000000000000000081526004016108d590612822565b60405180910390fd5b6002600088815260200190815260200160002060009054906101000a900460ff161561093f576040517f08c379a0000000000000000000000000000000000000000000000000000000008152600401610936906128b4565b60405180910390fd5b80861015610982576040517f08c379a000000000000000000000000000000000000000000000000000000000815260040161097990612946565b60405180910390fd5b6040518061010001604052808881526020018781526020018681526020018581526020013373ffffffffffffffffffffffffffffffffffffffff168152602001600073ffffffffffffffffffffffffffffffffffffffff1681526020016000815260200160011515815250600160008981526020019081526020016000206000820151816000015560208201518160010155604082015181600201556060820151816003015560808201518160040160006101000a81548173ffffffffffffffffffffffffffffffffffffffff021916908373ffffffffffffffffffffffffffffffffffffffff16021790555060a08201518160050160006101000a81548173ffffffffffffffffffffffffffffffffffffffff021916908373ffffffffffffffffffffffffffffffffffffffff16021790555060c0820151816006015560e08201518160070160006101000a81548160ff02191690831515021790555090505060016002600089815260200190815260200160002060006101000a81548160ff021916908315150217905550867ffe21114808b55d6a54bec91c46a20e8dfe7f033edf3f058a5012a829d8d0e3ca87878733604051610b459493929190612966565b60405180910390a250505050505050565b6003600082815260200190815260200160002060009054906101000a900460ff16610bb6576040517f08c379a0000000000000000000000000000000000000000000000000000000008152600401610bad906129f7565b60405180910390fd5b600060046000838152602001908152602001600020549050803414610c10576040517f08c379a0000000000000000000000000000000000000000000000000000000008152600401610c0790612a63565b60405180910390fd5b60008060008054906101000a900473ffffffffffffffffffffffffffffffffffffffff1673ffffffffffffffffffffffffffffffffffffffff166382260f35856040518263ffffffff1660e01b8152600401610c6c9190611e94565b600060405180830381865afa158015610c89573d6000803e3d6000fd5b505050506040513d6000823e3d601f19601f82011682018060405250810190610cb29190612331565b50925092505080610cf8576040517f08c379a0000000000000000000000000000000000000000000000000000000008152600401610cef90612400565b60405180910390fd5b8173ffffffffffffffffffffffffffffffffffffffff163373ffffffffffffffffffffffffffffffffffffffff1603610d66576040517f08c379a0000000000000000000000000000000000000000000000000000000008152600401610d5d90612acf565b60405180910390fd5b60006003600086815260200190815260200160002060006101000a81548160ff021916908315150217905550600060046000868152602001908152602001600020819055506000600560008473ffffffffffffffffffffffffffffffffffffffff1673ffffffffffffffffffffffffffffffffffffffff168152602001908152602001600020905060005b8180549050811015610ea95785828281548110610e1157610e106124b2565b5b906000526020600020015403610e9c578160018380549050610e339190612510565b81548110610e4457610e436124b2565b5b9060005260206000200154828281548110610e6257610e616124b2565b5b906000526020600020018190555081805480610e8157610e80612544565b5b60019003818190600052602060002001600090559055610ea9565b8080600101915050610df1565b508273ffffffffffffffffffffffffffffffffffffffff166108fc349081150290604051600060405180830381858888f19350505050158015610ef0573d6000803e3d6000fd5b5060008054906101000a900473ffffffffffffffffffffffffffffffffffffffff1673ffffffffffffffffffffffffffffffffffffffff16639036c05086336040518363ffffffff1660e01b8152600401610f4c929190612aef565b600060405180830381600087803b158015610f6657600080fd5b505af1158015610f7a573d6000803e3d6000fd5b50505050847f8562eb94748e30bb0071e932744ce902b460c683474fcb3bfd567ffa16b1afb2843387604051610fb293929190612b18565b60405180910390a25050505050565b60036020528060005260406000206000915054906101000a900460ff1681565b60016020528060005260406000206000915090508060000154908060010154908060020154908060030154908060040160009054906101000a900473ffffffffffffffffffffffffffffffffffffffff16908060050160009054906101000a900473ffffffffffffffffffffffffffffffffffffffff16908060060154908060070160009054906101000a900460ff16905088565b666a94d74f4300008110156110c0576040517f08c379a00000000000000000000000000000000000000000000000000000000081526004016110b790612b9b565b60405180910390fd5b6003600083815260200190815260200160002060009054906101000a900460ff1615611121576040517f08c379a000000000000000000000000000000000000000000000000000000000815260040161111890612c07565b60405180910390fd5b6002600083815260200190815260200160002060009054906101000a900460ff1615611182576040517f08c379a000000000000000000000000000000000000000000000000000000000815260040161117990612c73565b60405180910390fd5b60008060008060009054906101000a900473ffffffffffffffffffffffffffffffffffffffff1673ffffffffffffffffffffffffffffffffffffffff166382260f35866040518263ffffffff1660e01b81526004016111e19190611e94565b600060405180830381865afa1580156111fe573d6000803e3d6000fd5b505050506040513d6000823e3d601f19601f820116820180604052508101906112279190612331565b935093509350508161126e576040517f08c379a000000000000000000000000000000000000000000000000000000000815260040161126590612400565b60405180910390fd5b3373ffffffffffffffffffffffffffffffffffffffff168373ffffffffffffffffffffffffffffffffffffffff16146112dc576040517f08c379a00000000000000000000000000000000000000000000000000000000081526004016112d390612492565b60405180910390fd5b8084101561131f576040517f08c379a000000000000000000000000000000000000000000000000000000000815260040161131690612d05565b60405180910390fd5b60016003600087815260200190815260200160002060006101000a81548160ff021916908315150217905550836004600087815260200190815260200160002081905550600560003373ffffffffffffffffffffffffffffffffffffffff1673ffffffffffffffffffffffffffffffffffffffff1681526020019081526020016000208590806001815401808255809150506001900390600052602060002001600090919091909150558460007fcc0c9a64fc84375ceec206f2fc87eb06d3cacae06967a94d2ba499000ea17617866040516113fb9190611e94565b60405180910390a35050505050565b60006001600083815260200190815260200160002090508060070160009054906101000a900460ff16611472576040517f08c379a000000000000000000000000000000000000000000000000000000000815260040161146990612d71565b60405180910390fd5b3373ffffffffffffffffffffffffffffffffffffffff168160040160009054906101000a900473ffffffffffffffffffffffffffffffffffffffff1673ffffffffffffffffffffffffffffffffffffffff1614611504576040517f08c379a00000000000000000000000000000000000000000000000000000000081526004016114fb90612e03565b60405180910390fd5b60008160070160006101000a81548160ff02191690831515021790555060006002600084815260200190815260200160002060006101000a81548160ff021916908315150217905550600073ffffffffffffffffffffffffffffffffffffffff168160050160009054906101000a900473ffffffffffffffffffffffffffffffffffffffff1673ffffffffffffffffffffffffffffffffffffffff1614611615578060050160009054906101000a900473ffffffffffffffffffffffffffffffffffffffff1673ffffffffffffffffffffffffffffffffffffffff166108fc82600601549081150290604051600060405180830381858888f19350505050158015611613573d6000803e3d6000fd5b505b817f10ac9f0bb365b5d22d7bec500408692f23fdf83eadfec71615ef88b4c1134f0e336040516116459190612573565b60405180910390a25050565b60006001600083815260200190815260200160002090508060070160009054906101000a900460ff166116b9576040517f08c379a00000000000000000000000000000000000000000000000000000000081526004016116b090612d71565b60405180910390fd5b8060020154421015611700576040517f08c379a00000000000000000000000000000000000000000000000000000000081526004016116f790612e6f565b60405180910390fd5b8060030154421115611747576040517f08c379a000000000000000000000000000000000000000000000000000000000815260040161173e90612edb565b60405180910390fd5b8060060154341161175b8260060154611cae565b60405160200161176b9190612fb4565b604051602081830303815290604052906117bb576040517f08c379a00000000000000000000000000000000000000000000000000000000081526004016117b2919061300f565b60405180910390fd5b5080600101543411611802576040517f08c379a00000000000000000000000000000000000000000000000000000000081526004016117f9906130a3565b60405180910390fd5b600073ffffffffffffffffffffffffffffffffffffffff168160050160009054906101000a900473ffffffffffffffffffffffffffffffffffffffff1673ffffffffffffffffffffffffffffffffffffffff16146118ca578060050160009054906101000a900473ffffffffffffffffffffffffffffffffffffffff1673ffffffffffffffffffffffffffffffffffffffff166108fc82600601549081150290604051600060405180830381858888f193505050501580156118c8573d6000803e3d6000fd5b505b338160050160006101000a81548173ffffffffffffffffffffffffffffffffffffffff021916908373ffffffffffffffffffffffffffffffffffffffff160217905550348160060181905550817f0e54eff26401bf69b81b26f60bd85ef47f5d85275c1d268d84f68d6897431c4733346040516119489291906130c3565b60405180910390a25050565b60008054906101000a900473ffffffffffffffffffffffffffffffffffffffff1681565b60026020528060005260406000206000915054906101000a900460ff1681565b60006001600083815260200190815260200160002090508060070160009054906101000a900460ff16611a00576040517f08c379a00000000000000000000000000000000000000000000000000000000081526004016119f790612d71565b60405180910390fd5b80600301544211611a46576040517f08c379a0000000000000000000000000000000000000000000000000000000008152600401611a3d90613138565b60405180910390fd5b60008160070160006101000a81548160ff02191690831515021790555060006002600084815260200190815260200160002060006101000a81548160ff021916908315150217905550600073ffffffffffffffffffffffffffffffffffffffff168160050160009054906101000a900473ffffffffffffffffffffffffffffffffffffffff1673ffffffffffffffffffffffffffffffffffffffff1614611c6e5760008054906101000a900473ffffffffffffffffffffffffffffffffffffffff1673ffffffffffffffffffffffffffffffffffffffff16639036c050838360050160009054906101000a900473ffffffffffffffffffffffffffffffffffffffff166040518363ffffffff1660e01b8152600401611b66929190612aef565b600060405180830381600087803b158015611b8057600080fd5b505af1158015611b94573d6000803e3d6000fd5b505050508060040160009054906101000a900473ffffffffffffffffffffffffffffffffffffffff1673ffffffffffffffffffffffffffffffffffffffff166108fc82600601549081150290604051600060405180830381858888f19350505050158015611c06573d6000803e3d6000fd5b50817f4d9113a1377d665eaa1f9168a9c9080f2e488cb820b10149de3d6d2e0f2780c78260050160009054906101000a900473ffffffffffffffffffffffffffffffffffffffff168360060154604051611c619291906130c3565b60405180910390a2611caa565b817f4d9113a1377d665eaa1f9168a9c9080f2e488cb820b10149de3d6d2e0f2780c7600080604051611ca1929190613193565b60405180910390a25b5050565b606060008203611cf5576040518060400160405280600181526020017f30000000000000000000000000000000000000000000000000000000000000008152509050611e09565b600082905060005b60008214611d27578080611d10906131bc565b915050600a82611d209190613233565b9150611cfd565b60008167ffffffffffffffff811115611d4357611d4261217e565b5b6040519080825280601f01601f191660200182016040528015611d755781602001600182028036833780820191505090505b5090505b60008514611e0257600182611d8e9190612510565b9150600a85611d9d9190613264565b6030611da99190613295565b60f81b818381518110611dbf57611dbe6124b2565b5b60200101907effffffffffffffffffffffffffffffffffffffffffffffffffffffffffffff1916908160001a905350600a85611dfb9190613233565b9450611d79565b8093505050505b919050565b6000604051905090565b600080fd5b600080fd5b6000819050919050565b611e3581611e22565b8114611e4057600080fd5b50565b600081359050611e5281611e2c565b92915050565b600060208284031215611e6e57611e6d611e18565b5b6000611e7c84828501611e43565b91505092915050565b611e8e81611e22565b82525050565b6000602082019050611ea96000830184611e85565b92915050565b60008060008060808587031215611ec957611ec8611e18565b5b6000611ed787828801611e43565b9450506020611ee887828801611e43565b9350506040611ef987828801611e43565b9250506060611f0a87828801611e43565b91505092959194509250565b60008115159050919050565b611f2b81611f16565b82525050565b6000602082019050611f466000830184611f22565b92915050565b600073ffffffffffffffffffffffffffffffffffffffff82169050919050565b6000611f7782611f4c565b9050919050565b611f8781611f6c565b82525050565b6000611f9882611f4c565b9050919050565b611fa881611f8d565b82525050565b600061010082019050611fc4600083018b611e85565b611fd1602083018a611e85565b611fde6040830189611e85565b611feb6060830188611e85565b611ff86080830187611f7e565b61200560a0830186611f9f565b61201260c0830185611e85565b61201f60e0830184611f22565b9998505050505050505050565b6000806040838503121561204357612042611e18565b5b600061205185828601611e43565b925050602061206285828601611e43565b9150509250929050565b6000819050919050565b600061209161208c61208784611f4c565b61206c565b611f4c565b9050919050565b60006120a382612076565b9050919050565b60006120b582612098565b9050919050565b6120c5816120aa565b82525050565b60006020820190506120e060008301846120bc565b92915050565b600082825260208201905092915050565b7f4e4654206973206e6f74206c697374656420666f722073616c65000000000000600082015250565b600061212d601a836120e6565b9150612138826120f7565b602082019050919050565b6000602082019050818103600083015261215c81612120565b9050919050565b600080fd5b600080fd5b6000601f19601f8301169050919050565b7f4e487b7100000000000000000000000000000000000000000000000000000000600052604160045260246000fd5b6121b68261216d565b810181811067ffffffffffffffff821117156121d5576121d461217e565b5b80604052505050565b60006121e8611e0e565b90506121f482826121ad565b919050565b600067ffffffffffffffff8211156122145761221361217e565b5b61221d8261216d565b9050602081019050919050565b60005b8381101561224857808201518184015260208101905061222d565b60008484015250505050565b6000612267612262846121f9565b6121de565b90508281526020810184848401111561228357612282612168565b5b61228e84828561222a565b509392505050565b600082601f8301126122ab576122aa612163565b5b81516122bb848260208601612254565b91505092915050565b6122cd81611f8d565b81146122d857600080fd5b50565b6000815190506122ea816122c4565b92915050565b6122f981611f16565b811461230457600080fd5b50565b600081519050612316816122f0565b92915050565b60008151905061232b81611e2c565b92915050565b6000806000806080858703121561234b5761234a611e18565b5b600085015167ffffffffffffffff81111561236957612368611e1d565b5b61237587828801612296565b9450506020612386878288016122db565b935050604061239787828801612307565b92505060606123a88782880161231c565b91505092959194509250565b7f4e465420646f6573206e6f742065786973740000000000000000000000000000600082015250565b60006123ea6012836120e6565b91506123f5826123b4565b602082019050919050565b60006020820190508181036000830152612419816123dd565b9050919050565b7f596f7520617265206e6f7420746865206f776e6572206f662074686973204e4660008201527f5400000000000000000000000000000000000000000000000000000000000000602082015250565b600061247c6021836120e6565b915061248782612420565b604082019050919050565b600060208201905081810360008301526124ab8161246f565b9050919050565b7f4e487b7100000000000000000000000000000000000000000000000000000000600052603260045260246000fd5b7f4e487b7100000000000000000000000000000000000000000000000000000000600052601160045260246000fd5b600061251b82611e22565b915061252683611e22565b925082820390508181111561253e5761253d6124e1565b5b92915050565b7f4e487b7100000000000000000000000000000000000000000000000000000000600052603160045260246000fd5b60006020820190506125886000830184611f9f565b92915050565b7f5374617274696e67207072696365206d757374206265206174206c656173742060008201527f302e303320455448000000000000000000000000000000000000000000000000602082015250565b60006125ea6028836120e6565b91506125f58261258e565b604082019050919050565b60006020820190508181036000830152612619816125dd565b9050919050565b7f4e465420697320616c7265616479206c697374656420666f722073616c650000600082015250565b6000612656601e836120e6565b915061266182612620565b602082019050919050565b6000602082019050818103600083015261268581612649565b9050919050565b7f41756374696f6e206d7573742072756e20666f72206174206c6561737420312060008201527f6d696e7574650000000000000000000000000000000000000000000000000000602082015250565b60006126e86026836120e6565b91506126f38261268c565b604082019050919050565b60006020820190508181036000830152612717816126db565b9050919050565b7f53746172742074696d65206d7573742062652063757272656e74206f7220667560008201527f7475726500000000000000000000000000000000000000000000000000000000602082015250565b600061277a6024836120e6565b91506127858261271e565b604082019050919050565b600060208201905081810360008301526127a98161276d565b9050919050565b7f456e642074696d65206d7573742062652061667465722073746172742074696d60008201527f6500000000000000000000000000000000000000000000000000000000000000602082015250565b600061280c6021836120e6565b9150612817826127b0565b604082019050919050565b6000602082019050818103600083015261283b816127ff565b9050919050565b7f41756374696f6e20616c72656164792065786973747320666f7220746869732060008201527f4e46540000000000000000000000000000000000000000000000000000000000602082015250565b600061289e6023836120e6565b91506128a982612842565b604082019050919050565b600060208201905081810360008301526128cd81612891565b9050919050565b7f5374617274696e67207072696365206d757374206265206174206c656173742060008201527f746865206d696e74207072696365000000000000000000000000000000000000602082015250565b6000612930602e836120e6565b915061293b826128d4565b604082019050919050565b6000602082019050818103600083015261295f81612923565b9050919050565b600060808201905061297b6000830187611e85565b6129886020830186611e85565b6129956040830185611e85565b6129a26060830184611f9f565b95945050505050565b7f4e4654206e6f74206c697374656420666f722073616c65000000000000000000600082015250565b60006129e16017836120e6565b91506129ec826129ab565b602082019050919050565b60006020820190508181036000830152612a10816129d4565b9050919050565b7f496e636f7272656374207061796d656e7420616d6f756e740000000000000000600082015250565b6000612a4d6018836120e6565b9150612a5882612a17565b602082019050919050565b60006020820190508181036000830152612a7c81612a40565b9050919050565b7f43616e6e6f742062757920796f7572206f776e204e4654000000000000000000600082015250565b6000612ab96017836120e6565b9150612ac482612a83565b602082019050919050565b60006020820190508181036000830152612ae881612aac565b9050919050565b6000604082019050612b046000830185611e85565b612b116020830184611f9f565b9392505050565b6000606082019050612b2d6000830186611f9f565b612b3a6020830185611f9f565b612b476040830184611e85565b949350505050565b7f5072696365206d757374206265206174206c6561737420302e30332045544800600082015250565b6000612b85601f836120e6565b9150612b9082612b4f565b602082019050919050565b60006020820190508181036000830152612bb481612b78565b9050919050565b7f4e465420616c7265616479206c69737465640000000000000000000000000000600082015250565b6000612bf16012836120e6565b9150612bfc82612bbb565b602082019050919050565b60006020820190508181036000830152612c2081612be4565b9050919050565b7f4e46542069732063757272656e746c7920696e2061756374696f6e0000000000600082015250565b6000612c5d601b836120e6565b9150612c6882612c27565b602082019050919050565b60006020820190508181036000830152612c8c81612c50565b9050919050565b7f53616c65207072696365206d757374206265206174206c65617374207468652060008201527f6d696e7420707269636500000000000000000000000000000000000000000000602082015250565b6000612cef602a836120e6565b9150612cfa82612c93565b604082019050919050565b60006020820190508181036000830152612d1e81612ce2565b9050919050565b7f41756374696f6e206973206e6f74206163746976650000000000000000000000600082015250565b6000612d5b6015836120e6565b9150612d6682612d25565b602082019050919050565b60006020820190508181036000830152612d8a81612d4e565b9050919050565b7f596f7520617265206e6f74207468652073656c6c6572206f662074686973206160008201527f756374696f6e0000000000000000000000000000000000000000000000000000602082015250565b6000612ded6026836120e6565b9150612df882612d91565b604082019050919050565b60006020820190508181036000830152612e1c81612de0565b9050919050565b7f41756374696f6e20686173206e6f742073746172746564207965740000000000600082015250565b6000612e59601b836120e6565b9150612e6482612e23565b602082019050919050565b60006020820190508181036000830152612e8881612e4c565b9050919050565b7f41756374696f6e2068617320616c726561647920656e64656400000000000000600082015250565b6000612ec56019836120e6565b9150612ed082612e8f565b602082019050919050565b60006020820190508181036000830152612ef481612eb8565b9050919050565b600081905092915050565b7f42696420616d6f756e74206d75737420626520686967686572207468616e207460008201527f68652063757272656e742068696768657374206269643a200000000000000000602082015250565b6000612f62603883612efb565b9150612f6d82612f06565b603882019050919050565b600081519050919050565b6000612f8e82612f78565b612f988185612efb565b9350612fa881856020860161222a565b80840191505092915050565b6000612fbf82612f55565b9150612fcb8284612f83565b915081905092915050565b6000612fe182612f78565b612feb81856120e6565b9350612ffb81856020860161222a565b6130048161216d565b840191505092915050565b600060208201905081810360008301526130298184612fd6565b905092915050565b7f42696420616d6f756e74206d75737420626520686967686572207468616e207460008201527f6865207374617274696e67207072696365000000000000000000000000000000602082015250565b600061308d6031836120e6565b915061309882613031565b604082019050919050565b600060208201905081810360008301526130bc81613080565b9050919050565b60006040820190506130d86000830185611f9f565b6130e56020830184611e85565b9392505050565b7f41756374696f6e20686173206e6f7420656e6465642079657400000000000000600082015250565b60006131226019836120e6565b915061312d826130ec565b602082019050919050565b6000602082019050818103600083015261315181613115565b9050919050565b6000819050919050565b600061317d61317861317384613158565b61206c565b611e22565b9050919050565b61318d81613162565b82525050565b60006040820190506131a86000830185611f9f565b6131b56020830184613184565b9392505050565b60006131c782611e22565b91507fffffffffffffffffffffffffffffffffffffffffffffffffffffffffffffffff82036131f9576131f86124e1565b5b600182019050919050565b7f4e487b7100000000000000000000000000000000000000000000000000000000600052601260045260246000fd5b600061323e82611e22565b915061324983611e22565b92508261325957613258613204565b5b828204905092915050565b600061326f82611e22565b915061327a83611e22565b92508261328a57613289613204565b5b828206905092915050565b60006132a082611e22565b91506132ab83611e22565b92508282019050808211156132c3576132c26124e1565b5b9291505056fea26469706673582212209cbcfe42d30f94f79b9d2d31bbd92d357fe3dc526dd93fee47b1ca47c84bc92564736f6c634300081c0033","opcodes":"PUSH1 0x80 PUSH1 0x40 MSTORE CALLVALUE DUP1 ISZERO PUSH2 0x10 JUMPI PUSH1 0x0 DUP1 REVERT JUMPDEST POP PUSH1 0x40 MLOAD PUSH2 0x3416 CODESIZE SUB DUP1 PUSH2 0x3416 DUP4 CODECOPY DUP2 DUP2 ADD PUSH1 0x40 MSTORE DUP2 ADD SWAP1 PUSH2 0x32 SWAP2 SWAP1 PUSH2 0xDB JUMP JUMPDEST DUP1 PUSH1 0x0 DUP1 PUSH2 0x100 EXP DUP2 SLOAD DUP2 PUSH20 0xFFFFFFFFFFFFFFFFFFFFFFFFFFFFFFFFFFFFFFFF MUL NOT AND SWAP1 DUP4 PUSH20 0xFFFFFFFFFFFFFFFFFFFFFFFFFFFFFFFFFFFFFFFF AND MUL OR SWAP1 SSTORE POP POP PUSH2 0x108 JUMP JUMPDEST PUSH1 0x0 DUP1 REVERT JUMPDEST PUSH1 0x0 PUSH20 0xFFFFFFFFFFFFFFFFFFFFFFFFFFFFFFFFFFFFFFFF DUP3 AND SWAP1 POP SWAP2 SWAP1 POP JUMP JUMPDEST PUSH1 0x0 PUSH2 0xA8 DUP3 PUSH2 0x7D JUMP JUMPDEST SWAP1 POP SWAP2 SWAP1 POP JUMP JUMPDEST PUSH2 0xB8 DUP2 PUSH2 0x9D JUMP JUMPDEST DUP2 EQ PUSH2 0xC3 JUMPI PUSH1 0x0 DUP1 REVERT JUMPDEST POP JUMP JUMPDEST PUSH1 0x0 DUP2 MLOAD SWAP1 POP PUSH2 0xD5 DUP2 PUSH2 0xAF JUMP JUMPDEST SWAP3 SWAP2 POP POP JUMP JUMPDEST PUSH1 0x0 PUSH1 0x20 DUP3 DUP5 SUB SLT ISZERO PUSH2 0xF1 JUMPI PUSH2 0xF0 PUSH2 0x78 JUMP JUMPDEST JUMPDEST PUSH1 0x0 PUSH2 0xFF DUP5 DUP3 DUP6 ADD PUSH2 0xC6 JUMP JUMPDEST SWAP2 POP POP SWAP3 SWAP2 POP POP JUMP JUMPDEST PUSH2 0x32FF DUP1 PUSH2 0x117 PUSH1 0x0 CODECOPY PUSH1 0x0 RETURN INVALID PUSH1 0x80 PUSH1 0x40 MSTORE PUSH1 0x4 CALLDATASIZE LT PUSH2 0xA7 JUMPI PUSH1 0x0 CALLDATALOAD PUSH1 0xE0 SHR DUP1 PUSH4 0x91A48A1E GT PUSH2 0x64 JUMPI DUP1 PUSH4 0x91A48A1E EQ PUSH2 0x1C6 JUMPI DUP1 PUSH4 0x96B5A755 EQ PUSH2 0x1EF JUMPI DUP1 PUSH4 0x9979EF45 EQ PUSH2 0x218 JUMPI DUP1 PUSH4 0xAFE4143D EQ PUSH2 0x234 JUMPI DUP1 PUSH4 0xBA18429A EQ PUSH2 0x25F JUMPI DUP1 PUSH4 0xE8083863 EQ PUSH2 0x29C JUMPI PUSH2 0xA7 JUMP JUMPDEST DUP1 PUSH4 0x7C9CD45 EQ PUSH2 0xAC JUMPI DUP1 PUSH4 0x29CB924D EQ PUSH2 0xD5 JUMPI DUP1 PUSH4 0x431F21DA EQ PUSH2 0x100 JUMPI DUP1 PUSH4 0x51ED8288 EQ PUSH2 0x129 JUMPI DUP1 PUSH4 0x54C04873 EQ PUSH2 0x145 JUMPI DUP1 PUSH4 0x571A26A0 EQ PUSH2 0x182 JUMPI JUMPDEST PUSH1 0x0 DUP1 REVERT JUMPDEST CALLVALUE DUP1 ISZERO PUSH2 0xB8 JUMPI PUSH1 0x0 DUP1 REVERT JUMPDEST POP PUSH2 0xD3 PUSH1 0x4 DUP1 CALLDATASIZE SUB DUP2 ADD SWAP1 PUSH2 0xCE SWAP2 SWAP1 PUSH2 0x1E58 JUMP JUMPDEST PUSH2 0x2C5 JUMP JUMPDEST STOP JUMPDEST CALLVALUE DUP1 ISZERO PUSH2 0xE1 JUMPI PUSH1 0x0 DUP1 REVERT JUMPDEST POP PUSH2 0xEA PUSH2 0x5FD JUMP JUMPDEST PUSH1 0x40 MLOAD PUSH2 0xF7 SWAP2 SWAP1 PUSH2 0x1E94 JUMP JUMPDEST PUSH1 0x40 MLOAD DUP1 SWAP2 SUB SWAP1 RETURN JUMPDEST CALLVALUE DUP1 ISZERO PUSH2 0x10C JUMPI PUSH1 0x0 DUP1 REVERT JUMPDEST POP PUSH2 0x127 PUSH1 0x4 DUP1 CALLDATASIZE SUB DUP2 ADD SWAP1 PUSH2 0x122 SWAP2 SWAP1 PUSH2 0x1EAF JUMP JUMPDEST PUSH2 0x605 JUMP JUMPDEST STOP JUMPDEST PUSH2 0x143 PUSH1 0x4 DUP1 CALLDATASIZE SUB DUP2 ADD SWAP1 PUSH2 0x13E SWAP2 SWAP1 PUSH2 0x1E58 JUMP JUMPDEST PUSH2 0xB56 JUMP JUMPDEST STOP JUMPDEST CALLVALUE DUP1 ISZERO PUSH2 0x151 JUMPI PUSH1 0x0 DUP1 REVERT JUMPDEST POP PUSH2 0x16C PUSH1 0x4 DUP1 CALLDATASIZE SUB DUP2 ADD SWAP1 PUSH2 0x167 SWAP2 SWAP1 PUSH2 0x1E58 JUMP JUMPDEST PUSH2 0xFC1 JUMP JUMPDEST PUSH1 0x40 MLOAD PUSH2 0x179 SWAP2 SWAP1 PUSH2 0x1F31 JUMP JUMPDEST PUSH1 0x40 MLOAD DUP1 SWAP2 SUB SWAP1 RETURN JUMPDEST CALLVALUE DUP1 ISZERO PUSH2 0x18E JUMPI PUSH1 0x0 DUP1 REVERT JUMPDEST POP PUSH2 0x1A9 PUSH1 0x4 DUP1 CALLDATASIZE SUB DUP2 ADD SWAP1 PUSH2 0x1A4 SWAP2 SWAP1 PUSH2 0x1E58 JUMP JUMPDEST PUSH2 0xFE1 JUMP JUMPDEST PUSH1 0x40 MLOAD PUSH2 0x1BD SWAP9 SWAP8 SWAP7 SWAP6 SWAP5 SWAP4 SWAP3 SWAP2 SWAP1 PUSH2 0x1FAE JUMP JUMPDEST PUSH1 0x40 MLOAD DUP1 SWAP2 SUB SWAP1 RETURN JUMPDEST CALLVALUE DUP1 ISZERO PUSH2 0x1D2 JUMPI PUSH1 0x0 DUP1 REVERT JUMPDEST POP PUSH2 0x1ED PUSH1 0x4 DUP1 CALLDATASIZE SUB DUP2 ADD SWAP1 PUSH2 0x1E8 SWAP2 SWAP1 PUSH2 0x202C JUMP JUMPDEST PUSH2 0x1076 JUMP JUMPDEST STOP JUMPDEST CALLVALUE DUP1 ISZERO PUSH2 0x1FB JUMPI PUSH1 0x0 DUP1 REVERT JUMPDEST POP PUSH2 0x216 PUSH1 0x4 DUP1 CALLDATASIZE SUB DUP2 ADD SWAP1 PUSH2 0x211 SWAP2 SWAP1 PUSH2 0x1E58 JUMP JUMPDEST PUSH2 0x140A JUMP JUMPDEST STOP JUMPDEST PUSH2 0x232 PUSH1 0x4 DUP1 CALLDATASIZE SUB DUP2 ADD SWAP1 PUSH2 0x22D SWAP2 SWAP1 PUSH2 0x1E58 JUMP JUMPDEST PUSH2 0x1651 JUMP JUMPDEST STOP JUMPDEST CALLVALUE DUP1 ISZERO PUSH2 0x240 JUMPI PUSH1 0x0 DUP1 REVERT JUMPDEST POP PUSH2 0x249 PUSH2 0x1954 JUMP JUMPDEST PUSH1 0x40 MLOAD PUSH2 0x256 SWAP2 SWAP1 PUSH2 0x20CB JUMP JUMPDEST PUSH1 0x40 MLOAD DUP1 SWAP2 SUB SWAP1 RETURN JUMPDEST CALLVALUE DUP1 ISZERO PUSH2 0x26B JUMPI PUSH1 0x0 DUP1 REVERT JUMPDEST POP PUSH2 0x286 PUSH1 0x4 DUP1 CALLDATASIZE SUB DUP2 ADD SWAP1 PUSH2 0x281 SWAP2 SWAP1 PUSH2 0x1E58 JUMP JUMPDEST PUSH2 0x1978 JUMP JUMPDEST PUSH1 0x40 MLOAD PUSH2 0x293 SWAP2 SWAP1 PUSH2 0x1F31 JUMP JUMPDEST PUSH1 0x40 MLOAD DUP1 SWAP2 SUB SWAP1 RETURN JUMPDEST CALLVALUE DUP1 ISZERO PUSH2 0x2A8 JUMPI PUSH1 0x0 DUP1 REVERT JUMPDEST POP PUSH2 0x2C3 PUSH1 0x4 DUP1 CALLDATASIZE SUB DUP2 ADD SWAP1 PUSH2 0x2BE SWAP2 SWAP1 PUSH2 0x1E58 JUMP JUMPDEST PUSH2 0x1998 JUMP JUMPDEST STOP JUMPDEST PUSH1 0x3 PUSH1 0x0 DUP3 DUP2 MSTORE PUSH1 0x20 ADD SWAP1 DUP2 MSTORE PUSH1 0x20 ADD PUSH1 0x0 KECCAK256 PUSH1 0x0 SWAP1 SLOAD SWAP1 PUSH2 0x100 EXP SWAP1 DIV PUSH1 0xFF AND PUSH2 0x325 JUMPI PUSH1 0x40 MLOAD PUSH32 0x8C379A000000000000000000000000000000000000000000000000000000000 DUP2 MSTORE PUSH1 0x4 ADD PUSH2 0x31C SWAP1 PUSH2 0x2143 JUMP JUMPDEST PUSH1 0x40 MLOAD DUP1 SWAP2 SUB SWAP1 REVERT JUMPDEST PUSH1 0x0 DUP1 PUSH1 0x0 DUP1 SLOAD SWAP1 PUSH2 0x100 EXP SWAP1 DIV PUSH20 0xFFFFFFFFFFFFFFFFFFFFFFFFFFFFFFFFFFFFFFFF AND PUSH20 0xFFFFFFFFFFFFFFFFFFFFFFFFFFFFFFFFFFFFFFFF AND PUSH4 0x82260F35 DUP5 PUSH1 0x40 MLOAD DUP3 PUSH4 0xFFFFFFFF AND PUSH1 0xE0 SHL DUP2 MSTORE PUSH1 0x4 ADD PUSH2 0x381 SWAP2 SWAP1 PUSH2 0x1E94 JUMP JUMPDEST PUSH1 0x0 PUSH1 0x40 MLOAD DUP1 DUP4 SUB DUP2 DUP7 GAS STATICCALL ISZERO DUP1 ISZERO PUSH2 0x39E JUMPI RETURNDATASIZE PUSH1 0x0 DUP1 RETURNDATACOPY RETURNDATASIZE PUSH1 0x0 REVERT JUMPDEST POP POP POP POP PUSH1 0x40 MLOAD RETURNDATASIZE PUSH1 0x0 DUP3 RETURNDATACOPY RETURNDATASIZE PUSH1 0x1F NOT PUSH1 0x1F DUP3 ADD AND DUP3 ADD DUP1 PUSH1 0x40 MSTORE POP DUP2 ADD SWAP1 PUSH2 0x3C7 SWAP2 SWAP1 PUSH2 0x2331 JUMP JUMPDEST POP SWAP3 POP SWAP3 POP POP DUP1 PUSH2 0x40D JUMPI PUSH1 0x40 MLOAD PUSH32 0x8C379A000000000000000000000000000000000000000000000000000000000 DUP2 MSTORE PUSH1 0x4 ADD PUSH2 0x404 SWAP1 PUSH2 0x2400 JUMP JUMPDEST PUSH1 0x40 MLOAD DUP1 SWAP2 SUB SWAP1 REVERT JUMPDEST CALLER PUSH20 0xFFFFFFFFFFFFFFFFFFFFFFFFFFFFFFFFFFFFFFFF AND DUP3 PUSH20 0xFFFFFFFFFFFFFFFFFFFFFFFFFFFFFFFFFFFFFFFF AND EQ PUSH2 0x47B JUMPI PUSH1 0x40 MLOAD PUSH32 0x8C379A000000000000000000000000000000000000000000000000000000000 DUP2 MSTORE PUSH1 0x4 ADD PUSH2 0x472 SWAP1 PUSH2 0x2492 JUMP JUMPDEST PUSH1 0x40 MLOAD DUP1 SWAP2 SUB SWAP1 REVERT JUMPDEST PUSH1 0x0 PUSH1 0x3 PUSH1 0x0 DUP6 DUP2 MSTORE PUSH1 0x20 ADD SWAP1 DUP2 MSTORE PUSH1 0x20 ADD PUSH1 0x0 KECCAK256 PUSH1 0x0 PUSH2 0x100 EXP DUP2 SLOAD DUP2 PUSH1 0xFF MUL NOT AND SWAP1 DUP4 ISZERO ISZERO MUL OR SWAP1 SSTORE POP PUSH1 0x0 PUSH1 0x4 PUSH1 0x0 DUP6 DUP2 MSTORE PUSH1 0x20 ADD SWAP1 DUP2 MSTORE PUSH1 0x20 ADD PUSH1 0x0 KECCAK256 DUP2 SWAP1 SSTORE POP PUSH1 0x0 PUSH1 0x5 PUSH1 0x0 CALLER PUSH20 0xFFFFFFFFFFFFFFFFFFFFFFFFFFFFFFFFFFFFFFFF AND PUSH20 0xFFFFFFFFFFFFFFFFFFFFFFFFFFFFFFFFFFFFFFFF AND DUP2 MSTORE PUSH1 0x20 ADD SWAP1 DUP2 MSTORE PUSH1 0x20 ADD PUSH1 0x0 KECCAK256 SWAP1 POP PUSH1 0x0 JUMPDEST DUP2 DUP1 SLOAD SWAP1 POP DUP2 LT ISZERO PUSH2 0x5BE JUMPI DUP5 DUP3 DUP3 DUP2 SLOAD DUP2 LT PUSH2 0x526 JUMPI PUSH2 0x525 PUSH2 0x24B2 JUMP JUMPDEST JUMPDEST SWAP1 PUSH1 0x0 MSTORE PUSH1 0x20 PUSH1 0x0 KECCAK256 ADD SLOAD SUB PUSH2 0x5B1 JUMPI DUP2 PUSH1 0x1 DUP4 DUP1 SLOAD SWAP1 POP PUSH2 0x548 SWAP2 SWAP1 PUSH2 0x2510 JUMP JUMPDEST DUP2 SLOAD DUP2 LT PUSH2 0x559 JUMPI PUSH2 0x558 PUSH2 0x24B2 JUMP JUMPDEST JUMPDEST SWAP1 PUSH1 0x0 MSTORE PUSH1 0x20 PUSH1 0x0 KECCAK256 ADD SLOAD DUP3 DUP3 DUP2 SLOAD DUP2 LT PUSH2 0x577 JUMPI PUSH2 0x576 PUSH2 0x24B2 JUMP JUMPDEST JUMPDEST SWAP1 PUSH1 0x0 MSTORE PUSH1 0x20 PUSH1 0x0 KECCAK256 ADD DUP2 SWAP1 SSTORE POP DUP2 DUP1 SLOAD DUP1 PUSH2 0x596 JUMPI PUSH2 0x595 PUSH2 0x2544 JUMP JUMPDEST JUMPDEST PUSH1 0x1 SWAP1 SUB DUP2 DUP2 SWAP1 PUSH1 0x0 MSTORE PUSH1 0x20 PUSH1 0x0 KECCAK256 ADD PUSH1 0x0 SWAP1 SSTORE SWAP1 SSTORE PUSH2 0x5BE JUMP JUMPDEST DUP1 DUP1 PUSH1 0x1 ADD SWAP2 POP POP PUSH2 0x506 JUMP JUMPDEST POP DUP4 PUSH32 0x5E86A35827477C5388F131AE2AE3671A03F959D1815796F76FBC695FD5ADEDEA CALLER PUSH1 0x40 MLOAD PUSH2 0x5EF SWAP2 SWAP1 PUSH2 0x2573 JUMP JUMPDEST PUSH1 0x40 MLOAD DUP1 SWAP2 SUB SWAP1 LOG2 POP POP POP POP JUMP JUMPDEST PUSH1 0x0 TIMESTAMP SWAP1 POP SWAP1 JUMP JUMPDEST PUSH7 0x6A94D74F430000 DUP4 LT ISZERO PUSH2 0x64F JUMPI PUSH1 0x40 MLOAD PUSH32 0x8C379A000000000000000000000000000000000000000000000000000000000 DUP2 MSTORE PUSH1 0x4 ADD PUSH2 0x646 SWAP1 PUSH2 0x2600 JUMP JUMPDEST PUSH1 0x40 MLOAD DUP1 SWAP2 SUB SWAP1 REVERT JUMPDEST PUSH1 0x0 DUP1 PUSH1 0x0 DUP1 PUSH1 0x0 SWAP1 SLOAD SWAP1 PUSH2 0x100 EXP SWAP1 DIV PUSH20 0xFFFFFFFFFFFFFFFFFFFFFFFFFFFFFFFFFFFFFFFF AND PUSH20 0xFFFFFFFFFFFFFFFFFFFFFFFFFFFFFFFFFFFFFFFF AND PUSH4 0x82260F35 DUP9 PUSH1 0x40 MLOAD DUP3 PUSH4 0xFFFFFFFF AND PUSH1 0xE0 SHL DUP2 MSTORE PUSH1 0x4 ADD PUSH2 0x6AE SWAP2 SWAP1 PUSH2 0x1E94 JUMP JUMPDEST PUSH1 0x0 PUSH1 0x40 MLOAD DUP1 DUP4 SUB DUP2 DUP7 GAS STATICCALL ISZERO DUP1 ISZERO PUSH2 0x6CB JUMPI RETURNDATASIZE PUSH1 0x0 DUP1 RETURNDATACOPY RETURNDATASIZE PUSH1 0x0 REVERT JUMPDEST POP POP POP POP PUSH1 0x40 MLOAD RETURNDATASIZE PUSH1 0x0 DUP3 RETURNDATACOPY RETURNDATASIZE PUSH1 0x1F NOT PUSH1 0x1F DUP3 ADD AND DUP3 ADD DUP1 PUSH1 0x40 MSTORE POP DUP2 ADD SWAP1 PUSH2 0x6F4 SWAP2 SWAP1 PUSH2 0x2331 JUMP JUMPDEST SWAP4 POP SWAP4 POP SWAP4 POP POP DUP2 PUSH2 0x73B JUMPI PUSH1 0x40 MLOAD PUSH32 0x8C379A000000000000000000000000000000000000000000000000000000000 DUP2 MSTORE PUSH1 0x4 ADD PUSH2 0x732 SWAP1 PUSH2 0x2400 JUMP JUMPDEST PUSH1 0x40 MLOAD DUP1 SWAP2 SUB SWAP1 REVERT JUMPDEST CALLER PUSH20 0xFFFFFFFFFFFFFFFFFFFFFFFFFFFFFFFFFFFFFFFF AND DUP4 PUSH20 0xFFFFFFFFFFFFFFFFFFFFFFFFFFFFFFFFFFFFFFFF AND EQ PUSH2 0x7A9 JUMPI PUSH1 0x40 MLOAD PUSH32 0x8C379A000000000000000000000000000000000000000000000000000000000 DUP2 MSTORE PUSH1 0x4 ADD PUSH2 0x7A0 SWAP1 PUSH2 0x2492 JUMP JUMPDEST PUSH1 0x40 MLOAD DUP1 SWAP2 SUB SWAP1 REVERT JUMPDEST PUSH1 0x3 PUSH1 0x0 DUP9 DUP2 MSTORE PUSH1 0x20 ADD SWAP1 DUP2 MSTORE PUSH1 0x20 ADD PUSH1 0x0 KECCAK256 PUSH1 0x0 SWAP1 SLOAD SWAP1 PUSH2 0x100 EXP SWAP1 DIV PUSH1 0xFF AND ISZERO PUSH2 0x80A JUMPI PUSH1 0x40 MLOAD PUSH32 0x8C379A000000000000000000000000000000000000000000000000000000000 DUP2 MSTORE PUSH1 0x4 ADD PUSH2 0x801 SWAP1 PUSH2 0x266C JUMP JUMPDEST PUSH1 0x40 MLOAD DUP1 SWAP2 SUB SWAP1 REVERT JUMPDEST PUSH1 0x3C DUP6 DUP6 PUSH2 0x818 SWAP2 SWAP1 PUSH2 0x2510 JUMP JUMPDEST LT ISZERO PUSH2 0x859 JUMPI PUSH1 0x40 MLOAD PUSH32 0x8C379A000000000000000000000000000000000000000000000000000000000 DUP2 MSTORE PUSH1 0x4 ADD PUSH2 0x850 SWAP1 PUSH2 0x26FE JUMP JUMPDEST PUSH1 0x40 MLOAD DUP1 SWAP2 SUB SWAP1 REVERT JUMPDEST TIMESTAMP DUP6 LT ISZERO PUSH2 0x89C JUMPI PUSH1 0x40 MLOAD PUSH32 0x8C379A000000000000000000000000000000000000000000000000000000000 DUP2 MSTORE PUSH1 0x4 ADD PUSH2 0x893 SWAP1 PUSH2 0x2790 JUMP JUMPDEST PUSH1 0x40 MLOAD DUP1 SWAP2 SUB SWAP1 REVERT JUMPDEST DUP5 DUP5 GT PUSH2 0x8DE JUMPI PUSH1 0x40 MLOAD PUSH32 0x8C379A000000000000000000000000000000000000000000000000000000000 DUP2 MSTORE PUSH1 0x4 ADD PUSH2 0x8D5 SWAP1 PUSH2 0x2822 JUMP JUMPDEST PUSH1 0x40 MLOAD DUP1 SWAP2 SUB SWAP1 REVERT JUMPDEST PUSH1 0x2 PUSH1 0x0 DUP9 DUP2 MSTORE PUSH1 0x20 ADD SWAP1 DUP2 MSTORE PUSH1 0x20 ADD PUSH1 0x0 KECCAK256 PUSH1 0x0 SWAP1 SLOAD SWAP1 PUSH2 0x100 EXP SWAP1 DIV PUSH1 0xFF AND ISZERO PUSH2 0x93F JUMPI PUSH1 0x40 MLOAD PUSH32 0x8C379A000000000000000000000000000000000000000000000000000000000 DUP2 MSTORE PUSH1 0x4 ADD PUSH2 0x936 SWAP1 PUSH2 0x28B4 JUMP JUMPDEST PUSH1 0x40 MLOAD DUP1 SWAP2 SUB SWAP1 REVERT JUMPDEST DUP1 DUP7 LT ISZERO PUSH2 0x982 JUMPI PUSH1 0x40 MLOAD PUSH32 0x8C379A000000000000000000000000000000000000000000000000000000000 DUP2 MSTORE PUSH1 0x4 ADD PUSH2 0x979 SWAP1 PUSH2 0x2946 JUMP JUMPDEST PUSH1 0x40 MLOAD DUP1 SWAP2 SUB SWAP1 REVERT JUMPDEST PUSH1 0x40 MLOAD DUP1 PUSH2 0x100 ADD PUSH1 0x40 MSTORE DUP1 DUP9 DUP2 MSTORE PUSH1 0x20 ADD DUP8 DUP2 MSTORE PUSH1 0x20 ADD DUP7 DUP2 MSTORE PUSH1 0x20 ADD DUP6 DUP2 MSTORE PUSH1 0x20 ADD CALLER PUSH20 0xFFFFFFFFFFFFFFFFFFFFFFFFFFFFFFFFFFFFFFFF AND DUP2 MSTORE PUSH1 0x20 ADD PUSH1 0x0 PUSH20 0xFFFFFFFFFFFFFFFFFFFFFFFFFFFFFFFFFFFFFFFF AND DUP2 MSTORE PUSH1 0x20 ADD PUSH1 0x0 DUP2 MSTORE PUSH1 0x20 ADD PUSH1 0x1 ISZERO ISZERO DUP2 MSTORE POP PUSH1 0x1 PUSH1 0x0 DUP10 DUP2 MSTORE PUSH1 0x20 ADD SWAP1 DUP2 MSTORE PUSH1 0x20 ADD PUSH1 0x0 KECCAK256 PUSH1 0x0 DUP3 ADD MLOAD DUP2 PUSH1 0x0 ADD SSTORE PUSH1 0x20 DUP3 ADD MLOAD DUP2 PUSH1 0x1 ADD SSTORE PUSH1 0x40 DUP3 ADD MLOAD DUP2 PUSH1 0x2 ADD SSTORE PUSH1 0x60 DUP3 ADD MLOAD DUP2 PUSH1 0x3 ADD SSTORE PUSH1 0x80 DUP3 ADD MLOAD DUP2 PUSH1 0x4 ADD PUSH1 0x0 PUSH2 0x100 EXP DUP2 SLOAD DUP2 PUSH20 0xFFFFFFFFFFFFFFFFFFFFFFFFFFFFFFFFFFFFFFFF MUL NOT AND SWAP1 DUP4 PUSH20 0xFFFFFFFFFFFFFFFFFFFFFFFFFFFFFFFFFFFFFFFF AND MUL OR SWAP1 SSTORE POP PUSH1 0xA0 DUP3 ADD MLOAD DUP2 PUSH1 0x5 ADD PUSH1 0x0 PUSH2 0x100 EXP DUP2 SLOAD DUP2 PUSH20 0xFFFFFFFFFFFFFFFFFFFFFFFFFFFFFFFFFFFFFFFF MUL NOT AND SWAP1 DUP4 PUSH20 0xFFFFFFFFFFFFFFFFFFFFFFFFFFFFFFFFFFFFFFFF AND MUL OR SWAP1 SSTORE POP PUSH1 0xC0 DUP3 ADD MLOAD DUP2 PUSH1 0x6 ADD SSTORE PUSH1 0xE0 DUP3 ADD MLOAD DUP2 PUSH1 0x7 ADD PUSH1 0x0 PUSH2 0x100 EXP DUP2 SLOAD DUP2 PUSH1 0xFF MUL NOT AND SWAP1 DUP4 ISZERO ISZERO MUL OR SWAP1 SSTORE POP SWAP1 POP POP PUSH1 0x1 PUSH1 0x2 PUSH1 0x0 DUP10 DUP2 MSTORE PUSH1 0x20 ADD SWAP1 DUP2 MSTORE PUSH1 0x20 ADD PUSH1 0x0 KECCAK256 PUSH1 0x0 PUSH2 0x100 EXP DUP2 SLOAD DUP2 PUSH1 0xFF MUL NOT AND SWAP1 DUP4 ISZERO ISZERO MUL OR SWAP1 SSTORE POP DUP7 PUSH32 0xFE21114808B55D6A54BEC91C46A20E8DFE7F033EDF3F058A5012A829D8D0E3CA DUP8 DUP8 DUP8 CALLER PUSH1 0x40 MLOAD PUSH2 0xB45 SWAP5 SWAP4 SWAP3 SWAP2 SWAP1 PUSH2 0x2966 JUMP JUMPDEST PUSH1 0x40 MLOAD DUP1 SWAP2 SUB SWAP1 LOG2 POP POP POP POP POP POP POP JUMP JUMPDEST PUSH1 0x3 PUSH1 0x0 DUP3 DUP2 MSTORE PUSH1 0x20 ADD SWAP1 DUP2 MSTORE PUSH1 0x20 ADD PUSH1 0x0 KECCAK256 PUSH1 0x0 SWAP1 SLOAD SWAP1 PUSH2 0x100 EXP SWAP1 DIV PUSH1 0xFF AND PUSH2 0xBB6 JUMPI PUSH1 0x40 MLOAD PUSH32 0x8C379A000000000000000000000000000000000000000000000000000000000 DUP2 MSTORE PUSH1 0x4 ADD PUSH2 0xBAD SWAP1 PUSH2 0x29F7 JUMP JUMPDEST PUSH1 0x40 MLOAD DUP1 SWAP2 SUB SWAP1 REVERT JUMPDEST PUSH1 0x0 PUSH1 0x4 PUSH1 0x0 DUP4 DUP2 MSTORE PUSH1 0x20 ADD SWAP1 DUP2 MSTORE PUSH1 0x20 ADD PUSH1 0x0 KECCAK256 SLOAD SWAP1 POP DUP1 CALLVALUE EQ PUSH2 0xC10 JUMPI PUSH1 0x40 MLOAD PUSH32 0x8C379A000000000000000000000000000000000000000000000000000000000 DUP2 MSTORE PUSH1 0x4 ADD PUSH2 0xC07 SWAP1 PUSH2 0x2A63 JUMP JUMPDEST PUSH1 0x40 MLOAD DUP1 SWAP2 SUB SWAP1 REVERT JUMPDEST PUSH1 0x0 DUP1 PUSH1 0x0 DUP1 SLOAD SWAP1 PUSH2 0x100 EXP SWAP1 DIV PUSH20 0xFFFFFFFFFFFFFFFFFFFFFFFFFFFFFFFFFFFFFFFF AND PUSH20 0xFFFFFFFFFFFFFFFFFFFFFFFFFFFFFFFFFFFFFFFF AND PUSH4 0x82260F35 DUP6 PUSH1 0x40 MLOAD DUP3 PUSH4 0xFFFFFFFF AND PUSH1 0xE0 SHL DUP2 MSTORE PUSH1 0x4 ADD PUSH2 0xC6C SWAP2 SWAP1 PUSH2 0x1E94 JUMP JUMPDEST PUSH1 0x0 PUSH1 0x40 MLOAD DUP1 DUP4 SUB DUP2 DUP7 GAS STATICCALL ISZERO DUP1 ISZERO PUSH2 0xC89 JUMPI RETURNDATASIZE PUSH1 0x0 DUP1 RETURNDATACOPY RETURNDATASIZE PUSH1 0x0 REVERT JUMPDEST POP POP POP POP PUSH1 0x40 MLOAD RETURNDATASIZE PUSH1 0x0 DUP3 RETURNDATACOPY RETURNDATASIZE PUSH1 0x1F NOT PUSH1 0x1F DUP3 ADD AND DUP3 ADD DUP1 PUSH1 0x40 MSTORE POP DUP2 ADD SWAP1 PUSH2 0xCB2 SWAP2 SWAP1 PUSH2 0x2331 JUMP JUMPDEST POP SWAP3 POP SWAP3 POP POP DUP1 PUSH2 0xCF8 JUMPI PUSH1 0x40 MLOAD PUSH32 0x8C379A000000000000000000000000000000000000000000000000000000000 DUP2 MSTORE PUSH1 0x4 ADD PUSH2 0xCEF SWAP1 PUSH2 0x2400 JUMP JUMPDEST PUSH1 0x40 MLOAD DUP1 SWAP2 SUB SWAP1 REVERT JUMPDEST DUP2 PUSH20 0xFFFFFFFFFFFFFFFFFFFFFFFFFFFFFFFFFFFFFFFF AND CALLER PUSH20 0xFFFFFFFFFFFFFFFFFFFFFFFFFFFFFFFFFFFFFFFF AND SUB PUSH2 0xD66 JUMPI PUSH1 0x40 MLOAD PUSH32 0x8C379A000000000000000000000000000000000000000000000000000000000 DUP2 MSTORE PUSH1 0x4 ADD PUSH2 0xD5D SWAP1 PUSH2 0x2ACF JUMP JUMPDEST PUSH1 0x40 MLOAD DUP1 SWAP2 SUB SWAP1 REVERT JUMPDEST PUSH1 0x0 PUSH1 0x3 PUSH1 0x0 DUP7 DUP2 MSTORE PUSH1 0x20 ADD SWAP1 DUP2 MSTORE PUSH1 0x20 ADD PUSH1 0x0 KECCAK256 PUSH1 0x0 PUSH2 0x100 EXP DUP2 SLOAD DUP2 PUSH1 0xFF MUL NOT AND SWAP1 DUP4 ISZERO ISZERO MUL OR SWAP1 SSTORE POP PUSH1 0x0 PUSH1 0x4 PUSH1 0x0 DUP7 DUP2 MSTORE PUSH1 0x20 ADD SWAP1 DUP2 MSTORE PUSH1 0x20 ADD PUSH1 0x0 KECCAK256 DUP2 SWAP1 SSTORE POP PUSH1 0x0 PUSH1 0x5 PUSH1 0x0 DUP5 PUSH20 0xFFFFFFFFFFFFFFFFFFFFFFFFFFFFFFFFFFFFFFFF AND PUSH20 0xFFFFFFFFFFFFFFFFFFFFFFFFFFFFFFFFFFFFFFFF AND DUP2 MSTORE PUSH1 0x20 ADD SWAP1 DUP2 MSTORE PUSH1 0x20 ADD PUSH1 0x0 KECCAK256 SWAP1 POP PUSH1 0x0 JUMPDEST DUP2 DUP1 SLOAD SWAP1 POP DUP2 LT ISZERO PUSH2 0xEA9 JUMPI DUP6 DUP3 DUP3 DUP2 SLOAD DUP2 LT PUSH2 0xE11 JUMPI PUSH2 0xE10 PUSH2 0x24B2 JUMP JUMPDEST JUMPDEST SWAP1 PUSH1 0x0 MSTORE PUSH1 0x20 PUSH1 0x0 KECCAK256 ADD SLOAD SUB PUSH2 0xE9C JUMPI DUP2 PUSH1 0x1 DUP4 DUP1 SLOAD SWAP1 POP PUSH2 0xE33 SWAP2 SWAP1 PUSH2 0x2510 JUMP JUMPDEST DUP2 SLOAD DUP2 LT PUSH2 0xE44 JUMPI PUSH2 0xE43 PUSH2 0x24B2 JUMP JUMPDEST JUMPDEST SWAP1 PUSH1 0x0 MSTORE PUSH1 0x20 PUSH1 0x0 KECCAK256 ADD SLOAD DUP3 DUP3 DUP2 SLOAD DUP2 LT PUSH2 0xE62 JUMPI PUSH2 0xE61 PUSH2 0x24B2 JUMP JUMPDEST JUMPDEST SWAP1 PUSH1 0x0 MSTORE PUSH1 0x20 PUSH1 0x0 KECCAK256 ADD DUP2 SWAP1 SSTORE POP DUP2 DUP1 SLOAD DUP1 PUSH2 0xE81 JUMPI PUSH2 0xE80 PUSH2 0x2544 JUMP JUMPDEST JUMPDEST PUSH1 0x1 SWAP1 SUB DUP2 DUP2 SWAP1 PUSH1 0x0 MSTORE PUSH1 0x20 PUSH1 0x0 KECCAK256 ADD PUSH1 0x0 SWAP1 SSTORE SWAP1 SSTORE PUSH2 0xEA9 JUMP JUMPDEST DUP1 DUP1 PUSH1 0x1 ADD SWAP2 POP POP PUSH2 0xDF1 JUMP JUMPDEST POP DUP3 PUSH20 0xFFFFFFFFFFFFFFFFFFFFFFFFFFFFFFFFFFFFFFFF AND PUSH2 0x8FC CALLVALUE SWAP1 DUP2 ISZERO MUL SWAP1 PUSH1 0x40 MLOAD PUSH1 0x0 PUSH1 0x40 MLOAD DUP1 DUP4 SUB DUP2 DUP6 DUP9 DUP9 CALL SWAP4 POP POP POP POP ISZERO DUP1 ISZERO PUSH2 0xEF0 JUMPI RETURNDATASIZE PUSH1 0x0 DUP1 RETURNDATACOPY RETURNDATASIZE PUSH1 0x0 REVERT JUMPDEST POP PUSH1 0x0 DUP1 SLOAD SWAP1 PUSH2 0x100 EXP SWAP1 DIV PUSH20 0xFFFFFFFFFFFFFFFFFFFFFFFFFFFFFFFFFFFFFFFF AND PUSH20 0xFFFFFFFFFFFFFFFFFFFFFFFFFFFFFFFFFFFFFFFF AND PUSH4 0x9036C050 DUP7 CALLER PUSH1 0x40 MLOAD DUP4 PUSH4 0xFFFFFFFF AND PUSH1 0xE0 SHL DUP2 MSTORE PUSH1 0x4 ADD PUSH2 0xF4C SWAP3 SWAP2 SWAP1 PUSH2 0x2AEF JUMP JUMPDEST PUSH1 0x0 PUSH1 0x40 MLOAD DUP1 DUP4 SUB DUP2 PUSH1 0x0 DUP8 DUP1 EXTCODESIZE ISZERO DUP1 ISZERO PUSH2 0xF66 JUMPI PUSH1 0x0 DUP1 REVERT JUMPDEST POP GAS CALL ISZERO DUP1 ISZERO PUSH2 0xF7A JUMPI RETURNDATASIZE PUSH1 0x0 DUP1 RETURNDATACOPY RETURNDATASIZE PUSH1 0x0 REVERT JUMPDEST POP POP POP POP DUP5 PUSH32 0x8562EB94748E30BB0071E932744CE902B460C683474FCB3BFD567FFA16B1AFB2 DUP5 CALLER DUP8 PUSH1 0x40 MLOAD PUSH2 0xFB2 SWAP4 SWAP3 SWAP2 SWAP1 PUSH2 0x2B18 JUMP JUMPDEST PUSH1 0x40 MLOAD DUP1 SWAP2 SUB SWAP1 LOG2 POP POP POP POP POP JUMP JUMPDEST PUSH1 0x3 PUSH1 0x20 MSTORE DUP1 PUSH1 0x0 MSTORE PUSH1 0x40 PUSH1 0x0 KECCAK256 PUSH1 0x0 SWAP2 POP SLOAD SWAP1 PUSH2 0x100 EXP SWAP1 DIV PUSH1 0xFF AND DUP2 JUMP JUMPDEST PUSH1 0x1 PUSH1 0x20 MSTORE DUP1 PUSH1 0x0 MSTORE PUSH1 0x40 PUSH1 0x0 KECCAK256 PUSH1 0x0 SWAP2 POP SWAP1 POP DUP1 PUSH1 0x0 ADD SLOAD SWAP1 DUP1 PUSH1 0x1 ADD SLOAD SWAP1 DUP1 PUSH1 0x2 ADD SLOAD SWAP1 DUP1 PUSH1 0x3 ADD SLOAD SWAP1 DUP1 PUSH1 0x4 ADD PUSH1 0x0 SWAP1 SLOAD SWAP1 PUSH2 0x100 EXP SWAP1 DIV PUSH20 0xFFFFFFFFFFFFFFFFFFFFFFFFFFFFFFFFFFFFFFFF AND SWAP1 DUP1 PUSH1 0x5 ADD PUSH1 0x0 SWAP1 SLOAD SWAP1 PUSH2 0x100 EXP SWAP1 DIV PUSH20 0xFFFFFFFFFFFFFFFFFFFFFFFFFFFFFFFFFFFFFFFF AND SWAP1 DUP1 PUSH1 0x6 ADD SLOAD SWAP1 DUP1 PUSH1 0x7 ADD PUSH1 0x0 SWAP1 SLOAD SWAP1 PUSH2 0x100 EXP SWAP1 DIV PUSH1 0xFF AND SWAP1 POP DUP9 JUMP JUMPDEST PUSH7 0x6A94D74F430000 DUP2 LT ISZERO PUSH2 0x10C0 JUMPI PUSH1 0x40 MLOAD PUSH32 0x8C379A000000000000000000000000000000000000000000000000000000000 DUP2 MSTORE PUSH1 0x4 ADD PUSH2 0x10B7 SWAP1 PUSH2 0x2B9B JUMP JUMPDEST PUSH1 0x40 MLOAD DUP1 SWAP2 SUB SWAP1 REVERT JUMPDEST PUSH1 0x3 PUSH1 0x0 DUP4 DUP2 MSTORE PUSH1 0x20 ADD SWAP1 DUP2 MSTORE PUSH1 0x20 ADD PUSH1 0x0 KECCAK256 PUSH1 0x0 SWAP1 SLOAD SWAP1 PUSH2 0x100 EXP SWAP1 DIV PUSH1 0xFF AND ISZERO PUSH2 0x1121 JUMPI PUSH1 0x40 MLOAD PUSH32 0x8C379A000000000000000000000000000000000000000000000000000000000 DUP2 MSTORE PUSH1 0x4 ADD PUSH2 0x1118 SWAP1 PUSH2 0x2C07 JUMP JUMPDEST PUSH1 0x40 MLOAD DUP1 SWAP2 SUB SWAP1 REVERT JUMPDEST PUSH1 0x2 PUSH1 0x0 DUP4 DUP2 MSTORE PUSH1 0x20 ADD SWAP1 DUP2 MSTORE PUSH1 0x20 ADD PUSH1 0x0 KECCAK256 PUSH1 0x0 SWAP1 SLOAD SWAP1 PUSH2 0x100 EXP SWAP1 DIV PUSH1 0xFF AND ISZERO PUSH2 0x1182 JUMPI PUSH1 0x40 MLOAD PUSH32 0x8C379A000000000000000000000000000000000000000000000000000000000 DUP2 MSTORE PUSH1 0x4 ADD PUSH2 0x1179 SWAP1 PUSH2 0x2C73 JUMP JUMPDEST PUSH1 0x40 MLOAD DUP1 SWAP2 SUB SWAP1 REVERT JUMPDEST PUSH1 0x0 DUP1 PUSH1 0x0 DUP1 PUSH1 0x0 SWAP1 SLOAD SWAP1 PUSH2 0x100 EXP SWAP1 DIV PUSH20 0xFFFFFFFFFFFFFFFFFFFFFFFFFFFFFFFFFFFFFFFF AND PUSH20 0xFFFFFFFFFFFFFFFFFFFFFFFFFFFFFFFFFFFFFFFF AND PUSH4 0x82260F35 DUP7 PUSH1 0x40 MLOAD DUP3 PUSH4 0xFFFFFFFF AND PUSH1 0xE0 SHL DUP2 MSTORE PUSH1 0x4 ADD PUSH2 0x11E1 SWAP2 SWAP1 PUSH2 0x1E94 JUMP JUMPDEST PUSH1 0x0 PUSH1 0x40 MLOAD DUP1 DUP4 SUB DUP2 DUP7 GAS STATICCALL ISZERO DUP1 ISZERO PUSH2 0x11FE JUMPI RETURNDATASIZE PUSH1 0x0 DUP1 RETURNDATACOPY RETURNDATASIZE PUSH1 0x0 REVERT JUMPDEST POP POP POP POP PUSH1 0x40 MLOAD RETURNDATASIZE PUSH1 0x0 DUP3 RETURNDATACOPY RETURNDATASIZE PUSH1 0x1F NOT PUSH1 0x1F DUP3 ADD AND DUP3 ADD DUP1 PUSH1 0x40 MSTORE POP DUP2 ADD SWAP1 PUSH2 0x1227 SWAP2 SWAP1 PUSH2 0x2331 JUMP JUMPDEST SWAP4 POP SWAP4 POP SWAP4 POP POP DUP2 PUSH2 0x126E JUMPI PUSH1 0x40 MLOAD PUSH32 0x8C379A000000000000000000000000000000000000000000000000000000000 DUP2 MSTORE PUSH1 0x4 ADD PUSH2 0x1265 SWAP1 PUSH2 0x2400 JUMP JUMPDEST PUSH1 0x40 MLOAD DUP1 SWAP2 SUB SWAP1 REVERT JUMPDEST CALLER PUSH20 0xFFFFFFFFFFFFFFFFFFFFFFFFFFFFFFFFFFFFFFFF AND DUP4 PUSH20 0xFFFFFFFFFFFFFFFFFFFFFFFFFFFFFFFFFFFFFFFF AND EQ PUSH2 0x12DC JUMPI PUSH1 0x40 MLOAD PUSH32 0x8C379A000000000000000000000000000000000000000000000000000000000 DUP2 MSTORE PUSH1 0x4 ADD PUSH2 0x12D3 SWAP1 PUSH2 0x2492 JUMP JUMPDEST PUSH1 0x40 MLOAD DUP1 SWAP2 SUB SWAP1 REVERT JUMPDEST DUP1 DUP5 LT ISZERO PUSH2 0x131F JUMPI PUSH1 0x40 MLOAD PUSH32 0x8C379A000000000000000000000000000000000000000000000000000000000 DUP2 MSTORE PUSH1 0x4 ADD PUSH2 0x1316 SWAP1 PUSH2 0x2D05 JUMP JUMPDEST PUSH1 0x40 MLOAD DUP1 SWAP2 SUB SWAP1 REVERT JUMPDEST PUSH1 0x1 PUSH1 0x3 PUSH1 0x0 DUP8 DUP2 MSTORE PUSH1 0x20 ADD SWAP1 DUP2 MSTORE PUSH1 0x20 ADD PUSH1 0x0 KECCAK256 PUSH1 0x0 PUSH2 0x100 EXP DUP2 SLOAD DUP2 PUSH1 0xFF MUL NOT AND SWAP1 DUP4 ISZERO ISZERO MUL OR SWAP1 SSTORE POP DUP4 PUSH1 0x4 PUSH1 0x0 DUP8 DUP2 MSTORE PUSH1 0x20 ADD SWAP1 DUP2 MSTORE PUSH1 0x20 ADD PUSH1 0x0 KECCAK256 DUP2 SWAP1 SSTORE POP PUSH1 0x5 PUSH1 0x0 CALLER PUSH20 0xFFFFFFFFFFFFFFFFFFFFFFFFFFFFFFFFFFFFFFFF AND PUSH20 0xFFFFFFFFFFFFFFFFFFFFFFFFFFFFFFFFFFFFFFFF AND DUP2 MSTORE PUSH1 0x20 ADD SWAP1 DUP2 MSTORE PUSH1 0x20 ADD PUSH1 0x0 KECCAK256 DUP6 SWAP1 DUP1 PUSH1 0x1 DUP2 SLOAD ADD DUP1 DUP3 SSTORE DUP1 SWAP2 POP POP PUSH1 0x1 SWAP1 SUB SWAP1 PUSH1 0x0 MSTORE PUSH1 0x20 PUSH1 0x0 KECCAK256 ADD PUSH1 0x0 SWAP1 SWAP2 SWAP1 SWAP2 SWAP1 SWAP2 POP SSTORE DUP5 PUSH1 0x0 PUSH32 0xCC0C9A64FC84375CEEC206F2FC87EB06D3CACAE06967A94D2BA499000EA17617 DUP7 PUSH1 0x40 MLOAD PUSH2 0x13FB SWAP2 SWAP1 PUSH2 0x1E94 JUMP JUMPDEST PUSH1 0x40 MLOAD DUP1 SWAP2 SUB SWAP1 LOG3 POP POP POP POP POP JUMP JUMPDEST PUSH1 0x0 PUSH1 0x1 PUSH1 0x0 DUP4 DUP2 MSTORE PUSH1 0x20 ADD SWAP1 DUP2 MSTORE PUSH1 0x20 ADD PUSH1 0x0 KECCAK256 SWAP1 POP DUP1 PUSH1 0x7 ADD PUSH1 0x0 SWAP1 SLOAD SWAP1 PUSH2 0x100 EXP SWAP1 DIV PUSH1 0xFF AND PUSH2 0x1472 JUMPI PUSH1 0x40 MLOAD PUSH32 0x8C379A000000000000000000000000000000000000000000000000000000000 DUP2 MSTORE PUSH1 0x4 ADD PUSH2 0x1469 SWAP1 PUSH2 0x2D71 JUMP JUMPDEST PUSH1 0x40 MLOAD DUP1 SWAP2 SUB SWAP1 REVERT JUMPDEST CALLER PUSH20 0xFFFFFFFFFFFFFFFFFFFFFFFFFFFFFFFFFFFFFFFF AND DUP2 PUSH1 0x4 ADD PUSH1 0x0 SWAP1 SLOAD SWAP1 PUSH2 0x100 EXP SWAP1 DIV PUSH20 0xFFFFFFFFFFFFFFFFFFFFFFFFFFFFFFFFFFFFFFFF AND PUSH20 0xFFFFFFFFFFFFFFFFFFFFFFFFFFFFFFFFFFFFFFFF AND EQ PUSH2 0x1504 JUMPI PUSH1 0x40 MLOAD PUSH32 0x8C379A000000000000000000000000000000000000000000000000000000000 DUP2 MSTORE PUSH1 0x4 ADD PUSH2 0x14FB SWAP1 PUSH2 0x2E03 JUMP JUMPDEST PUSH1 0x40 MLOAD DUP1 SWAP2 SUB SWAP1 REVERT JUMPDEST PUSH1 0x0 DUP2 PUSH1 0x7 ADD PUSH1 0x0 PUSH2 0x100 EXP DUP2 SLOAD DUP2 PUSH1 0xFF MUL NOT AND SWAP1 DUP4 ISZERO ISZERO MUL OR SWAP1 SSTORE POP PUSH1 0x0 PUSH1 0x2 PUSH1 0x0 DUP5 DUP2 MSTORE PUSH1 0x20 ADD SWAP1 DUP2 MSTORE PUSH1 0x20 ADD PUSH1 0x0 KECCAK256 PUSH1 0x0 PUSH2 0x100 EXP DUP2 SLOAD DUP2 PUSH1 0xFF MUL NOT AND SWAP1 DUP4 ISZERO ISZERO MUL OR SWAP1 SSTORE POP PUSH1 0x0 PUSH20 0xFFFFFFFFFFFFFFFFFFFFFFFFFFFFFFFFFFFFFFFF AND DUP2 PUSH1 0x5 ADD PUSH1 0x0 SWAP1 SLOAD SWAP1 PUSH2 0x100 EXP SWAP1 DIV PUSH20 0xFFFFFFFFFFFFFFFFFFFFFFFFFFFFFFFFFFFFFFFF AND PUSH20 0xFFFFFFFFFFFFFFFFFFFFFFFFFFFFFFFFFFFFFFFF AND EQ PUSH2 0x1615 JUMPI DUP1 PUSH1 0x5 ADD PUSH1 0x0 SWAP1 SLOAD SWAP1 PUSH2 0x100 EXP SWAP1 DIV PUSH20 0xFFFFFFFFFFFFFFFFFFFFFFFFFFFFFFFFFFFFFFFF AND PUSH20 0xFFFFFFFFFFFFFFFFFFFFFFFFFFFFFFFFFFFFFFFF AND PUSH2 0x8FC DUP3 PUSH1 0x6 ADD SLOAD SWAP1 DUP2 ISZERO MUL SWAP1 PUSH1 0x40 MLOAD PUSH1 0x0 PUSH1 0x40 MLOAD DUP1 DUP4 SUB DUP2 DUP6 DUP9 DUP9 CALL SWAP4 POP POP POP POP ISZERO DUP1 ISZERO PUSH2 0x1613 JUMPI RETURNDATASIZE PUSH1 0x0 DUP1 RETURNDATACOPY RETURNDATASIZE PUSH1 0x0 REVERT JUMPDEST POP JUMPDEST DUP2 PUSH32 0x10AC9F0BB365B5D22D7BEC500408692F23FDF83EADFEC71615EF88B4C1134F0E CALLER PUSH1 0x40 MLOAD PUSH2 0x1645 SWAP2 SWAP1 PUSH2 0x2573 JUMP JUMPDEST PUSH1 0x40 MLOAD DUP1 SWAP2 SUB SWAP1 LOG2 POP POP JUMP JUMPDEST PUSH1 0x0 PUSH1 0x1 PUSH1 0x0 DUP4 DUP2 MSTORE PUSH1 0x20 ADD SWAP1 DUP2 MSTORE PUSH1 0x20 ADD PUSH1 0x0 KECCAK256 SWAP1 POP DUP1 PUSH1 0x7 ADD PUSH1 0x0 SWAP1 SLOAD SWAP1 PUSH2 0x100 EXP SWAP1 DIV PUSH1 0xFF AND PUSH2 0x16B9 JUMPI PUSH1 0x40 MLOAD PUSH32 0x8C379A000000000000000000000000000000000000000000000000000000000 DUP2 MSTORE PUSH1 0x4 ADD PUSH2 0x16B0 SWAP1 PUSH2 0x2D71 JUMP JUMPDEST PUSH1 0x40 MLOAD DUP1 SWAP2 SUB SWAP1 REVERT JUMPDEST DUP1 PUSH1 0x2 ADD SLOAD TIMESTAMP LT ISZERO PUSH2 0x1700 JUMPI PUSH1 0x40 MLOAD PUSH32 0x8C379A000000000000000000000000000000000000000000000000000000000 DUP2 MSTORE PUSH1 0x4 ADD PUSH2 0x16F7 SWAP1 PUSH2 0x2E6F JUMP JUMPDEST PUSH1 0x40 MLOAD DUP1 SWAP2 SUB SWAP1 REVERT JUMPDEST DUP1 PUSH1 0x3 ADD SLOAD TIMESTAMP GT ISZERO PUSH2 0x1747 JUMPI PUSH1 0x40 MLOAD PUSH32 0x8C379A000000000000000000000000000000000000000000000000000000000 DUP2 MSTORE PUSH1 0x4 ADD PUSH2 0x173E SWAP1 PUSH2 0x2EDB JUMP JUMPDEST PUSH1 0x40 MLOAD DUP1 SWAP2 SUB SWAP1 REVERT JUMPDEST DUP1 PUSH1 0x6 ADD SLOAD CALLVALUE GT PUSH2 0x175B DUP3 PUSH1 0x6 ADD SLOAD PUSH2 0x1CAE JUMP JUMPDEST PUSH1 0x40 MLOAD PUSH1 0x20 ADD PUSH2 0x176B SWAP2 SWAP1 PUSH2 0x2FB4 JUMP JUMPDEST PUSH1 0x40 MLOAD PUSH1 0x20 DUP2 DUP4 SUB SUB DUP2 MSTORE SWAP1 PUSH1 0x40 MSTORE SWAP1 PUSH2 0x17BB JUMPI PUSH1 0x40 MLOAD PUSH32 0x8C379A000000000000000000000000000000000000000000000000000000000 DUP2 MSTORE PUSH1 0x4 ADD PUSH2 0x17B2 SWAP2 SWAP1 PUSH2 0x300F JUMP JUMPDEST PUSH1 0x40 MLOAD DUP1 SWAP2 SUB SWAP1 REVERT JUMPDEST POP DUP1 PUSH1 0x1 ADD SLOAD CALLVALUE GT PUSH2 0x1802 JUMPI PUSH1 0x40 MLOAD PUSH32 0x8C379A000000000000000000000000000000000000000000000000000000000 DUP2 MSTORE PUSH1 0x4 ADD PUSH2 0x17F9 SWAP1 PUSH2 0x30A3 JUMP JUMPDEST PUSH1 0x40 MLOAD DUP1 SWAP2 SUB SWAP1 REVERT JUMPDEST PUSH1 0x0 PUSH20 0xFFFFFFFFFFFFFFFFFFFFFFFFFFFFFFFFFFFFFFFF AND DUP2 PUSH1 0x5 ADD PUSH1 0x0 SWAP1 SLOAD SWAP1 PUSH2 0x100 EXP SWAP1 DIV PUSH20 0xFFFFFFFFFFFFFFFFFFFFFFFFFFFFFFFFFFFFFFFF AND PUSH20 0xFFFFFFFFFFFFFFFFFFFFFFFFFFFFFFFFFFFFFFFF AND EQ PUSH2 0x18CA JUMPI DUP1 PUSH1 0x5 ADD PUSH1 0x0 SWAP1 SLOAD SWAP1 PUSH2 0x100 EXP SWAP1 DIV PUSH20 0xFFFFFFFFFFFFFFFFFFFFFFFFFFFFFFFFFFFFFFFF AND PUSH20 0xFFFFFFFFFFFFFFFFFFFFFFFFFFFFFFFFFFFFFFFF AND PUSH2 0x8FC DUP3 PUSH1 0x6 ADD SLOAD SWAP1 DUP2 ISZERO MUL SWAP1 PUSH1 0x40 MLOAD PUSH1 0x0 PUSH1 0x40 MLOAD DUP1 DUP4 SUB DUP2 DUP6 DUP9 DUP9 CALL SWAP4 POP POP POP POP ISZERO DUP1 ISZERO PUSH2 0x18C8 JUMPI RETURNDATASIZE PUSH1 0x0 DUP1 RETURNDATACOPY RETURNDATASIZE PUSH1 0x0 REVERT JUMPDEST POP JUMPDEST CALLER DUP2 PUSH1 0x5 ADD PUSH1 0x0 PUSH2 0x100 EXP DUP2 SLOAD DUP2 PUSH20 0xFFFFFFFFFFFFFFFFFFFFFFFFFFFFFFFFFFFFFFFF MUL NOT AND SWAP1 DUP4 PUSH20 0xFFFFFFFFFFFFFFFFFFFFFFFFFFFFFFFFFFFFFFFF AND MUL OR SWAP1 SSTORE POP CALLVALUE DUP2 PUSH1 0x6 ADD DUP2 SWAP1 SSTORE POP DUP2 PUSH32 0xE54EFF26401BF69B81B26F60BD85EF47F5D85275C1D268D84F68D6897431C47 CALLER CALLVALUE PUSH1 0x40 MLOAD PUSH2 0x1948 SWAP3 SWAP2 SWAP1 PUSH2 0x30C3 JUMP JUMPDEST PUSH1 0x40 MLOAD DUP1 SWAP2 SUB SWAP1 LOG2 POP POP JUMP JUMPDEST PUSH1 0x0 DUP1 SLOAD SWAP1 PUSH2 0x100 EXP SWAP1 DIV PUSH20 0xFFFFFFFFFFFFFFFFFFFFFFFFFFFFFFFFFFFFFFFF AND DUP2 JUMP JUMPDEST PUSH1 0x2 PUSH1 0x20 MSTORE DUP1 PUSH1 0x0 MSTORE PUSH1 0x40 PUSH1 0x0 KECCAK256 PUSH1 0x0 SWAP2 POP SLOAD SWAP1 PUSH2 0x100 EXP SWAP1 DIV PUSH1 0xFF AND DUP2 JUMP JUMPDEST PUSH1 0x0 PUSH1 0x1 PUSH1 0x0 DUP4 DUP2 MSTORE PUSH1 0x20 ADD SWAP1 DUP2 MSTORE PUSH1 0x20 ADD PUSH1 0x0 KECCAK256 SWAP1 POP DUP1 PUSH1 0x7 ADD PUSH1 0x0 SWAP1 SLOAD SWAP1 PUSH2 0x100 EXP SWAP1 DIV PUSH1 0xFF AND PUSH2 0x1A00 JUMPI PUSH1 0x40 MLOAD PUSH32 0x8C379A000000000000000000000000000000000000000000000000000000000 DUP2 MSTORE PUSH1 0x4 ADD PUSH2 0x19F7 SWAP1 PUSH2 0x2D71 JUMP JUMPDEST PUSH1 0x40 MLOAD DUP1 SWAP2 SUB SWAP1 REVERT JUMPDEST DUP1 PUSH1 0x3 ADD SLOAD TIMESTAMP GT PUSH2 0x1A46 JUMPI PUSH1 0x40 MLOAD PUSH32 0x8C379A000000000000000000000000000000000000000000000000000000000 DUP2 MSTORE PUSH1 0x4 ADD PUSH2 0x1A3D SWAP1 PUSH2 0x3138 JUMP JUMPDEST PUSH1 0x40 MLOAD DUP1 SWAP2 SUB SWAP1 REVERT JUMPDEST PUSH1 0x0 DUP2 PUSH1 0x7 ADD PUSH1 0x0 PUSH2 0x100 EXP DUP2 SLOAD DUP2 PUSH1 0xFF MUL NOT AND SWAP1 DUP4 ISZERO ISZERO MUL OR SWAP1 SSTORE POP PUSH1 0x0 PUSH1 0x2 PUSH1 0x0 DUP5 DUP2 MSTORE PUSH1 0x20 ADD SWAP1 DUP2 MSTORE PUSH1 0x20 ADD PUSH1 0x0 KECCAK256 PUSH1 0x0 PUSH2 0x100 EXP DUP2 SLOAD DUP2 PUSH1 0xFF MUL NOT AND SWAP1 DUP4 ISZERO ISZERO MUL OR SWAP1 SSTORE POP PUSH1 0x0 PUSH20 0xFFFFFFFFFFFFFFFFFFFFFFFFFFFFFFFFFFFFFFFF AND DUP2 PUSH1 0x5 ADD PUSH1 0x0 SWAP1 SLOAD SWAP1 PUSH2 0x100 EXP SWAP1 DIV PUSH20 0xFFFFFFFFFFFFFFFFFFFFFFFFFFFFFFFFFFFFFFFF AND PUSH20 0xFFFFFFFFFFFFFFFFFFFFFFFFFFFFFFFFFFFFFFFF AND EQ PUSH2 0x1C6E JUMPI PUSH1 0x0 DUP1 SLOAD SWAP1 PUSH2 0x100 EXP SWAP1 DIV PUSH20 0xFFFFFFFFFFFFFFFFFFFFFFFFFFFFFFFFFFFFFFFF AND PUSH20 0xFFFFFFFFFFFFFFFFFFFFFFFFFFFFFFFFFFFFFFFF AND PUSH4 0x9036C050 DUP4 DUP4 PUSH1 0x5 ADD PUSH1 0x0 SWAP1 SLOAD SWAP1 PUSH2 0x100 EXP SWAP1 DIV PUSH20 0xFFFFFFFFFFFFFFFFFFFFFFFFFFFFFFFFFFFFFFFF AND PUSH1 0x40 MLOAD DUP4 PUSH4 0xFFFFFFFF AND PUSH1 0xE0 SHL DUP2 MSTORE PUSH1 0x4 ADD PUSH2 0x1B66 SWAP3 SWAP2 SWAP1 PUSH2 0x2AEF JUMP JUMPDEST PUSH1 0x0 PUSH1 0x40 MLOAD DUP1 DUP4 SUB DUP2 PUSH1 0x0 DUP8 DUP1 EXTCODESIZE ISZERO DUP1 ISZERO PUSH2 0x1B80 JUMPI PUSH1 0x0 DUP1 REVERT JUMPDEST POP GAS CALL ISZERO DUP1 ISZERO PUSH2 0x1B94 JUMPI RETURNDATASIZE PUSH1 0x0 DUP1 RETURNDATACOPY RETURNDATASIZE PUSH1 0x0 REVERT JUMPDEST POP POP POP POP DUP1 PUSH1 0x4 ADD PUSH1 0x0 SWAP1 SLOAD SWAP1 PUSH2 0x100 EXP SWAP1 DIV PUSH20 0xFFFFFFFFFFFFFFFFFFFFFFFFFFFFFFFFFFFFFFFF AND PUSH20 0xFFFFFFFFFFFFFFFFFFFFFFFFFFFFFFFFFFFFFFFF AND PUSH2 0x8FC DUP3 PUSH1 0x6 ADD SLOAD SWAP1 DUP2 ISZERO MUL SWAP1 PUSH1 0x40 MLOAD PUSH1 0x0 PUSH1 0x40 MLOAD DUP1 DUP4 SUB DUP2 DUP6 DUP9 DUP9 CALL SWAP4 POP POP POP POP ISZERO DUP1 ISZERO PUSH2 0x1C06 JUMPI RETURNDATASIZE PUSH1 0x0 DUP1 RETURNDATACOPY RETURNDATASIZE PUSH1 0x0 REVERT JUMPDEST POP DUP2 PUSH32 0x4D9113A1377D665EAA1F9168A9C9080F2E488CB820B10149DE3D6D2E0F2780C7 DUP3 PUSH1 0x5 ADD PUSH1 0x0 SWAP1 SLOAD SWAP1 PUSH2 0x100 EXP SWAP1 DIV PUSH20 0xFFFFFFFFFFFFFFFFFFFFFFFFFFFFFFFFFFFFFFFF AND DUP4 PUSH1 0x6 ADD SLOAD PUSH1 0x40 MLOAD PUSH2 0x1C61 SWAP3 SWAP2 SWAP1 PUSH2 0x30C3 JUMP JUMPDEST PUSH1 0x40 MLOAD DUP1 SWAP2 SUB SWAP1 LOG2 PUSH2 0x1CAA JUMP JUMPDEST DUP2 PUSH32 0x4D9113A1377D665EAA1F9168A9C9080F2E488CB820B10149DE3D6D2E0F2780C7 PUSH1 0x0 DUP1 PUSH1 0x40 MLOAD PUSH2 0x1CA1 SWAP3 SWAP2 SWAP1 PUSH2 0x3193 JUMP JUMPDEST PUSH1 0x40 MLOAD DUP1 SWAP2 SUB SWAP1 LOG2 JUMPDEST POP POP JUMP JUMPDEST PUSH1 0x60 PUSH1 0x0 DUP3 SUB PUSH2 0x1CF5 JUMPI PUSH1 0x40 MLOAD DUP1 PUSH1 0x40 ADD PUSH1 0x40 MSTORE DUP1 PUSH1 0x1 DUP2 MSTORE PUSH1 0x20 ADD PUSH32 0x3000000000000000000000000000000000000000000000000000000000000000 DUP2 MSTORE POP SWAP1 POP PUSH2 0x1E09 JUMP JUMPDEST PUSH1 0x0 DUP3 SWAP1 POP PUSH1 0x0 JUMPDEST PUSH1 0x0 DUP3 EQ PUSH2 0x1D27 JUMPI DUP1 DUP1 PUSH2 0x1D10 SWAP1 PUSH2 0x31BC JUMP JUMPDEST SWAP2 POP POP PUSH1 0xA DUP3 PUSH2 0x1D20 SWAP2 SWAP1 PUSH2 0x3233 JUMP JUMPDEST SWAP2 POP PUSH2 0x1CFD JUMP JUMPDEST PUSH1 0x0 DUP2 PUSH8 0xFFFFFFFFFFFFFFFF DUP2 GT ISZERO PUSH2 0x1D43 JUMPI PUSH2 0x1D42 PUSH2 0x217E JUMP JUMPDEST JUMPDEST PUSH1 0x40 MLOAD SWAP1 DUP1 DUP3 MSTORE DUP1 PUSH1 0x1F ADD PUSH1 0x1F NOT AND PUSH1 0x20 ADD DUP3 ADD PUSH1 0x40 MSTORE DUP1 ISZERO PUSH2 0x1D75 JUMPI DUP2 PUSH1 0x20 ADD PUSH1 0x1 DUP3 MUL DUP1 CALLDATASIZE DUP4 CALLDATACOPY DUP1 DUP3 ADD SWAP2 POP POP SWAP1 POP JUMPDEST POP SWAP1 POP JUMPDEST PUSH1 0x0 DUP6 EQ PUSH2 0x1E02 JUMPI PUSH1 0x1 DUP3 PUSH2 0x1D8E SWAP2 SWAP1 PUSH2 0x2510 JUMP JUMPDEST SWAP2 POP PUSH1 0xA DUP6 PUSH2 0x1D9D SWAP2 SWAP1 PUSH2 0x3264 JUMP JUMPDEST PUSH1 0x30 PUSH2 0x1DA9 SWAP2 SWAP1 PUSH2 0x3295 JUMP JUMPDEST PUSH1 0xF8 SHL DUP2 DUP4 DUP2 MLOAD DUP2 LT PUSH2 0x1DBF JUMPI PUSH2 0x1DBE PUSH2 0x24B2 JUMP JUMPDEST JUMPDEST PUSH1 0x20 ADD ADD SWAP1 PUSH31 0xFFFFFFFFFFFFFFFFFFFFFFFFFFFFFFFFFFFFFFFFFFFFFFFFFFFFFFFFFFFFFF NOT AND SWAP1 DUP2 PUSH1 0x0 BYTE SWAP1 MSTORE8 POP PUSH1 0xA DUP6 PUSH2 0x1DFB SWAP2 SWAP1 PUSH2 0x3233 JUMP JUMPDEST SWAP5 POP PUSH2 0x1D79 JUMP JUMPDEST DUP1 SWAP4 POP POP POP POP JUMPDEST SWAP2 SWAP1 POP JUMP JUMPDEST PUSH1 0x0 PUSH1 0x40 MLOAD SWAP1 POP SWAP1 JUMP JUMPDEST PUSH1 0x0 DUP1 REVERT JUMPDEST PUSH1 0x0 DUP1 REVERT JUMPDEST PUSH1 0x0 DUP2 SWAP1 POP SWAP2 SWAP1 POP JUMP JUMPDEST PUSH2 0x1E35 DUP2 PUSH2 0x1E22 JUMP JUMPDEST DUP2 EQ PUSH2 0x1E40 JUMPI PUSH1 0x0 DUP1 REVERT JUMPDEST POP JUMP JUMPDEST PUSH1 0x0 DUP2 CALLDATALOAD SWAP1 POP PUSH2 0x1E52 DUP2 PUSH2 0x1E2C JUMP JUMPDEST SWAP3 SWAP2 POP POP JUMP JUMPDEST PUSH1 0x0 PUSH1 0x20 DUP3 DUP5 SUB SLT ISZERO PUSH2 0x1E6E JUMPI PUSH2 0x1E6D PUSH2 0x1E18 JUMP JUMPDEST JUMPDEST PUSH1 0x0 PUSH2 0x1E7C DUP5 DUP3 DUP6 ADD PUSH2 0x1E43 JUMP JUMPDEST SWAP2 POP POP SWAP3 SWAP2 POP POP JUMP JUMPDEST PUSH2 0x1E8E DUP2 PUSH2 0x1E22 JUMP JUMPDEST DUP3 MSTORE POP POP JUMP JUMPDEST PUSH1 0x0 PUSH1 0x20 DUP3 ADD SWAP1 POP PUSH2 0x1EA9 PUSH1 0x0 DUP4 ADD DUP5 PUSH2 0x1E85 JUMP JUMPDEST SWAP3 SWAP2 POP POP JUMP JUMPDEST PUSH1 0x0 DUP1 PUSH1 0x0 DUP1 PUSH1 0x80 DUP6 DUP8 SUB SLT ISZERO PUSH2 0x1EC9 JUMPI PUSH2 0x1EC8 PUSH2 0x1E18 JUMP JUMPDEST JUMPDEST PUSH1 0x0 PUSH2 0x1ED7 DUP8 DUP3 DUP9 ADD PUSH2 0x1E43 JUMP JUMPDEST SWAP5 POP POP PUSH1 0x20 PUSH2 0x1EE8 DUP8 DUP3 DUP9 ADD PUSH2 0x1E43 JUMP JUMPDEST SWAP4 POP POP PUSH1 0x40 PUSH2 0x1EF9 DUP8 DUP3 DUP9 ADD PUSH2 0x1E43 JUMP JUMPDEST SWAP3 POP POP PUSH1 0x60 PUSH2 0x1F0A DUP8 DUP3 DUP9 ADD PUSH2 0x1E43 JUMP JUMPDEST SWAP2 POP POP SWAP3 SWAP6 SWAP2 SWAP5 POP SWAP3 POP JUMP JUMPDEST PUSH1 0x0 DUP2 ISZERO ISZERO SWAP1 POP SWAP2 SWAP1 POP JUMP JUMPDEST PUSH2 0x1F2B DUP2 PUSH2 0x1F16 JUMP JUMPDEST DUP3 MSTORE POP POP JUMP JUMPDEST PUSH1 0x0 PUSH1 0x20 DUP3 ADD SWAP1 POP PUSH2 0x1F46 PUSH1 0x0 DUP4 ADD DUP5 PUSH2 0x1F22 JUMP JUMPDEST SWAP3 SWAP2 POP POP JUMP JUMPDEST PUSH1 0x0 PUSH20 0xFFFFFFFFFFFFFFFFFFFFFFFFFFFFFFFFFFFFFFFF DUP3 AND SWAP1 POP SWAP2 SWAP1 POP JUMP JUMPDEST PUSH1 0x0 PUSH2 0x1F77 DUP3 PUSH2 0x1F4C JUMP JUMPDEST SWAP1 POP SWAP2 SWAP1 POP JUMP JUMPDEST PUSH2 0x1F87 DUP2 PUSH2 0x1F6C JUMP JUMPDEST DUP3 MSTORE POP POP JUMP JUMPDEST PUSH1 0x0 PUSH2 0x1F98 DUP3 PUSH2 0x1F4C JUMP JUMPDEST SWAP1 POP SWAP2 SWAP1 POP JUMP JUMPDEST PUSH2 0x1FA8 DUP2 PUSH2 0x1F8D JUMP JUMPDEST DUP3 MSTORE POP POP JUMP JUMPDEST PUSH1 0x0 PUSH2 0x100 DUP3 ADD SWAP1 POP PUSH2 0x1FC4 PUSH1 0x0 DUP4 ADD DUP12 PUSH2 0x1E85 JUMP JUMPDEST PUSH2 0x1FD1 PUSH1 0x20 DUP4 ADD DUP11 PUSH2 0x1E85 JUMP JUMPDEST PUSH2 0x1FDE PUSH1 0x40 DUP4 ADD DUP10 PUSH2 0x1E85 JUMP JUMPDEST PUSH2 0x1FEB PUSH1 0x60 DUP4 ADD DUP9 PUSH2 0x1E85 JUMP JUMPDEST PUSH2 0x1FF8 PUSH1 0x80 DUP4 ADD DUP8 PUSH2 0x1F7E JUMP JUMPDEST PUSH2 0x2005 PUSH1 0xA0 DUP4 ADD DUP7 PUSH2 0x1F9F JUMP JUMPDEST PUSH2 0x2012 PUSH1 0xC0 DUP4 ADD DUP6 PUSH2 0x1E85 JUMP JUMPDEST PUSH2 0x201F PUSH1 0xE0 DUP4 ADD DUP5 PUSH2 0x1F22 JUMP JUMPDEST SWAP10 SWAP9 POP POP POP POP POP POP POP POP POP JUMP JUMPDEST PUSH1 0x0 DUP1 PUSH1 0x40 DUP4 DUP6 SUB SLT ISZERO PUSH2 0x2043 JUMPI PUSH2 0x2042 PUSH2 0x1E18 JUMP JUMPDEST JUMPDEST PUSH1 0x0 PUSH2 0x2051 DUP6 DUP3 DUP7 ADD PUSH2 0x1E43 JUMP JUMPDEST SWAP3 POP POP PUSH1 0x20 PUSH2 0x2062 DUP6 DUP3 DUP7 ADD PUSH2 0x1E43 JUMP JUMPDEST SWAP2 POP POP SWAP3 POP SWAP3 SWAP1 POP JUMP JUMPDEST PUSH1 0x0 DUP2 SWAP1 POP SWAP2 SWAP1 POP JUMP JUMPDEST PUSH1 0x0 PUSH2 0x2091 PUSH2 0x208C PUSH2 0x2087 DUP5 PUSH2 0x1F4C JUMP JUMPDEST PUSH2 0x206C JUMP JUMPDEST PUSH2 0x1F4C JUMP JUMPDEST SWAP1 POP SWAP2 SWAP1 POP JUMP JUMPDEST PUSH1 0x0 PUSH2 0x20A3 DUP3 PUSH2 0x2076 JUMP JUMPDEST SWAP1 POP SWAP2 SWAP1 POP JUMP JUMPDEST PUSH1 0x0 PUSH2 0x20B5 DUP3 PUSH2 0x2098 JUMP JUMPDEST SWAP1 POP SWAP2 SWAP1 POP JUMP JUMPDEST PUSH2 0x20C5 DUP2 PUSH2 0x20AA JUMP JUMPDEST DUP3 MSTORE POP POP JUMP JUMPDEST PUSH1 0x0 PUSH1 0x20 DUP3 ADD SWAP1 POP PUSH2 0x20E0 PUSH1 0x0 DUP4 ADD DUP5 PUSH2 0x20BC JUMP JUMPDEST SWAP3 SWAP2 POP POP JUMP JUMPDEST PUSH1 0x0 DUP3 DUP3 MSTORE PUSH1 0x20 DUP3 ADD SWAP1 POP SWAP3 SWAP2 POP POP JUMP JUMPDEST PUSH32 0x4E4654206973206E6F74206C697374656420666F722073616C65000000000000 PUSH1 0x0 DUP3 ADD MSTORE POP JUMP JUMPDEST PUSH1 0x0 PUSH2 0x212D PUSH1 0x1A DUP4 PUSH2 0x20E6 JUMP JUMPDEST SWAP2 POP PUSH2 0x2138 DUP3 PUSH2 0x20F7 JUMP JUMPDEST PUSH1 0x20 DUP3 ADD SWAP1 POP SWAP2 SWAP1 POP JUMP JUMPDEST PUSH1 0x0 PUSH1 0x20 DUP3 ADD SWAP1 POP DUP2 DUP2 SUB PUSH1 0x0 DUP4 ADD MSTORE PUSH2 0x215C DUP2 PUSH2 0x2120 JUMP JUMPDEST SWAP1 POP SWAP2 SWAP1 POP JUMP JUMPDEST PUSH1 0x0 DUP1 REVERT JUMPDEST PUSH1 0x0 DUP1 REVERT JUMPDEST PUSH1 0x0 PUSH1 0x1F NOT PUSH1 0x1F DUP4 ADD AND SWAP1 POP SWAP2 SWAP1 POP JUMP JUMPDEST PUSH32 0x4E487B7100000000000000000000000000000000000000000000000000000000 PUSH1 0x0 MSTORE PUSH1 0x41 PUSH1 0x4 MSTORE PUSH1 0x24 PUSH1 0x0 REVERT JUMPDEST PUSH2 0x21B6 DUP3 PUSH2 0x216D JUMP JUMPDEST DUP2 ADD DUP2 DUP2 LT PUSH8 0xFFFFFFFFFFFFFFFF DUP3 GT OR ISZERO PUSH2 0x21D5 JUMPI PUSH2 0x21D4 PUSH2 0x217E JUMP JUMPDEST JUMPDEST DUP1 PUSH1 0x40 MSTORE POP POP POP JUMP JUMPDEST PUSH1 0x0 PUSH2 0x21E8 PUSH2 0x1E0E JUMP JUMPDEST SWAP1 POP PUSH2 0x21F4 DUP3 DUP3 PUSH2 0x21AD JUMP JUMPDEST SWAP2 SWAP1 POP JUMP JUMPDEST PUSH1 0x0 PUSH8 0xFFFFFFFFFFFFFFFF DUP3 GT ISZERO PUSH2 0x2214 JUMPI PUSH2 0x2213 PUSH2 0x217E JUMP JUMPDEST JUMPDEST PUSH2 0x221D DUP3 PUSH2 0x216D JUMP JUMPDEST SWAP1 POP PUSH1 0x20 DUP2 ADD SWAP1 POP SWAP2 SWAP1 POP JUMP JUMPDEST PUSH1 0x0 JUMPDEST DUP4 DUP2 LT ISZERO PUSH2 0x2248 JUMPI DUP1 DUP3 ADD MLOAD DUP2 DUP5 ADD MSTORE PUSH1 0x20 DUP2 ADD SWAP1 POP PUSH2 0x222D JUMP JUMPDEST PUSH1 0x0 DUP5 DUP5 ADD MSTORE POP POP POP POP JUMP JUMPDEST PUSH1 0x0 PUSH2 0x2267 PUSH2 0x2262 DUP5 PUSH2 0x21F9 JUMP JUMPDEST PUSH2 0x21DE JUMP JUMPDEST SWAP1 POP DUP3 DUP2 MSTORE PUSH1 0x20 DUP2 ADD DUP5 DUP5 DUP5 ADD GT ISZERO PUSH2 0x2283 JUMPI PUSH2 0x2282 PUSH2 0x2168 JUMP JUMPDEST JUMPDEST PUSH2 0x228E DUP5 DUP3 DUP6 PUSH2 0x222A JUMP JUMPDEST POP SWAP4 SWAP3 POP POP POP JUMP JUMPDEST PUSH1 0x0 DUP3 PUSH1 0x1F DUP4 ADD SLT PUSH2 0x22AB JUMPI PUSH2 0x22AA PUSH2 0x2163 JUMP JUMPDEST JUMPDEST DUP2 MLOAD PUSH2 0x22BB DUP5 DUP3 PUSH1 0x20 DUP7 ADD PUSH2 0x2254 JUMP JUMPDEST SWAP2 POP POP SWAP3 SWAP2 POP POP JUMP JUMPDEST PUSH2 0x22CD DUP2 PUSH2 0x1F8D JUMP JUMPDEST DUP2 EQ PUSH2 0x22D8 JUMPI PUSH1 0x0 DUP1 REVERT JUMPDEST POP JUMP JUMPDEST PUSH1 0x0 DUP2 MLOAD SWAP1 POP PUSH2 0x22EA DUP2 PUSH2 0x22C4 JUMP JUMPDEST SWAP3 SWAP2 POP POP JUMP JUMPDEST PUSH2 0x22F9 DUP2 PUSH2 0x1F16 JUMP JUMPDEST DUP2 EQ PUSH2 0x2304 JUMPI PUSH1 0x0 DUP1 REVERT JUMPDEST POP JUMP JUMPDEST PUSH1 0x0 DUP2 MLOAD SWAP1 POP PUSH2 0x2316 DUP2 PUSH2 0x22F0 JUMP JUMPDEST SWAP3 SWAP2 POP POP JUMP JUMPDEST PUSH1 0x0 DUP2 MLOAD SWAP1 POP PUSH2 0x232B DUP2 PUSH2 0x1E2C JUMP JUMPDEST SWAP3 SWAP2 POP POP JUMP JUMPDEST PUSH1 0x0 DUP1 PUSH1 0x0 DUP1 PUSH1 0x80 DUP6 DUP8 SUB SLT ISZERO PUSH2 0x234B JUMPI PUSH2 0x234A PUSH2 0x1E18 JUMP JUMPDEST JUMPDEST PUSH1 0x0 DUP6 ADD MLOAD PUSH8 0xFFFFFFFFFFFFFFFF DUP2 GT ISZERO PUSH2 0x2369 JUMPI PUSH2 0x2368 PUSH2 0x1E1D JUMP JUMPDEST JUMPDEST PUSH2 0x2375 DUP8 DUP3 DUP9 ADD PUSH2 0x2296 JUMP JUMPDEST SWAP5 POP POP PUSH1 0x20 PUSH2 0x2386 DUP8 DUP3 DUP9 ADD PUSH2 0x22DB JUMP JUMPDEST SWAP4 POP POP PUSH1 0x40 PUSH2 0x2397 DUP8 DUP3 DUP9 ADD PUSH2 0x2307 JUMP JUMPDEST SWAP3 POP POP PUSH1 0x60 PUSH2 0x23A8 DUP8 DUP3 DUP9 ADD PUSH2 0x231C JUMP JUMPDEST SWAP2 POP POP SWAP3 SWAP6 SWAP2 SWAP5 POP SWAP3 POP JUMP JUMPDEST PUSH32 0x4E465420646F6573206E6F742065786973740000000000000000000000000000 PUSH1 0x0 DUP3 ADD MSTORE POP JUMP JUMPDEST PUSH1 0x0 PUSH2 0x23EA PUSH1 0x12 DUP4 PUSH2 0x20E6 JUMP JUMPDEST SWAP2 POP PUSH2 0x23F5 DUP3 PUSH2 0x23B4 JUMP JUMPDEST PUSH1 0x20 DUP3 ADD SWAP1 POP SWAP2 SWAP1 POP JUMP JUMPDEST PUSH1 0x0 PUSH1 0x20 DUP3 ADD SWAP1 POP DUP2 DUP2 SUB PUSH1 0x0 DUP4 ADD MSTORE PUSH2 0x2419 DUP2 PUSH2 0x23DD JUMP JUMPDEST SWAP1 POP SWAP2 SWAP1 POP JUMP JUMPDEST PUSH32 0x596F7520617265206E6F7420746865206F776E6572206F662074686973204E46 PUSH1 0x0 DUP3 ADD MSTORE PUSH32 0x5400000000000000000000000000000000000000000000000000000000000000 PUSH1 0x20 DUP3 ADD MSTORE POP JUMP JUMPDEST PUSH1 0x0 PUSH2 0x247C PUSH1 0x21 DUP4 PUSH2 0x20E6 JUMP JUMPDEST SWAP2 POP PUSH2 0x2487 DUP3 PUSH2 0x2420 JUMP JUMPDEST PUSH1 0x40 DUP3 ADD SWAP1 POP SWAP2 SWAP1 POP JUMP JUMPDEST PUSH1 0x0 PUSH1 0x20 DUP3 ADD SWAP1 POP DUP2 DUP2 SUB PUSH1 0x0 DUP4 ADD MSTORE PUSH2 0x24AB DUP2 PUSH2 0x246F JUMP JUMPDEST SWAP1 POP SWAP2 SWAP1 POP JUMP JUMPDEST PUSH32 0x4E487B7100000000000000000000000000000000000000000000000000000000 PUSH1 0x0 MSTORE PUSH1 0x32 PUSH1 0x4 MSTORE PUSH1 0x24 PUSH1 0x0 REVERT JUMPDEST PUSH32 0x4E487B7100000000000000000000000000000000000000000000000000000000 PUSH1 0x0 MSTORE PUSH1 0x11 PUSH1 0x4 MSTORE PUSH1 0x24 PUSH1 0x0 REVERT JUMPDEST PUSH1 0x0 PUSH2 0x251B DUP3 PUSH2 0x1E22 JUMP JUMPDEST SWAP2 POP PUSH2 0x2526 DUP4 PUSH2 0x1E22 JUMP JUMPDEST SWAP3 POP DUP3 DUP3 SUB SWAP1 POP DUP2 DUP2 GT ISZERO PUSH2 0x253E JUMPI PUSH2 0x253D PUSH2 0x24E1 JUMP JUMPDEST JUMPDEST SWAP3 SWAP2 POP POP JUMP JUMPDEST PUSH32 0x4E487B7100000000000000000000000000000000000000000000000000000000 PUSH1 0x0 MSTORE PUSH1 0x31 PUSH1 0x4 MSTORE PUSH1 0x24 PUSH1 0x0 REVERT JUMPDEST PUSH1 0x0 PUSH1 0x20 DUP3 ADD SWAP1 POP PUSH2 0x2588 PUSH1 0x0 DUP4 ADD DUP5 PUSH2 0x1F9F JUMP JUMPDEST SWAP3 SWAP2 POP POP JUMP JUMPDEST PUSH32 0x5374617274696E67207072696365206D757374206265206174206C6561737420 PUSH1 0x0 DUP3 ADD MSTORE PUSH32 0x302E303320455448000000000000000000000000000000000000000000000000 PUSH1 0x20 DUP3 ADD MSTORE POP JUMP JUMPDEST PUSH1 0x0 PUSH2 0x25EA PUSH1 0x28 DUP4 PUSH2 0x20E6 JUMP JUMPDEST SWAP2 POP PUSH2 0x25F5 DUP3 PUSH2 0x258E JUMP JUMPDEST PUSH1 0x40 DUP3 ADD SWAP1 POP SWAP2 SWAP1 POP JUMP JUMPDEST PUSH1 0x0 PUSH1 0x20 DUP3 ADD SWAP1 POP DUP2 DUP2 SUB PUSH1 0x0 DUP4 ADD MSTORE PUSH2 0x2619 DUP2 PUSH2 0x25DD JUMP JUMPDEST SWAP1 POP SWAP2 SWAP1 POP JUMP JUMPDEST PUSH32 0x4E465420697320616C7265616479206C697374656420666F722073616C650000 PUSH1 0x0 DUP3 ADD MSTORE POP JUMP JUMPDEST PUSH1 0x0 PUSH2 0x2656 PUSH1 0x1E DUP4 PUSH2 0x20E6 JUMP JUMPDEST SWAP2 POP PUSH2 0x2661 DUP3 PUSH2 0x2620 JUMP JUMPDEST PUSH1 0x20 DUP3 ADD SWAP1 POP SWAP2 SWAP1 POP JUMP JUMPDEST PUSH1 0x0 PUSH1 0x20 DUP3 ADD SWAP1 POP DUP2 DUP2 SUB PUSH1 0x0 DUP4 ADD MSTORE PUSH2 0x2685 DUP2 PUSH2 0x2649 JUMP JUMPDEST SWAP1 POP SWAP2 SWAP1 POP JUMP JUMPDEST PUSH32 0x41756374696F6E206D7573742072756E20666F72206174206C65617374203120 PUSH1 0x0 DUP3 ADD MSTORE PUSH32 0x6D696E7574650000000000000000000000000000000000000000000000000000 PUSH1 0x20 DUP3 ADD MSTORE POP JUMP JUMPDEST PUSH1 0x0 PUSH2 0x26E8 PUSH1 0x26 DUP4 PUSH2 0x20E6 JUMP JUMPDEST SWAP2 POP PUSH2 0x26F3 DUP3 PUSH2 0x268C JUMP JUMPDEST PUSH1 0x40 DUP3 ADD SWAP1 POP SWAP2 SWAP1 POP JUMP JUMPDEST PUSH1 0x0 PUSH1 0x20 DUP3 ADD SWAP1 POP DUP2 DUP2 SUB PUSH1 0x0 DUP4 ADD MSTORE PUSH2 0x2717 DUP2 PUSH2 0x26DB JUMP JUMPDEST SWAP1 POP SWAP2 SWAP1 POP JUMP JUMPDEST PUSH32 0x53746172742074696D65206D7573742062652063757272656E74206F72206675 PUSH1 0x0 DUP3 ADD MSTORE PUSH32 0x7475726500000000000000000000000000000000000000000000000000000000 PUSH1 0x20 DUP3 ADD MSTORE POP JUMP JUMPDEST PUSH1 0x0 PUSH2 0x277A PUSH1 0x24 DUP4 PUSH2 0x20E6 JUMP JUMPDEST SWAP2 POP PUSH2 0x2785 DUP3 PUSH2 0x271E JUMP JUMPDEST PUSH1 0x40 DUP3 ADD SWAP1 POP SWAP2 SWAP1 POP JUMP JUMPDEST PUSH1 0x0 PUSH1 0x20 DUP3 ADD SWAP1 POP DUP2 DUP2 SUB PUSH1 0x0 DUP4 ADD MSTORE PUSH2 0x27A9 DUP2 PUSH2 0x276D JUMP JUMPDEST SWAP1 POP SWAP2 SWAP1 POP JUMP JUMPDEST PUSH32 0x456E642074696D65206D7573742062652061667465722073746172742074696D PUSH1 0x0 DUP3 ADD MSTORE PUSH32 0x6500000000000000000000000000000000000000000000000000000000000000 PUSH1 0x20 DUP3 ADD MSTORE POP JUMP JUMPDEST PUSH1 0x0 PUSH2 0x280C PUSH1 0x21 DUP4 PUSH2 0x20E6 JUMP JUMPDEST SWAP2 POP PUSH2 0x2817 DUP3 PUSH2 0x27B0 JUMP JUMPDEST PUSH1 0x40 DUP3 ADD SWAP1 POP SWAP2 SWAP1 POP JUMP JUMPDEST PUSH1 0x0 PUSH1 0x20 DUP3 ADD SWAP1 POP DUP2 DUP2 SUB PUSH1 0x0 DUP4 ADD MSTORE PUSH2 0x283B DUP2 PUSH2 0x27FF JUMP JUMPDEST SWAP1 POP SWAP2 SWAP1 POP JUMP JUMPDEST PUSH32 0x41756374696F6E20616C72656164792065786973747320666F72207468697320 PUSH1 0x0 DUP3 ADD MSTORE PUSH32 0x4E46540000000000000000000000000000000000000000000000000000000000 PUSH1 0x20 DUP3 ADD MSTORE POP JUMP JUMPDEST PUSH1 0x0 PUSH2 0x289E PUSH1 0x23 DUP4 PUSH2 0x20E6 JUMP JUMPDEST SWAP2 POP PUSH2 0x28A9 DUP3 PUSH2 0x2842 JUMP JUMPDEST PUSH1 0x40 DUP3 ADD SWAP1 POP SWAP2 SWAP1 POP JUMP JUMPDEST PUSH1 0x0 PUSH1 0x20 DUP3 ADD SWAP1 POP DUP2 DUP2 SUB PUSH1 0x0 DUP4 ADD MSTORE PUSH2 0x28CD DUP2 PUSH2 0x2891 JUMP JUMPDEST SWAP1 POP SWAP2 SWAP1 POP JUMP JUMPDEST PUSH32 0x5374617274696E67207072696365206D757374206265206174206C6561737420 PUSH1 0x0 DUP3 ADD MSTORE PUSH32 0x746865206D696E74207072696365000000000000000000000000000000000000 PUSH1 0x20 DUP3 ADD MSTORE POP JUMP JUMPDEST PUSH1 0x0 PUSH2 0x2930 PUSH1 0x2E DUP4 PUSH2 0x20E6 JUMP JUMPDEST SWAP2 POP PUSH2 0x293B DUP3 PUSH2 0x28D4 JUMP JUMPDEST PUSH1 0x40 DUP3 ADD SWAP1 POP SWAP2 SWAP1 POP JUMP JUMPDEST PUSH1 0x0 PUSH1 0x20 DUP3 ADD SWAP1 POP DUP2 DUP2 SUB PUSH1 0x0 DUP4 ADD MSTORE PUSH2 0x295F DUP2 PUSH2 0x2923 JUMP JUMPDEST SWAP1 POP SWAP2 SWAP1 POP JUMP JUMPDEST PUSH1 0x0 PUSH1 0x80 DUP3 ADD SWAP1 POP PUSH2 0x297B PUSH1 0x0 DUP4 ADD DUP8 PUSH2 0x1E85 JUMP JUMPDEST PUSH2 0x2988 PUSH1 0x20 DUP4 ADD DUP7 PUSH2 0x1E85 JUMP JUMPDEST PUSH2 0x2995 PUSH1 0x40 DUP4 ADD DUP6 PUSH2 0x1E85 JUMP JUMPDEST PUSH2 0x29A2 PUSH1 0x60 DUP4 ADD DUP5 PUSH2 0x1F9F JUMP JUMPDEST SWAP6 SWAP5 POP POP POP POP POP JUMP JUMPDEST PUSH32 0x4E4654206E6F74206C697374656420666F722073616C65000000000000000000 PUSH1 0x0 DUP3 ADD MSTORE POP JUMP JUMPDEST PUSH1 0x0 PUSH2 0x29E1 PUSH1 0x17 DUP4 PUSH2 0x20E6 JUMP JUMPDEST SWAP2 POP PUSH2 0x29EC DUP3 PUSH2 0x29AB JUMP JUMPDEST PUSH1 0x20 DUP3 ADD SWAP1 POP SWAP2 SWAP1 POP JUMP JUMPDEST PUSH1 0x0 PUSH1 0x20 DUP3 ADD SWAP1 POP DUP2 DUP2 SUB PUSH1 0x0 DUP4 ADD MSTORE PUSH2 0x2A10 DUP2 PUSH2 0x29D4 JUMP JUMPDEST SWAP1 POP SWAP2 SWAP1 POP JUMP JUMPDEST PUSH32 0x496E636F7272656374207061796D656E7420616D6F756E740000000000000000 PUSH1 0x0 DUP3 ADD MSTORE POP JUMP JUMPDEST PUSH1 0x0 PUSH2 0x2A4D PUSH1 0x18 DUP4 PUSH2 0x20E6 JUMP JUMPDEST SWAP2 POP PUSH2 0x2A58 DUP3 PUSH2 0x2A17 JUMP JUMPDEST PUSH1 0x20 DUP3 ADD SWAP1 POP SWAP2 SWAP1 POP JUMP JUMPDEST PUSH1 0x0 PUSH1 0x20 DUP3 ADD SWAP1 POP DUP2 DUP2 SUB PUSH1 0x0 DUP4 ADD MSTORE PUSH2 0x2A7C DUP2 PUSH2 0x2A40 JUMP JUMPDEST SWAP1 POP SWAP2 SWAP1 POP JUMP JUMPDEST PUSH32 0x43616E6E6F742062757920796F7572206F776E204E4654000000000000000000 PUSH1 0x0 DUP3 ADD MSTORE POP JUMP JUMPDEST PUSH1 0x0 PUSH2 0x2AB9 PUSH1 0x17 DUP4 PUSH2 0x20E6 JUMP JUMPDEST SWAP2 POP PUSH2 0x2AC4 DUP3 PUSH2 0x2A83 JUMP JUMPDEST PUSH1 0x20 DUP3 ADD SWAP1 POP SWAP2 SWAP1 POP JUMP JUMPDEST PUSH1 0x0 PUSH1 0x20 DUP3 ADD SWAP1 POP DUP2 DUP2 SUB PUSH1 0x0 DUP4 ADD MSTORE PUSH2 0x2AE8 DUP2 PUSH2 0x2AAC JUMP JUMPDEST SWAP1 POP SWAP2 SWAP1 POP JUMP JUMPDEST PUSH1 0x0 PUSH1 0x40 DUP3 ADD SWAP1 POP PUSH2 0x2B04 PUSH1 0x0 DUP4 ADD DUP6 PUSH2 0x1E85 JUMP JUMPDEST PUSH2 0x2B11 PUSH1 0x20 DUP4 ADD DUP5 PUSH2 0x1F9F JUMP JUMPDEST SWAP4 SWAP3 POP POP POP JUMP JUMPDEST PUSH1 0x0 PUSH1 0x60 DUP3 ADD SWAP1 POP PUSH2 0x2B2D PUSH1 0x0 DUP4 ADD DUP7 PUSH2 0x1F9F JUMP JUMPDEST PUSH2 0x2B3A PUSH1 0x20 DUP4 ADD DUP6 PUSH2 0x1F9F JUMP JUMPDEST PUSH2 0x2B47 PUSH1 0x40 DUP4 ADD DUP5 PUSH2 0x1E85 JUMP JUMPDEST SWAP5 SWAP4 POP POP POP POP JUMP JUMPDEST PUSH32 0x5072696365206D757374206265206174206C6561737420302E30332045544800 PUSH1 0x0 DUP3 ADD MSTORE POP JUMP JUMPDEST PUSH1 0x0 PUSH2 0x2B85 PUSH1 0x1F DUP4 PUSH2 0x20E6 JUMP JUMPDEST SWAP2 POP PUSH2 0x2B90 DUP3 PUSH2 0x2B4F JUMP JUMPDEST PUSH1 0x20 DUP3 ADD SWAP1 POP SWAP2 SWAP1 POP JUMP JUMPDEST PUSH1 0x0 PUSH1 0x20 DUP3 ADD SWAP1 POP DUP2 DUP2 SUB PUSH1 0x0 DUP4 ADD MSTORE PUSH2 0x2BB4 DUP2 PUSH2 0x2B78 JUMP JUMPDEST SWAP1 POP SWAP2 SWAP1 POP JUMP JUMPDEST PUSH32 0x4E465420616C7265616479206C69737465640000000000000000000000000000 PUSH1 0x0 DUP3 ADD MSTORE POP JUMP JUMPDEST PUSH1 0x0 PUSH2 0x2BF1 PUSH1 0x12 DUP4 PUSH2 0x20E6 JUMP JUMPDEST SWAP2 POP PUSH2 0x2BFC DUP3 PUSH2 0x2BBB JUMP JUMPDEST PUSH1 0x20 DUP3 ADD SWAP1 POP SWAP2 SWAP1 POP JUMP JUMPDEST PUSH1 0x0 PUSH1 0x20 DUP3 ADD SWAP1 POP DUP2 DUP2 SUB PUSH1 0x0 DUP4 ADD MSTORE PUSH2 0x2C20 DUP2 PUSH2 0x2BE4 JUMP JUMPDEST SWAP1 POP SWAP2 SWAP1 POP JUMP JUMPDEST PUSH32 0x4E46542069732063757272656E746C7920696E2061756374696F6E0000000000 PUSH1 0x0 DUP3 ADD MSTORE POP JUMP JUMPDEST PUSH1 0x0 PUSH2 0x2C5D PUSH1 0x1B DUP4 PUSH2 0x20E6 JUMP JUMPDEST SWAP2 POP PUSH2 0x2C68 DUP3 PUSH2 0x2C27 JUMP JUMPDEST PUSH1 0x20 DUP3 ADD SWAP1 POP SWAP2 SWAP1 POP JUMP JUMPDEST PUSH1 0x0 PUSH1 0x20 DUP3 ADD SWAP1 POP DUP2 DUP2 SUB PUSH1 0x0 DUP4 ADD MSTORE PUSH2 0x2C8C DUP2 PUSH2 0x2C50 JUMP JUMPDEST SWAP1 POP SWAP2 SWAP1 POP JUMP JUMPDEST PUSH32 0x53616C65207072696365206D757374206265206174206C656173742074686520 PUSH1 0x0 DUP3 ADD MSTORE PUSH32 0x6D696E7420707269636500000000000000000000000000000000000000000000 PUSH1 0x20 DUP3 ADD MSTORE POP JUMP JUMPDEST PUSH1 0x0 PUSH2 0x2CEF PUSH1 0x2A DUP4 PUSH2 0x20E6 JUMP JUMPDEST SWAP2 POP PUSH2 0x2CFA DUP3 PUSH2 0x2C93 JUMP JUMPDEST PUSH1 0x40 DUP3 ADD SWAP1 POP SWAP2 SWAP1 POP JUMP JUMPDEST PUSH1 0x0 PUSH1 0x20 DUP3 ADD SWAP1 POP DUP2 DUP2 SUB PUSH1 0x0 DUP4 ADD MSTORE PUSH2 0x2D1E DUP2 PUSH2 0x2CE2 JUMP JUMPDEST SWAP1 POP SWAP2 SWAP1 POP JUMP JUMPDEST PUSH32 0x41756374696F6E206973206E6F74206163746976650000000000000000000000 PUSH1 0x0 DUP3 ADD MSTORE POP JUMP JUMPDEST PUSH1 0x0 PUSH2 0x2D5B PUSH1 0x15 DUP4 PUSH2 0x20E6 JUMP JUMPDEST SWAP2 POP PUSH2 0x2D66 DUP3 PUSH2 0x2D25 JUMP JUMPDEST PUSH1 0x20 DUP3 ADD SWAP1 POP SWAP2 SWAP1 POP JUMP JUMPDEST PUSH1 0x0 PUSH1 0x20 DUP3 ADD SWAP1 POP DUP2 DUP2 SUB PUSH1 0x0 DUP4 ADD MSTORE PUSH2 0x2D8A DUP2 PUSH2 0x2D4E JUMP JUMPDEST SWAP1 POP SWAP2 SWAP1 POP JUMP JUMPDEST PUSH32 0x596F7520617265206E6F74207468652073656C6C6572206F6620746869732061 PUSH1 0x0 DUP3 ADD MSTORE PUSH32 0x756374696F6E0000000000000000000000000000000000000000000000000000 PUSH1 0x20 DUP3 ADD MSTORE POP JUMP JUMPDEST PUSH1 0x0 PUSH2 0x2DED PUSH1 0x26 DUP4 PUSH2 0x20E6 JUMP JUMPDEST SWAP2 POP PUSH2 0x2DF8 DUP3 PUSH2 0x2D91 JUMP JUMPDEST PUSH1 0x40 DUP3 ADD SWAP1 POP SWAP2 SWAP1 POP JUMP JUMPDEST PUSH1 0x0 PUSH1 0x20 DUP3 ADD SWAP1 POP DUP2 DUP2 SUB PUSH1 0x0 DUP4 ADD MSTORE PUSH2 0x2E1C DUP2 PUSH2 0x2DE0 JUMP JUMPDEST SWAP1 POP SWAP2 SWAP1 POP JUMP JUMPDEST PUSH32 0x41756374696F6E20686173206E6F742073746172746564207965740000000000 PUSH1 0x0 DUP3 ADD MSTORE POP JUMP JUMPDEST PUSH1 0x0 PUSH2 0x2E59 PUSH1 0x1B DUP4 PUSH2 0x20E6 JUMP JUMPDEST SWAP2 POP PUSH2 0x2E64 DUP3 PUSH2 0x2E23 JUMP JUMPDEST PUSH1 0x20 DUP3 ADD SWAP1 POP SWAP2 SWAP1 POP JUMP JUMPDEST PUSH1 0x0 PUSH1 0x20 DUP3 ADD SWAP1 POP DUP2 DUP2 SUB PUSH1 0x0 DUP4 ADD MSTORE PUSH2 0x2E88 DUP2 PUSH2 0x2E4C JUMP JUMPDEST SWAP1 POP SWAP2 SWAP1 POP JUMP JUMPDEST PUSH32 0x41756374696F6E2068617320616C726561647920656E64656400000000000000 PUSH1 0x0 DUP3 ADD MSTORE POP JUMP JUMPDEST PUSH1 0x0 PUSH2 0x2EC5 PUSH1 0x19 DUP4 PUSH2 0x20E6 JUMP JUMPDEST SWAP2 POP PUSH2 0x2ED0 DUP3 PUSH2 0x2E8F JUMP JUMPDEST PUSH1 0x20 DUP3 ADD SWAP1 POP SWAP2 SWAP1 POP JUMP JUMPDEST PUSH1 0x0 PUSH1 0x20 DUP3 ADD SWAP1 POP DUP2 DUP2 SUB PUSH1 0x0 DUP4 ADD MSTORE PUSH2 0x2EF4 DUP2 PUSH2 0x2EB8 JUMP JUMPDEST SWAP1 POP SWAP2 SWAP1 POP JUMP JUMPDEST PUSH1 0x0 DUP2 SWAP1 POP SWAP3 SWAP2 POP POP JUMP JUMPDEST PUSH32 0x42696420616D6F756E74206D75737420626520686967686572207468616E2074 PUSH1 0x0 DUP3 ADD MSTORE PUSH32 0x68652063757272656E742068696768657374206269643A200000000000000000 PUSH1 0x20 DUP3 ADD MSTORE POP JUMP JUMPDEST PUSH1 0x0 PUSH2 0x2F62 PUSH1 0x38 DUP4 PUSH2 0x2EFB JUMP JUMPDEST SWAP2 POP PUSH2 0x2F6D DUP3 PUSH2 0x2F06 JUMP JUMPDEST PUSH1 0x38 DUP3 ADD SWAP1 POP SWAP2 SWAP1 POP JUMP JUMPDEST PUSH1 0x0 DUP2 MLOAD SWAP1 POP SWAP2 SWAP1 POP JUMP JUMPDEST PUSH1 0x0 PUSH2 0x2F8E DUP3 PUSH2 0x2F78 JUMP JUMPDEST PUSH2 0x2F98 DUP2 DUP6 PUSH2 0x2EFB JUMP JUMPDEST SWAP4 POP PUSH2 0x2FA8 DUP2 DUP6 PUSH1 0x20 DUP7 ADD PUSH2 0x222A JUMP JUMPDEST DUP1 DUP5 ADD SWAP2 POP POP SWAP3 SWAP2 POP POP JUMP JUMPDEST PUSH1 0x0 PUSH2 0x2FBF DUP3 PUSH2 0x2F55 JUMP JUMPDEST SWAP2 POP PUSH2 0x2FCB DUP3 DUP5 PUSH2 0x2F83 JUMP JUMPDEST SWAP2 POP DUP2 SWAP1 POP SWAP3 SWAP2 POP POP JUMP JUMPDEST PUSH1 0x0 PUSH2 0x2FE1 DUP3 PUSH2 0x2F78 JUMP JUMPDEST PUSH2 0x2FEB DUP2 DUP6 PUSH2 0x20E6 JUMP JUMPDEST SWAP4 POP PUSH2 0x2FFB DUP2 DUP6 PUSH1 0x20 DUP7 ADD PUSH2 0x222A JUMP JUMPDEST PUSH2 0x3004 DUP2 PUSH2 0x216D JUMP JUMPDEST DUP5 ADD SWAP2 POP POP SWAP3 SWAP2 POP POP JUMP JUMPDEST PUSH1 0x0 PUSH1 0x20 DUP3 ADD SWAP1 POP DUP2 DUP2 SUB PUSH1 0x0 DUP4 ADD MSTORE PUSH2 0x3029 DUP2 DUP5 PUSH2 0x2FD6 JUMP JUMPDEST SWAP1 POP SWAP3 SWAP2 POP POP JUMP JUMPDEST PUSH32 0x42696420616D6F756E74206D75737420626520686967686572207468616E2074 PUSH1 0x0 DUP3 ADD MSTORE PUSH32 0x6865207374617274696E67207072696365000000000000000000000000000000 PUSH1 0x20 DUP3 ADD MSTORE POP JUMP JUMPDEST PUSH1 0x0 PUSH2 0x308D PUSH1 0x31 DUP4 PUSH2 0x20E6 JUMP JUMPDEST SWAP2 POP PUSH2 0x3098 DUP3 PUSH2 0x3031 JUMP JUMPDEST PUSH1 0x40 DUP3 ADD SWAP1 POP SWAP2 SWAP1 POP JUMP JUMPDEST PUSH1 0x0 PUSH1 0x20 DUP3 ADD SWAP1 POP DUP2 DUP2 SUB PUSH1 0x0 DUP4 ADD MSTORE PUSH2 0x30BC DUP2 PUSH2 0x3080 JUMP JUMPDEST SWAP1 POP SWAP2 SWAP1 POP JUMP JUMPDEST PUSH1 0x0 PUSH1 0x40 DUP3 ADD SWAP1 POP PUSH2 0x30D8 PUSH1 0x0 DUP4 ADD DUP6 PUSH2 0x1F9F JUMP JUMPDEST PUSH2 0x30E5 PUSH1 0x20 DUP4 ADD DUP5 PUSH2 0x1E85 JUMP JUMPDEST SWAP4 SWAP3 POP POP POP JUMP JUMPDEST PUSH32 0x41756374696F6E20686173206E6F7420656E6465642079657400000000000000 PUSH1 0x0 DUP3 ADD MSTORE POP JUMP JUMPDEST PUSH1 0x0 PUSH2 0x3122 PUSH1 0x19 DUP4 PUSH2 0x20E6 JUMP JUMPDEST SWAP2 POP PUSH2 0x312D DUP3 PUSH2 0x30EC JUMP JUMPDEST PUSH1 0x20 DUP3 ADD SWAP1 POP SWAP2 SWAP1 POP JUMP JUMPDEST PUSH1 0x0 PUSH1 0x20 DUP3 ADD SWAP1 POP DUP2 DUP2 SUB PUSH1 0x0 DUP4 ADD MSTORE PUSH2 0x3151 DUP2 PUSH2 0x3115 JUMP JUMPDEST SWAP1 POP SWAP2 SWAP1 POP JUMP JUMPDEST PUSH1 0x0 DUP2 SWAP1 POP SWAP2 SWAP1 POP JUMP JUMPDEST PUSH1 0x0 PUSH2 0x317D PUSH2 0x3178 PUSH2 0x3173 DUP5 PUSH2 0x3158 JUMP JUMPDEST PUSH2 0x206C JUMP JUMPDEST PUSH2 0x1E22 JUMP JUMPDEST SWAP1 POP SWAP2 SWAP1 POP JUMP JUMPDEST PUSH2 0x318D DUP2 PUSH2 0x3162 JUMP JUMPDEST DUP3 MSTORE POP POP JUMP JUMPDEST PUSH1 0x0 PUSH1 0x40 DUP3 ADD SWAP1 POP PUSH2 0x31A8 PUSH1 0x0 DUP4 ADD DUP6 PUSH2 0x1F9F JUMP JUMPDEST PUSH2 0x31B5 PUSH1 0x20 DUP4 ADD DUP5 PUSH2 0x3184 JUMP JUMPDEST SWAP4 SWAP3 POP POP POP JUMP JUMPDEST PUSH1 0x0 PUSH2 0x31C7 DUP3 PUSH2 0x1E22 JUMP JUMPDEST SWAP2 POP PUSH32 0xFFFFFFFFFFFFFFFFFFFFFFFFFFFFFFFFFFFFFFFFFFFFFFFFFFFFFFFFFFFFFFFF DUP3 SUB PUSH2 0x31F9 JUMPI PUSH2 0x31F8 PUSH2 0x24E1 JUMP JUMPDEST JUMPDEST PUSH1 0x1 DUP3 ADD SWAP1 POP SWAP2 SWAP1 POP JUMP JUMPDEST PUSH32 0x4E487B7100000000000000000000000000000000000000000000000000000000 PUSH1 0x0 MSTORE PUSH1 0x12 PUSH1 0x4 MSTORE PUSH1 0x24 PUSH1 0x0 REVERT JUMPDEST PUSH1 0x0 PUSH2 0x323E DUP3 PUSH2 0x1E22 JUMP JUMPDEST SWAP2 POP PUSH2 0x3249 DUP4 PUSH2 0x1E22 JUMP JUMPDEST SWAP3 POP DUP3 PUSH2 0x3259 JUMPI PUSH2 0x3258 PUSH2 0x3204 JUMP JUMPDEST JUMPDEST DUP3 DUP3 DIV SWAP1 POP SWAP3 SWAP2 POP POP JUMP JUMPDEST PUSH1 0x0 PUSH2 0x326F DUP3 PUSH2 0x1E22 JUMP JUMPDEST SWAP2 POP PUSH2 0x327A DUP4 PUSH2 0x1E22 JUMP JUMPDEST SWAP3 POP DUP3 PUSH2 0x328A JUMPI PUSH2 0x3289 PUSH2 0x3204 JUMP JUMPDEST JUMPDEST DUP3 DUP3 MOD SWAP1 POP SWAP3 SWAP2 POP POP JUMP JUMPDEST PUSH1 0x0 PUSH2 0x32A0 DUP3 PUSH2 0x1E22 JUMP JUMPDEST SWAP2 POP PUSH2 0x32AB DUP4 PUSH2 0x1E22 JUMP JUMPDEST SWAP3 POP DUP3 DUP3 ADD SWAP1 POP DUP1 DUP3 GT ISZERO PUSH2 0x32C3 JUMPI PUSH2 0x32C2 PUSH2 0x24E1 JUMP JUMPDEST JUMPDEST SWAP3 SWAP2 POP POP JUMP INVALID LOG2 PUSH5 0x6970667358 0x22 SLT KECCAK256 SWAP13 0xBC INVALID TIMESTAMP 0xD3 0xF SWAP5 0xF7 SWAP12 SWAP14 0x2D BALANCE 0xBB 0xD9 0x2D CALLDATALOAD PUSH32 0xE3DC526DD93FEE47B1CA47C84BC92564736F6C634300081C0033000000000000 "},"methodIdentifiers":{"auctions(uint256)":"571a26a0","buyNFT(uint256)":"51ed8288","cancelAuction(uint256)":"96b5a755","cancelSell(uint256)":"07c9cd45","createAuction(uint256,uint256,uint256,uint256)":"431f21da","createCollectionContract()":"afe4143d","finalizeAuction(uint256)":"e8083863","getCurrentTime()":"29cb924d","listedForSale(uint256)":"54c04873","nftInAuction(uint256)":"ba18429a","placeBid(uint256)":"9979ef45","sellNFT(uint256,uint256)":"91a48a1e"}}}}}