{
  "_format": "hh-sol-artifact-1",
  "contractName": "NFTMarketplace",
  "sourceName": "contracts/NFTMarketplace.sol",
  "abi": [
    {
      "inputs": [
        {
          "internalType": "address",
          "name": "_createCollectionAddress",
          "type": "address"
        }
      ],
      "stateMutability": "nonpayable",
      "type": "constructor"
    },
    {
      "anonymous": false,
      "inputs": [
        {
          "indexed": true,
          "internalType": "uint256",
          "name": "nftId",
          "type": "uint256"
        },
        {
          "indexed": false,
          "internalType": "address",
          "name": "seller",
          "type": "address"
        }
      ],
      "name": "AuctionCancelled",
      "type": "event"
    },
    {
      "anonymous": false,
      "inputs": [
        {
          "indexed": true,
          "internalType": "uint256",
          "name": "nftId",
          "type": "uint256"
        },
        {
          "indexed": false,
          "internalType": "uint256",
          "name": "startingPrice",
          "type": "uint256"
        },
        {
          "indexed": false,
          "internalType": "uint256",
          "name": "startTime",
          "type": "uint256"
        },
        {
          "indexed": false,
          "internalType": "uint256",
          "name": "endTime",
          "type": "uint256"
        },
        {
          "indexed": false,
          "internalType": "address",
          "name": "seller",
          "type": "address"
        }
      ],
      "name": "AuctionCreated",
      "type": "event"
    },
    {
      "anonymous": false,
      "inputs": [
        {
          "indexed": true,
          "internalType": "uint256",
          "name": "nftId",
          "type": "uint256"
        },
        {
          "indexed": false,
          "internalType": "address",
          "name": "winner",
          "type": "address"
        },
        {
          "indexed": false,
          "internalType": "uint256",
          "name": "winningBid",
          "type": "uint256"
        }
      ],
      "name": "AuctionFinalized",
      "type": "event"
    },
    {
      "anonymous": false,
      "inputs": [
        {
          "indexed": true,
          "internalType": "uint256",
          "name": "nftId",
          "type": "uint256"
        },
        {
          "indexed": false,
          "internalType": "address",
          "name": "bidder",
          "type": "address"
        },
        {
          "indexed": false,
          "internalType": "uint256",
          "name": "bidAmount",
          "type": "uint256"
        }
      ],
      "name": "BidPlaced",
      "type": "event"
    },
    {
      "anonymous": false,
      "inputs": [
        {
          "indexed": true,
          "internalType": "uint256",
          "name": "collectionId",
          "type": "uint256"
        },
        {
          "indexed": true,
          "internalType": "uint256",
          "name": "nftId",
          "type": "uint256"
        },
        {
          "indexed": false,
          "internalType": "uint256",
          "name": "price",
          "type": "uint256"
        }
      ],
      "name": "NFTListed",
      "type": "event"
    },
    {
      "anonymous": false,
      "inputs": [
        {
          "indexed": true,
          "internalType": "uint256",
          "name": "nftId",
          "type": "uint256"
        },
        {
          "indexed": false,
          "internalType": "address",
          "name": "seller",
          "type": "address"
        }
      ],
      "name": "NFTSaleCancelled",
      "type": "event"
    },
    {
      "anonymous": false,
      "inputs": [
        {
          "indexed": true,
          "internalType": "uint256",
          "name": "nftId",
          "type": "uint256"
        },
        {
          "indexed": false,
          "internalType": "address",
          "name": "seller",
          "type": "address"
        },
        {
          "indexed": false,
          "internalType": "address",
          "name": "buyer",
          "type": "address"
        },
        {
          "indexed": false,
          "internalType": "uint256",
          "name": "price",
          "type": "uint256"
        }
      ],
      "name": "NFTSold",
      "type": "event"
    },
    {
      "inputs": [
        {
          "internalType": "uint256",
          "name": "",
          "type": "uint256"
        }
      ],
      "name": "auctions",
      "outputs": [
        {
          "internalType": "uint256",
          "name": "nftId",
          "type": "uint256"
        },
        {
          "internalType": "uint256",
          "name": "startingPrice",
          "type": "uint256"
        },
        {
          "internalType": "uint256",
          "name": "startTime",
          "type": "uint256"
        },
        {
          "internalType": "uint256",
          "name": "endTime",
          "type": "uint256"
        },
        {
          "internalType": "address payable",
          "name": "seller",
          "type": "address"
        },
        {
          "internalType": "address",
          "name": "highestBidder",
          "type": "address"
        },
        {
          "internalType": "uint256",
          "name": "highestBid",
          "type": "uint256"
        },
        {
          "internalType": "bool",
          "name": "isActive",
          "type": "bool"
        }
      ],
      "stateMutability": "view",
      "type": "function"
    },
    {
      "inputs": [
        {
          "internalType": "uint256",
          "name": "nftId",
          "type": "uint256"
        }
      ],
      "name": "buyNFT",
      "outputs": [],
      "stateMutability": "payable",
      "type": "function"
    },
    {
      "inputs": [
        {
          "internalType": "uint256",
          "name": "nftId",
          "type": "uint256"
        }
      ],
      "name": "cancelAuction",
      "outputs": [],
      "stateMutability": "nonpayable",
      "type": "function"
    },
    {
      "inputs": [
        {
          "internalType": "uint256",
          "name": "nftId",
          "type": "uint256"
        }
      ],
      "name": "cancelSell",
      "outputs": [],
      "stateMutability": "nonpayable",
      "type": "function"
    },
    {
      "inputs": [
        {
          "internalType": "uint256",
          "name": "nftId",
          "type": "uint256"
        },
        {
          "internalType": "uint256",
          "name": "startingPrice",
          "type": "uint256"
        },
        {
          "internalType": "uint256",
          "name": "startTime",
          "type": "uint256"
        },
        {
          "internalType": "uint256",
          "name": "endTime",
          "type": "uint256"
        }
      ],
      "name": "createAuction",
      "outputs": [],
      "stateMutability": "nonpayable",
      "type": "function"
    },
    {
      "inputs": [],
      "name": "createCollectionContract",
      "outputs": [
        {
          "internalType": "contract ICreateCollection",
          "name": "",
          "type": "address"
        }
      ],
      "stateMutability": "view",
      "type": "function"
    },
    {
      "inputs": [
        {
          "internalType": "uint256",
          "name": "nftId",
          "type": "uint256"
        }
      ],
      "name": "finalizeAuction",
      "outputs": [],
      "stateMutability": "nonpayable",
      "type": "function"
    },
    {
      "inputs": [],
      "name": "getCurrentTime",
      "outputs": [
        {
          "internalType": "uint256",
          "name": "",
          "type": "uint256"
        }
      ],
      "stateMutability": "view",
      "type": "function"
    },
    {
      "inputs": [
        {
          "internalType": "uint256",
          "name": "",
          "type": "uint256"
        }
      ],
      "name": "listedForSale",
      "outputs": [
        {
          "internalType": "bool",
          "name": "",
          "type": "bool"
        }
      ],
      "stateMutability": "view",
      "type": "function"
    },
    {
      "inputs": [
        {
          "internalType": "uint256",
          "name": "",
          "type": "uint256"
        }
      ],
      "name": "nftInAuction",
      "outputs": [
        {
          "internalType": "bool",
          "name": "",
          "type": "bool"
        }
      ],
      "stateMutability": "view",
      "type": "function"
    },
    {
      "inputs": [
        {
          "internalType": "uint256",
          "name": "nftId",
          "type": "uint256"
        }
      ],
      "name": "placeBid",
      "outputs": [],
      "stateMutability": "payable",
      "type": "function"
    },
    {
      "inputs": [
        {
          "internalType": "uint256",
          "name": "nftId",
          "type": "uint256"
        },
        {
          "internalType": "uint256",
          "name": "price",
          "type": "uint256"
        }
      ],
      "name": "sellNFT",
      "outputs": [],
      "stateMutability": "nonpayable",
      "type": "function"
    }
  ],
  "bytecode": "0x608060405234801561001057600080fd5b50604051613416380380613416833981810160405281019061003291906100db565b806000806101000a81548173ffffffffffffffffffffffffffffffffffffffff021916908373ffffffffffffffffffffffffffffffffffffffff16021790555050610108565b600080fd5b600073ffffffffffffffffffffffffffffffffffffffff82169050919050565b60006100a88261007d565b9050919050565b6100b88161009d565b81146100c357600080fd5b50565b6000815190506100d5816100af565b92915050565b6000602082840312156100f1576100f0610078565b5b60006100ff848285016100c6565b91505092915050565b6132ff806101176000396000f3fe6080604052600436106100a75760003560e01c806391a48a1e1161006457806391a48a1e146101c657806396b5a755146101ef5780639979ef4514610218578063afe4143d14610234578063ba18429a1461025f578063e80838631461029c576100a7565b806307c9cd45146100ac57806329cb924d146100d5578063431f21da1461010057806351ed82881461012957806354c0487314610145578063571a26a014610182575b600080fd5b3480156100b857600080fd5b506100d360048036038101906100ce9190611e58565b6102c5565b005b3480156100e157600080fd5b506100ea6105fd565b6040516100f79190611e94565b60405180910390f35b34801561010c57600080fd5b5061012760048036038101906101229190611eaf565b610605565b005b610143600480360381019061013e9190611e58565b610b56565b005b34801561015157600080fd5b5061016c60048036038101906101679190611e58565b610fc1565b6040516101799190611f31565b60405180910390f35b34801561018e57600080fd5b506101a960048036038101906101a49190611e58565b610fe1565b6040516101bd989796959493929190611fae565b60405180910390f35b3480156101d257600080fd5b506101ed60048036038101906101e8919061202c565b611076565b005b3480156101fb57600080fd5b5061021660048036038101906102119190611e58565b61140a565b005b610232600480360381019061022d9190611e58565b611651565b005b34801561024057600080fd5b50610249611954565b60405161025691906120cb565b60405180910390f35b34801561026b57600080fd5b5061028660048036038101906102819190611e58565b611978565b6040516102939190611f31565b60405180910390f35b3480156102a857600080fd5b506102c360048036038101906102be9190611e58565b611998565b005b6003600082815260200190815260200160002060009054906101000a900460ff16610325576040517f08c379a000000000000000000000000000000000000000000000000000000000815260040161031c90612143565b60405180910390fd5b60008060008054906101000a900473ffffffffffffffffffffffffffffffffffffffff1673ffffffffffffffffffffffffffffffffffffffff166382260f35846040518263ffffffff1660e01b81526004016103819190611e94565b600060405180830381865afa15801561039e573d6000803e3d6000fd5b505050506040513d6000823e3d601f19601f820116820180604052508101906103c79190612331565b5092509250508061040d576040517f08c379a000000000000000000000000000000000000000000000000000000000815260040161040490612400565b60405180910390fd5b3373ffffffffffffffffffffffffffffffffffffffff168273ffffffffffffffffffffffffffffffffffffffff161461047b576040517f08c379a000000000000000000000000000000000000000000000000000000000815260040161047290612492565b60405180910390fd5b60006003600085815260200190815260200160002060006101000a81548160ff021916908315150217905550600060046000858152602001908152602001600020819055506000600560003373ffffffffffffffffffffffffffffffffffffffff1673ffffffffffffffffffffffffffffffffffffffff168152602001908152602001600020905060005b81805490508110156105be5784828281548110610526576105256124b2565b5b9060005260206000200154036105b15781600183805490506105489190612510565b81548110610559576105586124b2565b5b9060005260206000200154828281548110610577576105766124b2565b5b90600052602060002001819055508180548061059657610595612544565b5b600190038181906000526020600020016000905590556105be565b8080600101915050610506565b50837f5e86a35827477c5388f131ae2ae3671a03f959d1815796f76fbc695fd5adedea336040516105ef9190612573565b60405180910390a250505050565b600042905090565b666a94d74f43000083101561064f576040517f08c379a000000000000000000000000000000000000000000000000000000000815260040161064690612600565b60405180910390fd5b60008060008060009054906101000a900473ffffffffffffffffffffffffffffffffffffffff1673ffffffffffffffffffffffffffffffffffffffff166382260f35886040518263ffffffff1660e01b81526004016106ae9190611e94565b600060405180830381865afa1580156106cb573d6000803e3d6000fd5b505050506040513d6000823e3d601f19601f820116820180604052508101906106f49190612331565b935093509350508161073b576040517f08c379a000000000000000000000000000000000000000000000000000000000815260040161073290612400565b60405180910390fd5b3373ffffffffffffffffffffffffffffffffffffffff168373ffffffffffffffffffffffffffffffffffffffff16146107a9576040517f08c379a00000000000000000000000000000000000000000000000000000000081526004016107a090612492565b60405180910390fd5b6003600088815260200190815260200160002060009054906101000a900460ff161561080a576040517f08c379a00000000000000000000000000000000000000000000000000000000081526004016108019061266c565b60405180910390fd5b603c85856108189190612510565b1015610859576040517f08c379a0000000000000000000000000000000000000000000000000000000008152600401610850906126fe565b60405180910390fd5b4285101561089c576040517f08c379a000000000000000000000000000000000000000000000000000000000815260040161089390612790565b60405180910390fd5b8484116108de576040517f08c379a00000000000000000000000000000000000000000000000000000000081526004016108d590612822565b60405180910390fd5b6002600088815260200190815260200160002060009054906101000a900460ff161561093f576040517f08c379a0000000000000000000000000000000000000000000000000000000008152600401610936906128b4565b60405180910390fd5b80861015610982576040517f08c379a000000000000000000000000000000000000000000000000000000000815260040161097990612946565b60405180910390fd5b6040518061010001604052808881526020018781526020018681526020018581526020013373ffffffffffffffffffffffffffffffffffffffff168152602001600073ffffffffffffffffffffffffffffffffffffffff1681526020016000815260200160011515815250600160008981526020019081526020016000206000820151816000015560208201518160010155604082015181600201556060820151816003015560808201518160040160006101000a81548173ffffffffffffffffffffffffffffffffffffffff021916908373ffffffffffffffffffffffffffffffffffffffff16021790555060a08201518160050160006101000a81548173ffffffffffffffffffffffffffffffffffffffff021916908373ffffffffffffffffffffffffffffffffffffffff16021790555060c0820151816006015560e08201518160070160006101000a81548160ff02191690831515021790555090505060016002600089815260200190815260200160002060006101000a81548160ff021916908315150217905550867ffe21114808b55d6a54bec91c46a20e8dfe7f033edf3f058a5012a829d8d0e3ca87878733604051610b459493929190612966565b60405180910390a250505050505050565b6003600082815260200190815260200160002060009054906101000a900460ff16610bb6576040517f08c379a0000000000000000000000000000000000000000000000000000000008152600401610bad906129f7565b60405180910390fd5b600060046000838152602001908152602001600020549050803414610c10576040517f08c379a0000000000000000000000000000000000000000000000000000000008152600401610c0790612a63565b60405180910390fd5b60008060008054906101000a900473ffffffffffffffffffffffffffffffffffffffff1673ffffffffffffffffffffffffffffffffffffffff166382260f35856040518263ffffffff1660e01b8152600401610c6c9190611e94565b600060405180830381865afa158015610c89573d6000803e3d6000fd5b505050506040513d6000823e3d601f19601f82011682018060405250810190610cb29190612331565b50925092505080610cf8576040517f08c379a0000000000000000000000000000000000000000000000000000000008152600401610cef90612400565b60405180910390fd5b8173ffffffffffffffffffffffffffffffffffffffff163373ffffffffffffffffffffffffffffffffffffffff1603610d66576040517f08c379a0000000000000000000000000000000000000000000000000000000008152600401610d5d90612acf565b60405180910390fd5b60006003600086815260200190815260200160002060006101000a81548160ff021916908315150217905550600060046000868152602001908152602001600020819055506000600560008473ffffffffffffffffffffffffffffffffffffffff1673ffffffffffffffffffffffffffffffffffffffff168152602001908152602001600020905060005b8180549050811015610ea95785828281548110610e1157610e106124b2565b5b906000526020600020015403610e9c578160018380549050610e339190612510565b81548110610e4457610e436124b2565b5b9060005260206000200154828281548110610e6257610e616124b2565b5b906000526020600020018190555081805480610e8157610e80612544565b5b60019003818190600052602060002001600090559055610ea9565b8080600101915050610df1565b508273ffffffffffffffffffffffffffffffffffffffff166108fc349081150290604051600060405180830381858888f19350505050158015610ef0573d6000803e3d6000fd5b5060008054906101000a900473ffffffffffffffffffffffffffffffffffffffff1673ffffffffffffffffffffffffffffffffffffffff16639036c05086336040518363ffffffff1660e01b8152600401610f4c929190612aef565b600060405180830381600087803b158015610f6657600080fd5b505af1158015610f7a573d6000803e3d6000fd5b50505050847f8562eb94748e30bb0071e932744ce902b460c683474fcb3bfd567ffa16b1afb2843387604051610fb293929190612b18565b60405180910390a25050505050565b60036020528060005260406000206000915054906101000a900460ff1681565b60016020528060005260406000206000915090508060000154908060010154908060020154908060030154908060040160009054906101000a900473ffffffffffffffffffffffffffffffffffffffff16908060050160009054906101000a900473ffffffffffffffffffffffffffffffffffffffff16908060060154908060070160009054906101000a900460ff16905088565b666a94d74f4300008110156110c0576040517f08c379a00000000000000000000000000000000000000000000000000000000081526004016110b790612b9b565b60405180910390fd5b6003600083815260200190815260200160002060009054906101000a900460ff1615611121576040517f08c379a000000000000000000000000000000000000000000000000000000000815260040161111890612c07565b60405180910390fd5b6002600083815260200190815260200160002060009054906101000a900460ff1615611182576040517f08c379a000000000000000000000000000000000000000000000000000000000815260040161117990612c73565b60405180910390fd5b60008060008060009054906101000a900473ffffffffffffffffffffffffffffffffffffffff1673ffffffffffffffffffffffffffffffffffffffff166382260f35866040518263ffffffff1660e01b81526004016111e19190611e94565b600060405180830381865afa1580156111fe573d6000803e3d6000fd5b505050506040513d6000823e3d601f19601f820116820180604052508101906112279190612331565b935093509350508161126e576040517f08c379a000000000000000000000000000000000000000000000000000000000815260040161126590612400565b60405180910390fd5b3373ffffffffffffffffffffffffffffffffffffffff168373ffffffffffffffffffffffffffffffffffffffff16146112dc576040517f08c379a00000000000000000000000000000000000000000000000000000000081526004016112d390612492565b60405180910390fd5b8084101561131f576040517f08c379a000000000000000000000000000000000000000000000000000000000815260040161131690612d05565b60405180910390fd5b60016003600087815260200190815260200160002060006101000a81548160ff021916908315150217905550836004600087815260200190815260200160002081905550600560003373ffffffffffffffffffffffffffffffffffffffff1673ffffffffffffffffffffffffffffffffffffffff1681526020019081526020016000208590806001815401808255809150506001900390600052602060002001600090919091909150558460007fcc0c9a64fc84375ceec206f2fc87eb06d3cacae06967a94d2ba499000ea17617866040516113fb9190611e94565b60405180910390a35050505050565b60006001600083815260200190815260200160002090508060070160009054906101000a900460ff16611472576040517f08c379a000000000000000000000000000000000000000000000000000000000815260040161146990612d71565b60405180910390fd5b3373ffffffffffffffffffffffffffffffffffffffff168160040160009054906101000a900473ffffffffffffffffffffffffffffffffffffffff1673ffffffffffffffffffffffffffffffffffffffff1614611504576040517f08c379a00000000000000000000000000000000000000000000000000000000081526004016114fb90612e03565b60405180910390fd5b60008160070160006101000a81548160ff02191690831515021790555060006002600084815260200190815260200160002060006101000a81548160ff021916908315150217905550600073ffffffffffffffffffffffffffffffffffffffff168160050160009054906101000a900473ffffffffffffffffffffffffffffffffffffffff1673ffffffffffffffffffffffffffffffffffffffff1614611615578060050160009054906101000a900473ffffffffffffffffffffffffffffffffffffffff1673ffffffffffffffffffffffffffffffffffffffff166108fc82600601549081150290604051600060405180830381858888f19350505050158015611613573d6000803e3d6000fd5b505b817f10ac9f0bb365b5d22d7bec500408692f23fdf83eadfec71615ef88b4c1134f0e336040516116459190612573565b60405180910390a25050565b60006001600083815260200190815260200160002090508060070160009054906101000a900460ff166116b9576040517f08c379a00000000000000000000000000000000000000000000000000000000081526004016116b090612d71565b60405180910390fd5b8060020154421015611700576040517f08c379a00000000000000000000000000000000000000000000000000000000081526004016116f790612e6f565b60405180910390fd5b8060030154421115611747576040517f08c379a000000000000000000000000000000000000000000000000000000000815260040161173e90612edb565b60405180910390fd5b8060060154341161175b8260060154611cae565b60405160200161176b9190612fb4565b604051602081830303815290604052906117bb576040517f08c379a00000000000000000000000000000000000000000000000000000000081526004016117b2919061300f565b60405180910390fd5b5080600101543411611802576040517f08c379a00000000000000000000000000000000000000000000000000000000081526004016117f9906130a3565b60405180910390fd5b600073ffffffffffffffffffffffffffffffffffffffff168160050160009054906101000a900473ffffffffffffffffffffffffffffffffffffffff1673ffffffffffffffffffffffffffffffffffffffff16146118ca578060050160009054906101000a900473ffffffffffffffffffffffffffffffffffffffff1673ffffffffffffffffffffffffffffffffffffffff166108fc82600601549081150290604051600060405180830381858888f193505050501580156118c8573d6000803e3d6000fd5b505b338160050160006101000a81548173ffffffffffffffffffffffffffffffffffffffff021916908373ffffffffffffffffffffffffffffffffffffffff160217905550348160060181905550817f0e54eff26401bf69b81b26f60bd85ef47f5d85275c1d268d84f68d6897431c4733346040516119489291906130c3565b60405180910390a25050565b60008054906101000a900473ffffffffffffffffffffffffffffffffffffffff1681565b60026020528060005260406000206000915054906101000a900460ff1681565b60006001600083815260200190815260200160002090508060070160009054906101000a900460ff16611a00576040517f08c379a00000000000000000000000000000000000000000000000000000000081526004016119f790612d71565b60405180910390fd5b80600301544211611a46576040517f08c379a0000000000000000000000000000000000000000000000000000000008152600401611a3d90613138565b60405180910390fd5b60008160070160006101000a81548160ff02191690831515021790555060006002600084815260200190815260200160002060006101000a81548160ff021916908315150217905550600073ffffffffffffffffffffffffffffffffffffffff168160050160009054906101000a900473ffffffffffffffffffffffffffffffffffffffff1673ffffffffffffffffffffffffffffffffffffffff1614611c6e5760008054906101000a900473ffffffffffffffffffffffffffffffffffffffff1673ffffffffffffffffffffffffffffffffffffffff16639036c050838360050160009054906101000a900473ffffffffffffffffffffffffffffffffffffffff166040518363ffffffff1660e01b8152600401611b66929190612aef565b600060405180830381600087803b158015611b8057600080fd5b505af1158015611b94573d6000803e3d6000fd5b505050508060040160009054906101000a900473ffffffffffffffffffffffffffffffffffffffff1673ffffffffffffffffffffffffffffffffffffffff166108fc82600601549081150290604051600060405180830381858888f19350505050158015611c06573d6000803e3d6000fd5b50817f4d9113a1377d665eaa1f9168a9c9080f2e488cb820b10149de3d6d2e0f2780c78260050160009054906101000a900473ffffffffffffffffffffffffffffffffffffffff168360060154604051611c619291906130c3565b60405180910390a2611caa565b817f4d9113a1377d665eaa1f9168a9c9080f2e488cb820b10149de3d6d2e0f2780c7600080604051611ca1929190613193565b60405180910390a25b5050565b606060008203611cf5576040518060400160405280600181526020017f30000000000000000000000000000000000000000000000000000000000000008152509050611e09565b600082905060005b60008214611d27578080611d10906131bc565b915050600a82611d209190613233565b9150611cfd565b60008167ffffffffffffffff811115611d4357611d4261217e565b5b6040519080825280601f01601f191660200182016040528015611d755781602001600182028036833780820191505090505b5090505b60008514611e0257600182611d8e9190612510565b9150600a85611d9d9190613264565b6030611da99190613295565b60f81b818381518110611dbf57611dbe6124b2565b5b60200101907effffffffffffffffffffffffffffffffffffffffffffffffffffffffffffff1916908160001a905350600a85611dfb9190613233565b9450611d79565b8093505050505b919050565b6000604051905090565b600080fd5b600080fd5b6000819050919050565b611e3581611e22565b8114611e4057600080fd5b50565b600081359050611e5281611e2c565b92915050565b600060208284031215611e6e57611e6d611e18565b5b6000611e7c84828501611e43565b91505092915050565b611e8e81611e22565b82525050565b6000602082019050611ea96000830184611e85565b92915050565b60008060008060808587031215611ec957611ec8611e18565b5b6000611ed787828801611e43565b9450506020611ee887828801611e43565b9350506040611ef987828801611e43565b9250506060611f0a87828801611e43565b91505092959194509250565b60008115159050919050565b611f2b81611f16565b82525050565b6000602082019050611f466000830184611f22565b92915050565b600073ffffffffffffffffffffffffffffffffffffffff82169050919050565b6000611f7782611f4c565b9050919050565b611f8781611f6c565b82525050565b6000611f9882611f4c565b9050919050565b611fa881611f8d565b82525050565b600061010082019050611fc4600083018b611e85565b611fd1602083018a611e85565b611fde6040830189611e85565b611feb6060830188611e85565b611ff86080830187611f7e565b61200560a0830186611f9f565b61201260c0830185611e85565b61201f60e0830184611f22565b9998505050505050505050565b6000806040838503121561204357612042611e18565b5b600061205185828601611e43565b925050602061206285828601611e43565b9150509250929050565b6000819050919050565b600061209161208c61208784611f4c565b61206c565b611f4c565b9050919050565b60006120a382612076565b9050919050565b60006120b582612098565b9050919050565b6120c5816120aa565b82525050565b60006020820190506120e060008301846120bc565b92915050565b600082825260208201905092915050565b7f4e4654206973206e6f74206c697374656420666f722073616c65000000000000600082015250565b600061212d601a836120e6565b9150612138826120f7565b602082019050919050565b6000602082019050818103600083015261215c81612120565b9050919050565b600080fd5b600080fd5b6000601f19601f8301169050919050565b7f4e487b7100000000000000000000000000000000000000000000000000000000600052604160045260246000fd5b6121b68261216d565b810181811067ffffffffffffffff821117156121d5576121d461217e565b5b80604052505050565b60006121e8611e0e565b90506121f482826121ad565b919050565b600067ffffffffffffffff8211156122145761221361217e565b5b61221d8261216d565b9050602081019050919050565b60005b8381101561224857808201518184015260208101905061222d565b60008484015250505050565b6000612267612262846121f9565b6121de565b90508281526020810184848401111561228357612282612168565b5b61228e84828561222a565b509392505050565b600082601f8301126122ab576122aa612163565b5b81516122bb848260208601612254565b91505092915050565b6122cd81611f8d565b81146122d857600080fd5b50565b6000815190506122ea816122c4565b92915050565b6122f981611f16565b811461230457600080fd5b50565b600081519050612316816122f0565b92915050565b60008151905061232b81611e2c565b92915050565b6000806000806080858703121561234b5761234a611e18565b5b600085015167ffffffffffffffff81111561236957612368611e1d565b5b61237587828801612296565b9450506020612386878288016122db565b935050604061239787828801612307565b92505060606123a88782880161231c565b91505092959194509250565b7f4e465420646f6573206e6f742065786973740000000000000000000000000000600082015250565b60006123ea6012836120e6565b91506123f5826123b4565b602082019050919050565b60006020820190508181036000830152612419816123dd565b9050919050565b7f596f7520617265206e6f7420746865206f776e6572206f662074686973204e4660008201527f5400000000000000000000000000000000000000000000000000000000000000602082015250565b600061247c6021836120e6565b915061248782612420565b604082019050919050565b600060208201905081810360008301526124ab8161246f565b9050919050565b7f4e487b7100000000000000000000000000000000000000000000000000000000600052603260045260246000fd5b7f4e487b7100000000000000000000000000000000000000000000000000000000600052601160045260246000fd5b600061251b82611e22565b915061252683611e22565b925082820390508181111561253e5761253d6124e1565b5b92915050565b7f4e487b7100000000000000000000000000000000000000000000000000000000600052603160045260246000fd5b60006020820190506125886000830184611f9f565b92915050565b7f5374617274696e67207072696365206d757374206265206174206c656173742060008201527f302e303320455448000000000000000000000000000000000000000000000000602082015250565b60006125ea6028836120e6565b91506125f58261258e565b604082019050919050565b60006020820190508181036000830152612619816125dd565b9050919050565b7f4e465420697320616c7265616479206c697374656420666f722073616c650000600082015250565b6000612656601e836120e6565b915061266182612620565b602082019050919050565b6000602082019050818103600083015261268581612649565b9050919050565b7f41756374696f6e206d7573742072756e20666f72206174206c6561737420312060008201527f6d696e7574650000000000000000000000000000000000000000000000000000602082015250565b60006126e86026836120e6565b91506126f38261268c565b604082019050919050565b60006020820190508181036000830152612717816126db565b9050919050565b7f53746172742074696d65206d7573742062652063757272656e74206f7220667560008201527f7475726500000000000000000000000000000000000000000000000000000000602082015250565b600061277a6024836120e6565b91506127858261271e565b604082019050919050565b600060208201905081810360008301526127a98161276d565b9050919050565b7f456e642074696d65206d7573742062652061667465722073746172742074696d60008201527f6500000000000000000000000000000000000000000000000000000000000000602082015250565b600061280c6021836120e6565b9150612817826127b0565b604082019050919050565b6000602082019050818103600083015261283b816127ff565b9050919050565b7f41756374696f6e20616c72656164792065786973747320666f7220746869732060008201527f4e46540000000000000000000000000000000000000000000000000000000000602082015250565b600061289e6023836120e6565b91506128a982612842565b604082019050919050565b600060208201905081810360008301526128cd81612891565b9050919050565b7f5374617274696e67207072696365206d757374206265206174206c656173742060008201527f746865206d696e74207072696365000000000000000000000000000000000000602082015250565b6000612930602e836120e6565b915061293b826128d4565b604082019050919050565b6000602082019050818103600083015261295f81612923565b9050919050565b600060808201905061297b6000830187611e85565b6129886020830186611e85565b6129956040830185611e85565b6129a26060830184611f9f565b95945050505050565b7f4e4654206e6f74206c697374656420666f722073616c65000000000000000000600082015250565b60006129e16017836120e6565b91506129ec826129ab565b602082019050919050565b60006020820190508181036000830152612a10816129d4565b9050919050565b7f496e636f7272656374207061796d656e7420616d6f756e740000000000000000600082015250565b6000612a4d6018836120e6565b9150612a5882612a17565b602082019050919050565b60006020820190508181036000830152612a7c81612a40565b9050919050565b7f43616e6e6f742062757920796f7572206f776e204e4654000000000000000000600082015250565b6000612ab96017836120e6565b9150612ac482612a83565b602082019050919050565b60006020820190508181036000830152612ae881612aac565b9050919050565b6000604082019050612b046000830185611e85565b612b116020830184611f9f565b9392505050565b6000606082019050612b2d6000830186611f9f565b612b3a6020830185611f9f565b612b476040830184611e85565b949350505050565b7f5072696365206d757374206265206174206c6561737420302e30332045544800600082015250565b6000612b85601f836120e6565b9150612b9082612b4f565b602082019050919050565b60006020820190508181036000830152612bb481612b78565b9050919050565b7f4e465420616c7265616479206c69737465640000000000000000000000000000600082015250565b6000612bf16012836120e6565b9150612bfc82612bbb565b602082019050919050565b60006020820190508181036000830152612c2081612be4565b9050919050565b7f4e46542069732063757272656e746c7920696e2061756374696f6e0000000000600082015250565b6000612c5d601b836120e6565b9150612c6882612c27565b602082019050919050565b60006020820190508181036000830152612c8c81612c50565b9050919050565b7f53616c65207072696365206d757374206265206174206c65617374207468652060008201527f6d696e7420707269636500000000000000000000000000000000000000000000602082015250565b6000612cef602a836120e6565b9150612cfa82612c93565b604082019050919050565b60006020820190508181036000830152612d1e81612ce2565b9050919050565b7f41756374696f6e206973206e6f74206163746976650000000000000000000000600082015250565b6000612d5b6015836120e6565b9150612d6682612d25565b602082019050919050565b60006020820190508181036000830152612d8a81612d4e565b9050919050565b7f596f7520617265206e6f74207468652073656c6c6572206f662074686973206160008201527f756374696f6e0000000000000000000000000000000000000000000000000000602082015250565b6000612ded6026836120e6565b9150612df882612d91565b604082019050919050565b60006020820190508181036000830152612e1c81612de0565b9050919050565b7f41756374696f6e20686173206e6f742073746172746564207965740000000000600082015250565b6000612e59601b836120e6565b9150612e6482612e23565b602082019050919050565b60006020820190508181036000830152612e8881612e4c565b9050919050565b7f41756374696f6e2068617320616c726561647920656e64656400000000000000600082015250565b6000612ec56019836120e6565b9150612ed082612e8f565b602082019050919050565b60006020820190508181036000830152612ef481612eb8565b9050919050565b600081905092915050565b7f42696420616d6f756e74206d75737420626520686967686572207468616e207460008201527f68652063757272656e742068696768657374206269643a200000000000000000602082015250565b6000612f62603883612efb565b9150612f6d82612f06565b603882019050919050565b600081519050919050565b6000612f8e82612f78565b612f988185612efb565b9350612fa881856020860161222a565b80840191505092915050565b6000612fbf82612f55565b9150612fcb8284612f83565b915081905092915050565b6000612fe182612f78565b612feb81856120e6565b9350612ffb81856020860161222a565b6130048161216d565b840191505092915050565b600060208201905081810360008301526130298184612fd6565b905092915050565b7f42696420616d6f756e74206d75737420626520686967686572207468616e207460008201527f6865207374617274696e67207072696365000000000000000000000000000000602082015250565b600061308d6031836120e6565b915061309882613031565b604082019050919050565b600060208201905081810360008301526130bc81613080565b9050919050565b60006040820190506130d86000830185611f9f565b6130e56020830184611e85565b9392505050565b7f41756374696f6e20686173206e6f7420656e6465642079657400000000000000600082015250565b60006131226019836120e6565b915061312d826130ec565b602082019050919050565b6000602082019050818103600083015261315181613115565b9050919050565b6000819050919050565b600061317d61317861317384613158565b61206c565b611e22565b9050919050565b61318d81613162565b82525050565b60006040820190506131a86000830185611f9f565b6131b56020830184613184565b9392505050565b60006131c782611e22565b91507fffffffffffffffffffffffffffffffffffffffffffffffffffffffffffffffff82036131f9576131f86124e1565b5b600182019050919050565b7f4e487b7100000000000000000000000000000000000000000000000000000000600052601260045260246000fd5b600061323e82611e22565b915061324983611e22565b92508261325957613258613204565b5b828204905092915050565b600061326f82611e22565b915061327a83611e22565b92508261328a57613289613204565b5b828206905092915050565b60006132a082611e22565b91506132ab83611e22565b92508282019050808211156132c3576132c26124e1565b5b9291505056fea26469706673582212209cbcfe42d30f94f79b9d2d31bbd92d357fe3dc526dd93fee47b1ca47c84bc92564736f6c634300081c0033",
  "linkReferences": {},
  "deployedLinkReferences": {}
}