{
  "_format": "hh-sol-artifact-1",
  "contractName": "NFTMarketplace",
  "sourceName": "contracts/NFTMarketplace.sol",
  "abi": [
    {
      "inputs": [
        {
          "internalType": "address",
          "name": "_createCollectionAddress",
          "type": "address"
        }
      ],
      "stateMutability": "nonpayable",
      "type": "constructor"
    },
    {
      "anonymous": false,
      "inputs": [
        {
          "indexed": true,
          "internalType": "uint256",
          "name": "nftId",
          "type": "uint256"
        },
        {
          "indexed": false,
          "internalType": "address",
          "name": "seller",
          "type": "address"
        }
      ],
      "name": "AuctionCancelled",
      "type": "event"
    },
    {
      "anonymous": false,
      "inputs": [
        {
          "indexed": true,
          "internalType": "uint256",
          "name": "nftId",
          "type": "uint256"
        },
        {
          "indexed": false,
          "internalType": "uint256",
          "name": "startingPrice",
          "type": "uint256"
        },
        {
          "indexed": false,
          "internalType": "uint256",
          "name": "startTime",
          "type": "uint256"
        },
        {
          "indexed": false,
          "internalType": "uint256",
          "name": "endTime",
          "type": "uint256"
        },
        {
          "indexed": false,
          "internalType": "address",
          "name": "seller",
          "type": "address"
        }
      ],
      "name": "AuctionCreated",
      "type": "event"
    },
    {
      "anonymous": false,
      "inputs": [
        {
          "indexed": true,
          "internalType": "uint256",
          "name": "nftId",
          "type": "uint256"
        },
        {
          "indexed": false,
          "internalType": "address",
          "name": "winner",
          "type": "address"
        },
        {
          "indexed": false,
          "internalType": "uint256",
          "name": "winningBid",
          "type": "uint256"
        }
      ],
      "name": "AuctionFinalized",
      "type": "event"
    },
    {
      "anonymous": false,
      "inputs": [
        {
          "indexed": true,
          "internalType": "uint256",
          "name": "nftId",
          "type": "uint256"
        },
        {
          "indexed": false,
          "internalType": "address",
          "name": "bidder",
          "type": "address"
        },
        {
          "indexed": false,
          "internalType": "uint256",
          "name": "bidAmount",
          "type": "uint256"
        }
      ],
      "name": "BidPlaced",
      "type": "event"
    },
    {
      "anonymous": false,
      "inputs": [
        {
          "indexed": true,
          "internalType": "uint256",
          "name": "collectionId",
          "type": "uint256"
        },
        {
          "indexed": true,
          "internalType": "uint256",
          "name": "nftId",
          "type": "uint256"
        },
        {
          "indexed": false,
          "internalType": "uint256",
          "name": "price",
          "type": "uint256"
        }
      ],
      "name": "NFTListed",
      "type": "event"
    },
    {
      "anonymous": false,
      "inputs": [
        {
          "indexed": true,
          "internalType": "uint256",
          "name": "nftId",
          "type": "uint256"
        },
        {
          "indexed": false,
          "internalType": "address",
          "name": "seller",
          "type": "address"
        }
      ],
      "name": "NFTSaleCancelled",
      "type": "event"
    },
    {
      "anonymous": false,
      "inputs": [
        {
          "indexed": true,
          "internalType": "uint256",
          "name": "nftId",
          "type": "uint256"
        },
        {
          "indexed": false,
          "internalType": "address",
          "name": "seller",
          "type": "address"
        },
        {
          "indexed": false,
          "internalType": "address",
          "name": "buyer",
          "type": "address"
        },
        {
          "indexed": false,
          "internalType": "uint256",
          "name": "price",
          "type": "uint256"
        }
      ],
      "name": "NFTSold",
      "type": "event"
    },
    {
      "inputs": [
        {
          "internalType": "uint256",
          "name": "",
          "type": "uint256"
        }
      ],
      "name": "auctions",
      "outputs": [
        {
          "internalType": "uint256",
          "name": "nftId",
          "type": "uint256"
        },
        {
          "internalType": "uint256",
          "name": "startingPrice",
          "type": "uint256"
        },
        {
          "internalType": "uint256",
          "name": "startTime",
          "type": "uint256"
        },
        {
          "internalType": "uint256",
          "name": "endTime",
          "type": "uint256"
        },
        {
          "internalType": "address payable",
          "name": "seller",
          "type": "address"
        },
        {
          "internalType": "address",
          "name": "highestBidder",
          "type": "address"
        },
        {
          "internalType": "uint256",
          "name": "highestBid",
          "type": "uint256"
        },
        {
          "internalType": "bool",
          "name": "isActive",
          "type": "bool"
        }
      ],
      "stateMutability": "view",
      "type": "function"
    },
    {
      "inputs": [
        {
          "internalType": "uint256",
          "name": "nftId",
          "type": "uint256"
        }
      ],
      "name": "buyNFT",
      "outputs": [],
      "stateMutability": "payable",
      "type": "function"
    },
    {
      "inputs": [
        {
          "internalType": "uint256",
          "name": "nftId",
          "type": "uint256"
        }
      ],
      "name": "cancelAuction",
      "outputs": [],
      "stateMutability": "nonpayable",
      "type": "function"
    },
    {
      "inputs": [
        {
          "internalType": "uint256",
          "name": "nftId",
          "type": "uint256"
        }
      ],
      "name": "cancelSell",
      "outputs": [],
      "stateMutability": "nonpayable",
      "type": "function"
    },
    {
      "inputs": [
        {
          "internalType": "uint256",
          "name": "nftId",
          "type": "uint256"
        },
        {
          "internalType": "uint256",
          "name": "startingPrice",
          "type": "uint256"
        },
        {
          "internalType": "uint256",
          "name": "startTime",
          "type": "uint256"
        },
        {
          "internalType": "uint256",
          "name": "endTime",
          "type": "uint256"
        }
      ],
      "name": "createAuction",
      "outputs": [],
      "stateMutability": "nonpayable",
      "type": "function"
    },
    {
      "inputs": [],
      "name": "createCollectionContract",
      "outputs": [
        {
          "internalType": "contract ICreateCollection",
          "name": "",
          "type": "address"
        }
      ],
      "stateMutability": "view",
      "type": "function"
    },
    {
      "inputs": [
        {
          "internalType": "uint256",
          "name": "nftId",
          "type": "uint256"
        }
      ],
      "name": "finalizeAuction",
      "outputs": [],
      "stateMutability": "nonpayable",
      "type": "function"
    },
    {
      "inputs": [],
      "name": "getCurrentTime",
      "outputs": [
        {
          "internalType": "uint256",
          "name": "",
          "type": "uint256"
        }
      ],
      "stateMutability": "view",
      "type": "function"
    },
    {
      "inputs": [
        {
          "internalType": "uint256",
          "name": "",
          "type": "uint256"
        }
      ],
      "name": "listedForSale",
      "outputs": [
        {
          "internalType": "bool",
          "name": "",
          "type": "bool"
        }
      ],
      "stateMutability": "view",
      "type": "function"
    },
    {
      "inputs": [
        {
          "internalType": "uint256",
          "name": "",
          "type": "uint256"
        }
      ],
      "name": "nftInAuction",
      "outputs": [
        {
          "internalType": "bool",
          "name": "",
          "type": "bool"
        }
      ],
      "stateMutability": "view",
      "type": "function"
    },
    {
      "inputs": [
        {
          "internalType": "uint256",
          "name": "nftId",
          "type": "uint256"
        }
      ],
      "name": "placeBid",
      "outputs": [],
      "stateMutability": "payable",
      "type": "function"
    },
    {
      "inputs": [
        {
          "internalType": "uint256",
          "name": "nftId",
          "type": "uint256"
        },
        {
          "internalType": "uint256",
          "name": "price",
          "type": "uint256"
        }
      ],
      "name": "sellNFT",
      "outputs": [],
      "stateMutability": "nonpayable",
      "type": "function"
    },
    {
      "inputs": [
        {
          "internalType": "uint256",
          "name": "value",
          "type": "uint256"
        }
      ],
      "name": "toString",
      "outputs": [
        {
          "internalType": "string",
          "name": "",
          "type": "string"
        }
      ],
      "stateMutability": "pure",
      "type": "function"
    }
  ],
  "bytecode": "0x608060405234801561001057600080fd5b506040516132c03803806132c0833981810160405281019061003291906100db565b806000806101000a81548173ffffffffffffffffffffffffffffffffffffffff021916908373ffffffffffffffffffffffffffffffffffffffff16021790555050610108565b600080fd5b600073ffffffffffffffffffffffffffffffffffffffff82169050919050565b60006100a88261007d565b9050919050565b6100b88161009d565b81146100c357600080fd5b50565b6000815190506100d5816100af565b92915050565b6000602082840312156100f1576100f0610078565b5b60006100ff848285016100c6565b91505092915050565b6131a9806101176000396000f3fe6080604052600436106100c25760003560e01c80636900a3ae1161007f5780639979ef45116100595780639979ef4514610270578063afe4143d1461028c578063ba18429a146102b7578063e8083863146102f4576100c2565b80636900a3ae146101e157806391a48a1e1461021e57806396b5a75514610247576100c2565b806307c9cd45146100c757806329cb924d146100f0578063431f21da1461011b57806351ed82881461014457806354c0487314610160578063571a26a01461019d575b600080fd5b3480156100d357600080fd5b506100ee60048036038101906100e99190611e26565b61031d565b005b3480156100fc57600080fd5b50610105610655565b6040516101129190611e62565b60405180910390f35b34801561012757600080fd5b50610142600480360381019061013d9190611e7d565b61065d565b005b61015e60048036038101906101599190611e26565b610b6b565b005b34801561016c57600080fd5b5061018760048036038101906101829190611e26565b610fd6565b6040516101949190611eff565b60405180910390f35b3480156101a957600080fd5b506101c460048036038101906101bf9190611e26565b610ff6565b6040516101d8989796959493929190611f7c565b60405180910390f35b3480156101ed57600080fd5b5061020860048036038101906102039190611e26565b61108b565b604051610215919061208a565b60405180910390f35b34801561022a57600080fd5b50610245600480360381019061024091906120ac565b6111eb565b005b34801561025357600080fd5b5061026e60048036038101906102699190611e26565b61157f565b005b61028a60048036038101906102859190611e26565b6117c6565b005b34801561029857600080fd5b506102a1611a82565b6040516102ae919061214b565b60405180910390f35b3480156102c357600080fd5b506102de60048036038101906102d99190611e26565b611aa6565b6040516102eb9190611eff565b60405180910390f35b34801561030057600080fd5b5061031b60048036038101906103169190611e26565b611ac6565b005b6003600082815260200190815260200160002060009054906101000a900460ff1661037d576040517f08c379a0000000000000000000000000000000000000000000000000000000008152600401610374906121b2565b60405180910390fd5b60008060008054906101000a900473ffffffffffffffffffffffffffffffffffffffff1673ffffffffffffffffffffffffffffffffffffffff166382260f35846040518263ffffffff1660e01b81526004016103d99190611e62565b600060405180830381865afa1580156103f6573d6000803e3d6000fd5b505050506040513d6000823e3d601f19601f8201168201806040525081019061041f9190612365565b50925092505080610465576040517f08c379a000000000000000000000000000000000000000000000000000000000815260040161045c90612434565b60405180910390fd5b3373ffffffffffffffffffffffffffffffffffffffff168273ffffffffffffffffffffffffffffffffffffffff16146104d3576040517f08c379a00000000000000000000000000000000000000000000000000000000081526004016104ca906124c6565b60405180910390fd5b60006003600085815260200190815260200160002060006101000a81548160ff021916908315150217905550600060046000858152602001908152602001600020819055506000600560003373ffffffffffffffffffffffffffffffffffffffff1673ffffffffffffffffffffffffffffffffffffffff168152602001908152602001600020905060005b8180549050811015610616578482828154811061057e5761057d6124e6565b5b9060005260206000200154036106095781600183805490506105a09190612544565b815481106105b1576105b06124e6565b5b90600052602060002001548282815481106105cf576105ce6124e6565b5b9060005260206000200181905550818054806105ee576105ed612578565b5b60019003818190600052602060002001600090559055610616565b808060010191505061055e565b50837f5e86a35827477c5388f131ae2ae3671a03f959d1815796f76fbc695fd5adedea3360405161064791906125a7565b60405180910390a250505050565b600042905090565b666a94d74f4300008310156106a7576040517f08c379a000000000000000000000000000000000000000000000000000000000815260040161069e90612634565b60405180910390fd5b60008060008060009054906101000a900473ffffffffffffffffffffffffffffffffffffffff1673ffffffffffffffffffffffffffffffffffffffff166382260f35886040518263ffffffff1660e01b81526004016107069190611e62565b600060405180830381865afa158015610723573d6000803e3d6000fd5b505050506040513d6000823e3d601f19601f8201168201806040525081019061074c9190612365565b9350935093505081610793576040517f08c379a000000000000000000000000000000000000000000000000000000000815260040161078a90612434565b60405180910390fd5b3373ffffffffffffffffffffffffffffffffffffffff168373ffffffffffffffffffffffffffffffffffffffff1614610801576040517f08c379a00000000000000000000000000000000000000000000000000000000081526004016107f8906124c6565b60405180910390fd5b6003600088815260200190815260200160002060009054906101000a900460ff1615610862576040517f08c379a0000000000000000000000000000000000000000000000000000000008152600401610859906126a0565b60405180910390fd5b603c85856108709190612544565b10156108b1576040517f08c379a00000000000000000000000000000000000000000000000000000000081526004016108a890612732565b60405180910390fd5b4284116108f3576040517f08c379a00000000000000000000000000000000000000000000000000000000081526004016108ea9061279e565b60405180910390fd5b6002600088815260200190815260200160002060009054906101000a900460ff1615610954576040517f08c379a000000000000000000000000000000000000000000000000000000000815260040161094b90612830565b60405180910390fd5b80861015610997576040517f08c379a000000000000000000000000000000000000000000000000000000000815260040161098e906128c2565b60405180910390fd5b6040518061010001604052808881526020018781526020014281526020018581526020013373ffffffffffffffffffffffffffffffffffffffff168152602001600073ffffffffffffffffffffffffffffffffffffffff1681526020016000815260200160011515815250600160008981526020019081526020016000206000820151816000015560208201518160010155604082015181600201556060820151816003015560808201518160040160006101000a81548173ffffffffffffffffffffffffffffffffffffffff021916908373ffffffffffffffffffffffffffffffffffffffff16021790555060a08201518160050160006101000a81548173ffffffffffffffffffffffffffffffffffffffff021916908373ffffffffffffffffffffffffffffffffffffffff16021790555060c0820151816006015560e08201518160070160006101000a81548160ff02191690831515021790555090505060016002600089815260200190815260200160002060006101000a81548160ff021916908315150217905550867ffe21114808b55d6a54bec91c46a20e8dfe7f033edf3f058a5012a829d8d0e3ca87428733604051610b5a94939291906128e2565b60405180910390a250505050505050565b6003600082815260200190815260200160002060009054906101000a900460ff16610bcb576040517f08c379a0000000000000000000000000000000000000000000000000000000008152600401610bc290612973565b60405180910390fd5b600060046000838152602001908152602001600020549050803414610c25576040517f08c379a0000000000000000000000000000000000000000000000000000000008152600401610c1c906129df565b60405180910390fd5b60008060008054906101000a900473ffffffffffffffffffffffffffffffffffffffff1673ffffffffffffffffffffffffffffffffffffffff166382260f35856040518263ffffffff1660e01b8152600401610c819190611e62565b600060405180830381865afa158015610c9e573d6000803e3d6000fd5b505050506040513d6000823e3d601f19601f82011682018060405250810190610cc79190612365565b50925092505080610d0d576040517f08c379a0000000000000000000000000000000000000000000000000000000008152600401610d0490612434565b60405180910390fd5b8173ffffffffffffffffffffffffffffffffffffffff163373ffffffffffffffffffffffffffffffffffffffff1603610d7b576040517f08c379a0000000000000000000000000000000000000000000000000000000008152600401610d7290612a4b565b60405180910390fd5b60006003600086815260200190815260200160002060006101000a81548160ff021916908315150217905550600060046000868152602001908152602001600020819055506000600560008473ffffffffffffffffffffffffffffffffffffffff1673ffffffffffffffffffffffffffffffffffffffff168152602001908152602001600020905060005b8180549050811015610ebe5785828281548110610e2657610e256124e6565b5b906000526020600020015403610eb1578160018380549050610e489190612544565b81548110610e5957610e586124e6565b5b9060005260206000200154828281548110610e7757610e766124e6565b5b906000526020600020018190555081805480610e9657610e95612578565b5b60019003818190600052602060002001600090559055610ebe565b8080600101915050610e06565b508273ffffffffffffffffffffffffffffffffffffffff166108fc349081150290604051600060405180830381858888f19350505050158015610f05573d6000803e3d6000fd5b5060008054906101000a900473ffffffffffffffffffffffffffffffffffffffff1673ffffffffffffffffffffffffffffffffffffffff16639036c05086336040518363ffffffff1660e01b8152600401610f61929190612a6b565b600060405180830381600087803b158015610f7b57600080fd5b505af1158015610f8f573d6000803e3d6000fd5b50505050847f8562eb94748e30bb0071e932744ce902b460c683474fcb3bfd567ffa16b1afb2843387604051610fc793929190612a94565b60405180910390a25050505050565b60036020528060005260406000206000915054906101000a900460ff1681565b60016020528060005260406000206000915090508060000154908060010154908060020154908060030154908060040160009054906101000a900473ffffffffffffffffffffffffffffffffffffffff16908060050160009054906101000a900473ffffffffffffffffffffffffffffffffffffffff16908060060154908060070160009054906101000a900460ff16905088565b6060600082036110d2576040518060400160405280600181526020017f300000000000000000000000000000000000000000000000000000000000000081525090506111e6565b600082905060005b600082146111045780806110ed90612acb565b915050600a826110fd9190612b42565b91506110da565b60008167ffffffffffffffff8111156111205761111f6121dc565b5b6040519080825280601f01601f1916602001820160405280156111525781602001600182028036833780820191505090505b5090505b600085146111df5760018261116b9190612544565b9150600a8561117a9190612b73565b60306111869190612ba4565b60f81b81838151811061119c5761119b6124e6565b5b60200101907effffffffffffffffffffffffffffffffffffffffffffffffffffffffffffff1916908160001a905350600a856111d89190612b42565b9450611156565b8093505050505b919050565b666a94d74f430000811015611235576040517f08c379a000000000000000000000000000000000000000000000000000000000815260040161122c90612c24565b60405180910390fd5b6003600083815260200190815260200160002060009054906101000a900460ff1615611296576040517f08c379a000000000000000000000000000000000000000000000000000000000815260040161128d90612c90565b60405180910390fd5b6002600083815260200190815260200160002060009054906101000a900460ff16156112f7576040517f08c379a00000000000000000000000000000000000000000000000000000000081526004016112ee90612cfc565b60405180910390fd5b60008060008060009054906101000a900473ffffffffffffffffffffffffffffffffffffffff1673ffffffffffffffffffffffffffffffffffffffff166382260f35866040518263ffffffff1660e01b81526004016113569190611e62565b600060405180830381865afa158015611373573d6000803e3d6000fd5b505050506040513d6000823e3d601f19601f8201168201806040525081019061139c9190612365565b93509350935050816113e3576040517f08c379a00000000000000000000000000000000000000000000000000000000081526004016113da90612434565b60405180910390fd5b3373ffffffffffffffffffffffffffffffffffffffff168373ffffffffffffffffffffffffffffffffffffffff1614611451576040517f08c379a0000000000000000000000000000000000000000000000000000000008152600401611448906124c6565b60405180910390fd5b80841015611494576040517f08c379a000000000000000000000000000000000000000000000000000000000815260040161148b90612d8e565b60405180910390fd5b60016003600087815260200190815260200160002060006101000a81548160ff021916908315150217905550836004600087815260200190815260200160002081905550600560003373ffffffffffffffffffffffffffffffffffffffff1673ffffffffffffffffffffffffffffffffffffffff1681526020019081526020016000208590806001815401808255809150506001900390600052602060002001600090919091909150558460007fcc0c9a64fc84375ceec206f2fc87eb06d3cacae06967a94d2ba499000ea17617866040516115709190611e62565b60405180910390a35050505050565b60006001600083815260200190815260200160002090508060070160009054906101000a900460ff166115e7576040517f08c379a00000000000000000000000000000000000000000000000000000000081526004016115de90612dfa565b60405180910390fd5b3373ffffffffffffffffffffffffffffffffffffffff168160040160009054906101000a900473ffffffffffffffffffffffffffffffffffffffff1673ffffffffffffffffffffffffffffffffffffffff1614611679576040517f08c379a000000000000000000000000000000000000000000000000000000000815260040161167090612e8c565b60405180910390fd5b60008160070160006101000a81548160ff02191690831515021790555060006002600084815260200190815260200160002060006101000a81548160ff021916908315150217905550600073ffffffffffffffffffffffffffffffffffffffff168160050160009054906101000a900473ffffffffffffffffffffffffffffffffffffffff1673ffffffffffffffffffffffffffffffffffffffff161461178a578060050160009054906101000a900473ffffffffffffffffffffffffffffffffffffffff1673ffffffffffffffffffffffffffffffffffffffff166108fc82600601549081150290604051600060405180830381858888f19350505050158015611788573d6000803e3d6000fd5b505b817f10ac9f0bb365b5d22d7bec500408692f23fdf83eadfec71615ef88b4c1134f0e336040516117ba91906125a7565b60405180910390a25050565b60006001600083815260200190815260200160002090508060070160009054906101000a900460ff1661182e576040517f08c379a000000000000000000000000000000000000000000000000000000000815260040161182590612dfa565b60405180910390fd5b8060030154421115611875576040517f08c379a000000000000000000000000000000000000000000000000000000000815260040161186c90612ef8565b60405180910390fd5b80600601543411611889826006015461108b565b6040516020016118999190612fc6565b604051602081830303815290604052906118e9576040517f08c379a00000000000000000000000000000000000000000000000000000000081526004016118e0919061208a565b60405180910390fd5b5080600101543411611930576040517f08c379a00000000000000000000000000000000000000000000000000000000081526004016119279061305a565b60405180910390fd5b600073ffffffffffffffffffffffffffffffffffffffff168160050160009054906101000a900473ffffffffffffffffffffffffffffffffffffffff1673ffffffffffffffffffffffffffffffffffffffff16146119f8578060050160009054906101000a900473ffffffffffffffffffffffffffffffffffffffff1673ffffffffffffffffffffffffffffffffffffffff166108fc82600601549081150290604051600060405180830381858888f193505050501580156119f6573d6000803e3d6000fd5b505b338160050160006101000a81548173ffffffffffffffffffffffffffffffffffffffff021916908373ffffffffffffffffffffffffffffffffffffffff160217905550348160060181905550817f0e54eff26401bf69b81b26f60bd85ef47f5d85275c1d268d84f68d6897431c473334604051611a7692919061307a565b60405180910390a25050565b60008054906101000a900473ffffffffffffffffffffffffffffffffffffffff1681565b60026020528060005260406000206000915054906101000a900460ff1681565b60006001600083815260200190815260200160002090508060070160009054906101000a900460ff16611b2e576040517f08c379a0000000000000000000000000000000000000000000000000000000008152600401611b2590612dfa565b60405180910390fd5b80600301544211611b74576040517f08c379a0000000000000000000000000000000000000000000000000000000008152600401611b6b906130ef565b60405180910390fd5b60008160070160006101000a81548160ff02191690831515021790555060006002600084815260200190815260200160002060006101000a81548160ff021916908315150217905550600073ffffffffffffffffffffffffffffffffffffffff168160050160009054906101000a900473ffffffffffffffffffffffffffffffffffffffff1673ffffffffffffffffffffffffffffffffffffffff1614611d9c5760008054906101000a900473ffffffffffffffffffffffffffffffffffffffff1673ffffffffffffffffffffffffffffffffffffffff16639036c050838360050160009054906101000a900473ffffffffffffffffffffffffffffffffffffffff166040518363ffffffff1660e01b8152600401611c94929190612a6b565b600060405180830381600087803b158015611cae57600080fd5b505af1158015611cc2573d6000803e3d6000fd5b505050508060040160009054906101000a900473ffffffffffffffffffffffffffffffffffffffff1673ffffffffffffffffffffffffffffffffffffffff166108fc82600601549081150290604051600060405180830381858888f19350505050158015611d34573d6000803e3d6000fd5b50817f4d9113a1377d665eaa1f9168a9c9080f2e488cb820b10149de3d6d2e0f2780c78260050160009054906101000a900473ffffffffffffffffffffffffffffffffffffffff168360060154604051611d8f92919061307a565b60405180910390a2611dd8565b817f4d9113a1377d665eaa1f9168a9c9080f2e488cb820b10149de3d6d2e0f2780c7600080604051611dcf92919061314a565b60405180910390a25b5050565b6000604051905090565b600080fd5b600080fd5b6000819050919050565b611e0381611df0565b8114611e0e57600080fd5b50565b600081359050611e2081611dfa565b92915050565b600060208284031215611e3c57611e3b611de6565b5b6000611e4a84828501611e11565b91505092915050565b611e5c81611df0565b82525050565b6000602082019050611e776000830184611e53565b92915050565b60008060008060808587031215611e9757611e96611de6565b5b6000611ea587828801611e11565b9450506020611eb687828801611e11565b9350506040611ec787828801611e11565b9250506060611ed887828801611e11565b91505092959194509250565b60008115159050919050565b611ef981611ee4565b82525050565b6000602082019050611f146000830184611ef0565b92915050565b600073ffffffffffffffffffffffffffffffffffffffff82169050919050565b6000611f4582611f1a565b9050919050565b611f5581611f3a565b82525050565b6000611f6682611f1a565b9050919050565b611f7681611f5b565b82525050565b600061010082019050611f92600083018b611e53565b611f9f602083018a611e53565b611fac6040830189611e53565b611fb96060830188611e53565b611fc66080830187611f4c565b611fd360a0830186611f6d565b611fe060c0830185611e53565b611fed60e0830184611ef0565b9998505050505050505050565b600081519050919050565b600082825260208201905092915050565b60005b83811015612034578082015181840152602081019050612019565b60008484015250505050565b6000601f19601f8301169050919050565b600061205c82611ffa565b6120668185612005565b9350612076818560208601612016565b61207f81612040565b840191505092915050565b600060208201905081810360008301526120a48184612051565b905092915050565b600080604083850312156120c3576120c2611de6565b5b60006120d185828601611e11565b92505060206120e285828601611e11565b9150509250929050565b6000819050919050565b600061211161210c61210784611f1a565b6120ec565b611f1a565b9050919050565b6000612123826120f6565b9050919050565b600061213582612118565b9050919050565b6121458161212a565b82525050565b6000602082019050612160600083018461213c565b92915050565b7f4e4654206973206e6f74206c697374656420666f722073616c65000000000000600082015250565b600061219c601a83612005565b91506121a782612166565b602082019050919050565b600060208201905081810360008301526121cb8161218f565b9050919050565b600080fd5b600080fd5b7f4e487b7100000000000000000000000000000000000000000000000000000000600052604160045260246000fd5b61221482612040565b810181811067ffffffffffffffff82111715612233576122326121dc565b5b80604052505050565b6000612246611ddc565b9050612252828261220b565b919050565b600067ffffffffffffffff821115612272576122716121dc565b5b61227b82612040565b9050602081019050919050565b600061229b61229684612257565b61223c565b9050828152602081018484840111156122b7576122b66121d7565b5b6122c2848285612016565b509392505050565b600082601f8301126122df576122de6121d2565b5b81516122ef848260208601612288565b91505092915050565b61230181611f5b565b811461230c57600080fd5b50565b60008151905061231e816122f8565b92915050565b61232d81611ee4565b811461233857600080fd5b50565b60008151905061234a81612324565b92915050565b60008151905061235f81611dfa565b92915050565b6000806000806080858703121561237f5761237e611de6565b5b600085015167ffffffffffffffff81111561239d5761239c611deb565b5b6123a9878288016122ca565b94505060206123ba8782880161230f565b93505060406123cb8782880161233b565b92505060606123dc87828801612350565b91505092959194509250565b7f4e465420646f6573206e6f742065786973740000000000000000000000000000600082015250565b600061241e601283612005565b9150612429826123e8565b602082019050919050565b6000602082019050818103600083015261244d81612411565b9050919050565b7f596f7520617265206e6f7420746865206f776e6572206f662074686973204e4660008201527f5400000000000000000000000000000000000000000000000000000000000000602082015250565b60006124b0602183612005565b91506124bb82612454565b604082019050919050565b600060208201905081810360008301526124df816124a3565b9050919050565b7f4e487b7100000000000000000000000000000000000000000000000000000000600052603260045260246000fd5b7f4e487b7100000000000000000000000000000000000000000000000000000000600052601160045260246000fd5b600061254f82611df0565b915061255a83611df0565b925082820390508181111561257257612571612515565b5b92915050565b7f4e487b7100000000000000000000000000000000000000000000000000000000600052603160045260246000fd5b60006020820190506125bc6000830184611f6d565b92915050565b7f5374617274696e67207072696365206d757374206265206174206c656173742060008201527f302e303320455448000000000000000000000000000000000000000000000000602082015250565b600061261e602883612005565b9150612629826125c2565b604082019050919050565b6000602082019050818103600083015261264d81612611565b9050919050565b7f4e465420697320616c7265616479206c697374656420666f722073616c650000600082015250565b600061268a601e83612005565b915061269582612654565b602082019050919050565b600060208201905081810360008301526126b98161267d565b9050919050565b7f41756374696f6e206d7573742072756e20666f72206174206c6561737420312060008201527f6d696e7574650000000000000000000000000000000000000000000000000000602082015250565b600061271c602683612005565b9150612727826126c0565b604082019050919050565b6000602082019050818103600083015261274b8161270f565b9050919050565b7f456e642074696d65206d75737420626520696e20746865206675747572650000600082015250565b6000612788601e83612005565b915061279382612752565b602082019050919050565b600060208201905081810360008301526127b78161277b565b9050919050565b7f41756374696f6e20616c72656164792065786973747320666f7220746869732060008201527f4e46540000000000000000000000000000000000000000000000000000000000602082015250565b600061281a602383612005565b9150612825826127be565b604082019050919050565b600060208201905081810360008301526128498161280d565b9050919050565b7f5374617274696e67207072696365206d757374206265206174206c656173742060008201527f746865206d696e74207072696365000000000000000000000000000000000000602082015250565b60006128ac602e83612005565b91506128b782612850565b604082019050919050565b600060208201905081810360008301526128db8161289f565b9050919050565b60006080820190506128f76000830187611e53565b6129046020830186611e53565b6129116040830185611e53565b61291e6060830184611f6d565b95945050505050565b7f4e4654206e6f74206c697374656420666f722073616c65000000000000000000600082015250565b600061295d601783612005565b915061296882612927565b602082019050919050565b6000602082019050818103600083015261298c81612950565b9050919050565b7f496e636f7272656374207061796d656e7420616d6f756e740000000000000000600082015250565b60006129c9601883612005565b91506129d482612993565b602082019050919050565b600060208201905081810360008301526129f8816129bc565b9050919050565b7f43616e6e6f742062757920796f7572206f776e204e4654000000000000000000600082015250565b6000612a35601783612005565b9150612a40826129ff565b602082019050919050565b60006020820190508181036000830152612a6481612a28565b9050919050565b6000604082019050612a806000830185611e53565b612a8d6020830184611f6d565b9392505050565b6000606082019050612aa96000830186611f6d565b612ab66020830185611f6d565b612ac36040830184611e53565b949350505050565b6000612ad682611df0565b91507fffffffffffffffffffffffffffffffffffffffffffffffffffffffffffffffff8203612b0857612b07612515565b5b600182019050919050565b7f4e487b7100000000000000000000000000000000000000000000000000000000600052601260045260246000fd5b6000612b4d82611df0565b9150612b5883611df0565b925082612b6857612b67612b13565b5b828204905092915050565b6000612b7e82611df0565b9150612b8983611df0565b925082612b9957612b98612b13565b5b828206905092915050565b6000612baf82611df0565b9150612bba83611df0565b9250828201905080821115612bd257612bd1612515565b5b92915050565b7f5072696365206d757374206265206174206c6561737420302e30332045544800600082015250565b6000612c0e601f83612005565b9150612c1982612bd8565b602082019050919050565b60006020820190508181036000830152612c3d81612c01565b9050919050565b7f4e465420616c7265616479206c69737465640000000000000000000000000000600082015250565b6000612c7a601283612005565b9150612c8582612c44565b602082019050919050565b60006020820190508181036000830152612ca981612c6d565b9050919050565b7f4e46542069732063757272656e746c7920696e2061756374696f6e0000000000600082015250565b6000612ce6601b83612005565b9150612cf182612cb0565b602082019050919050565b60006020820190508181036000830152612d1581612cd9565b9050919050565b7f53616c65207072696365206d757374206265206174206c65617374207468652060008201527f6d696e7420707269636500000000000000000000000000000000000000000000602082015250565b6000612d78602a83612005565b9150612d8382612d1c565b604082019050919050565b60006020820190508181036000830152612da781612d6b565b9050919050565b7f41756374696f6e206973206e6f74206163746976650000000000000000000000600082015250565b6000612de4601583612005565b9150612def82612dae565b602082019050919050565b60006020820190508181036000830152612e1381612dd7565b9050919050565b7f596f7520617265206e6f74207468652073656c6c6572206f662074686973206160008201527f756374696f6e0000000000000000000000000000000000000000000000000000602082015250565b6000612e76602683612005565b9150612e8182612e1a565b604082019050919050565b60006020820190508181036000830152612ea581612e69565b9050919050565b7f41756374696f6e2068617320616c726561647920656e64656400000000000000600082015250565b6000612ee2601983612005565b9150612eed82612eac565b602082019050919050565b60006020820190508181036000830152612f1181612ed5565b9050919050565b600081905092915050565b7f42696420616d6f756e74206d75737420626520686967686572207468616e207460008201527f68652063757272656e742068696768657374206269643a200000000000000000602082015250565b6000612f7f603883612f18565b9150612f8a82612f23565b603882019050919050565b6000612fa082611ffa565b612faa8185612f18565b9350612fba818560208601612016565b80840191505092915050565b6000612fd182612f72565b9150612fdd8284612f95565b915081905092915050565b7f42696420616d6f756e74206d75737420626520686967686572207468616e207460008201527f6865207374617274696e67207072696365000000000000000000000000000000602082015250565b6000613044603183612005565b915061304f82612fe8565b604082019050919050565b6000602082019050818103600083015261307381613037565b9050919050565b600060408201905061308f6000830185611f6d565b61309c6020830184611e53565b9392505050565b7f41756374696f6e20686173206e6f7420656e6465642079657400000000000000600082015250565b60006130d9601983612005565b91506130e4826130a3565b602082019050919050565b60006020820190508181036000830152613108816130cc565b9050919050565b6000819050919050565b600061313461312f61312a8461310f565b6120ec565b611df0565b9050919050565b61314481613119565b82525050565b600060408201905061315f6000830185611f6d565b61316c602083018461313b565b939250505056fea2646970667358221220bfbc1bc56219318a63d7a85db1cb66dd4c70288b63c27786731776d4255cf78764736f6c634300081c0033",
  "linkReferences": {},
  "deployedLinkReferences": {}
}