{
  "_format": "hh-sol-artifact-1",
  "contractName": "CreateCollection",
  "sourceName": "contracts/CreateCollection.sol",
  "abi": [
    {
      "anonymous": false,
      "inputs": [
        {
          "indexed": true,
          "internalType": "uint256",
          "name": "collectionId",
          "type": "uint256"
        }
      ],
      "name": "CollectionActivated",
      "type": "event"
    },
    {
      "anonymous": false,
      "inputs": [
        {
          "indexed": true,
          "internalType": "uint256",
          "name": "collectionId",
          "type": "uint256"
        },
        {
          "indexed": false,
          "internalType": "string",
          "name": "name",
          "type": "string"
        },
        {
          "indexed": false,
          "internalType": "address",
          "name": "owner",
          "type": "address"
        }
      ],
      "name": "CollectionCreated",
      "type": "event"
    },
    {
      "anonymous": false,
      "inputs": [
        {
          "indexed": true,
          "internalType": "uint256",
          "name": "collectionId",
          "type": "uint256"
        }
      ],
      "name": "CollectionDeactivated",
      "type": "event"
    },
    {
      "anonymous": false,
      "inputs": [
        {
          "indexed": true,
          "internalType": "address",
          "name": "owner",
          "type": "address"
        },
        {
          "indexed": true,
          "internalType": "uint256",
          "name": "tokenId",
          "type": "uint256"
        },
        {
          "indexed": false,
          "internalType": "uint256",
          "name": "price",
          "type": "uint256"
        }
      ],
      "name": "NFTMinted",
      "type": "event"
    },
    {
      "inputs": [
        {
          "internalType": "uint256",
          "name": "_collectionId",
          "type": "uint256"
        }
      ],
      "name": "activateCollection",
      "outputs": [],
      "stateMutability": "nonpayable",
      "type": "function"
    },
    {
      "inputs": [
        {
          "internalType": "string",
          "name": "_name",
          "type": "string"
        }
      ],
      "name": "createCollection",
      "outputs": [
        {
          "internalType": "uint256",
          "name": "",
          "type": "uint256"
        }
      ],
      "stateMutability": "nonpayable",
      "type": "function"
    },
    {
      "inputs": [
        {
          "internalType": "uint256",
          "name": "_collectionId",
          "type": "uint256"
        }
      ],
      "name": "deactivateCollection",
      "outputs": [],
      "stateMutability": "nonpayable",
      "type": "function"
    },
    {
      "inputs": [
        {
          "internalType": "uint256",
          "name": "_collectionId",
          "type": "uint256"
        }
      ],
      "name": "getCollectionDetailsById",
      "outputs": [
        {
          "components": [
            {
              "internalType": "uint256",
              "name": "collectionId",
              "type": "uint256"
            },
            {
              "internalType": "string",
              "name": "name",
              "type": "string"
            },
            {
              "internalType": "address",
              "name": "owner",
              "type": "address"
            },
            {
              "internalType": "bool",
              "name": "isActive",
              "type": "bool"
            }
          ],
          "internalType": "struct CreateCollection.Collection",
          "name": "",
          "type": "tuple"
        }
      ],
      "stateMutability": "view",
      "type": "function"
    },
    {
      "inputs": [
        {
          "internalType": "uint256",
          "name": "tokenId",
          "type": "uint256"
        }
      ],
      "name": "getNFTDetails",
      "outputs": [
        {
          "internalType": "string",
          "name": "",
          "type": "string"
        },
        {
          "internalType": "address",
          "name": "",
          "type": "address"
        },
        {
          "internalType": "bool",
          "name": "",
          "type": "bool"
        },
        {
          "internalType": "uint256",
          "name": "",
          "type": "uint256"
        },
        {
          "internalType": "uint256",
          "name": "",
          "type": "uint256"
        },
        {
          "internalType": "uint256",
          "name": "",
          "type": "uint256"
        }
      ],
      "stateMutability": "view",
      "type": "function"
    },
    {
      "inputs": [
        {
          "internalType": "uint256",
          "name": "_collectionId",
          "type": "uint256"
        }
      ],
      "name": "getNFTsByCollection",
      "outputs": [
        {
          "internalType": "uint256[]",
          "name": "",
          "type": "uint256[]"
        }
      ],
      "stateMutability": "view",
      "type": "function"
    },
    {
      "inputs": [
        {
          "internalType": "address",
          "name": "_user",
          "type": "address"
        }
      ],
      "name": "getUserCollectionsByAddress",
      "outputs": [
        {
          "internalType": "uint256[]",
          "name": "",
          "type": "uint256[]"
        }
      ],
      "stateMutability": "view",
      "type": "function"
    },
    {
      "inputs": [
        {
          "internalType": "uint256",
          "name": "_collectionId",
          "type": "uint256"
        },
        {
          "internalType": "string",
          "name": "_name",
          "type": "string"
        },
        {
          "internalType": "uint256",
          "name": "_price_in_Wei",
          "type": "uint256"
        }
      ],
      "name": "mintNFT",
      "outputs": [],
      "stateMutability": "nonpayable",
      "type": "function"
    },
    {
      "inputs": [
        {
          "internalType": "uint256",
          "name": "tokenId",
          "type": "uint256"
        },
        {
          "internalType": "address",
          "name": "to",
          "type": "address"
        }
      ],
      "name": "transferNFT",
      "outputs": [],
      "stateMutability": "nonpayable",
      "type": "function"
    }
  ],
  "bytecode": "0x6080604052348015600f57600080fd5b50611f728061001f6000396000f3fe608060405234801561001057600080fd5b50600436106100935760003560e01c80639036c050116100665780639036c05014610135578063a5813bad14610151578063c8a3ec1b14610181578063efb916f8146101b1578063fbf1343c146101e157610093565b8063059dfe1314610098578063134cc3f9146100c85780632fd9d6a1146100e457806382260f3514610100575b600080fd5b6100b260048036038101906100ad91906111f6565b6101fd565b6040516100bf9190611258565b60405180910390f35b6100e260048036038101906100dd919061129f565b610479565b005b6100fe60048036038101906100f9919061129f565b6105df565b005b61011a6004803603810190610115919061129f565b610745565b60405161012c969594939291906113a7565b60405180910390f35b61014f600480360381019061014a919061143b565b610925565b005b61016b6004803603810190610166919061129f565b6109e1565b6040516101789190611539565b60405180910390f35b61019b6004803603810190610196919061129f565b610a8f565b6040516101a89190611626565b60405180910390f35b6101cb60048036038101906101c69190611648565b610c0c565b6040516101d89190611539565b60405180910390f35b6101fb60048036038101906101f69190611675565b610ca3565b005b600080825111610242576040517f08c379a000000000000000000000000000000000000000000000000000000000815260040161023990611730565b60405180910390fd5b600061024c611027565b9050600073ffffffffffffffffffffffffffffffffffffffff166001600083815260200190815260200160002060020160009054906101000a900473ffffffffffffffffffffffffffffffffffffffff1673ffffffffffffffffffffffffffffffffffffffff16146102f3576040517f08c379a00000000000000000000000000000000000000000000000000000000081526004016102ea9061179c565b60405180910390fd5b600060405180608001604052808381526020018581526020013373ffffffffffffffffffffffffffffffffffffffff168152602001600115158152509050806001600084815260200190815260200160002060008201518160000155602082015181600101908161036491906119c8565b5060408201518160020160006101000a81548173ffffffffffffffffffffffffffffffffffffffff021916908373ffffffffffffffffffffffffffffffffffffffff16021790555060608201518160020160146101000a81548160ff021916908315150217905550905050600260003373ffffffffffffffffffffffffffffffffffffffff1673ffffffffffffffffffffffffffffffffffffffff168152602001908152602001600020829080600181540180825580915050600190039060005260206000200160009091909190915055817f28264f4036324f7af9abd02761740048265f0c980737a3f97365dad3162cbe658533604051610467929190611a9a565b60405180910390a28192505050919050565b3373ffffffffffffffffffffffffffffffffffffffff166001600083815260200190815260200160002060020160009054906101000a900473ffffffffffffffffffffffffffffffffffffffff1673ffffffffffffffffffffffffffffffffffffffff161461051d576040517f08c379a000000000000000000000000000000000000000000000000000000000815260040161051490611b16565b60405180910390fd5b6001600082815260200190815260200160002060020160149054906101000a900460ff1615610581576040517f08c379a000000000000000000000000000000000000000000000000000000000815260040161057890611b82565b60405180910390fd5b600180600083815260200190815260200160002060020160146101000a81548160ff021916908315150217905550807f14c96d2b7434e134b30bbdc0589cad96a5cd06b9fc3b1514a181c6fbadcf328b60405160405180910390a250565b3373ffffffffffffffffffffffffffffffffffffffff166001600083815260200190815260200160002060020160009054906101000a900473ffffffffffffffffffffffffffffffffffffffff1673ffffffffffffffffffffffffffffffffffffffff1614610683576040517f08c379a000000000000000000000000000000000000000000000000000000000815260040161067a90611b16565b60405180910390fd5b6001600082815260200190815260200160002060020160149054906101000a900460ff166106e6576040517f08c379a00000000000000000000000000000000000000000000000000000000081526004016106dd90611bee565b60405180910390fd5b60006001600083815260200190815260200160002060020160146101000a81548160ff021916908315150217905550807f93fb689cf85e5190a32d24bb5daff20b4bfb691c7f844cd75bb4a707a1917d2c60405160405180910390a250565b606060008060008060006003600088815260200190815260200160002060020160149054906101000a900460ff166107b2576040517f08c379a00000000000000000000000000000000000000000000000000000000081526004016107a990611c5a565b60405180910390fd5b6000600360008981526020019081526020016000206040518060c00160405290816000820180546107e2906117eb565b80601f016020809104026020016040519081016040528092919081815260200182805461080e906117eb565b801561085b5780601f106108305761010080835404028352916020019161085b565b820191906000526020600020905b81548152906001019060200180831161083e57829003601f168201915b50505050508152602001600182015481526020016002820160009054906101000a900473ffffffffffffffffffffffffffffffffffffffff1673ffffffffffffffffffffffffffffffffffffffff1673ffffffffffffffffffffffffffffffffffffffff1681526020016002820160149054906101000a900460ff1615151515815260200160038201548152602001600482015481525050905080600001518160400151826060015183608001518b8560a001519650965096509650965096505091939550919395565b6003600083815260200190815260200160002060020160149054906101000a900460ff16610988576040517f08c379a000000000000000000000000000000000000000000000000000000000815260040161097f90611c5a565b60405180910390fd5b806003600084815260200190815260200160002060020160006101000a81548173ffffffffffffffffffffffffffffffffffffffff021916908373ffffffffffffffffffffffffffffffffffffffff1602179055505050565b606060008211610a26576040517f08c379a0000000000000000000000000000000000000000000000000000000008152600401610a1d90611cc6565b60405180910390fd5b60046000838152602001908152602001600020805480602002602001604051908101604052809291908181526020018280548015610a8357602002820191906000526020600020905b815481526020019060010190808311610a6f575b50505050509050919050565b610a9761105c565b60008211610ada576040517f08c379a0000000000000000000000000000000000000000000000000000000008152600401610ad190611cc6565b60405180910390fd5b6001600083815260200190815260200160002060405180608001604052908160008201548152602001600182018054610b12906117eb565b80601f0160208091040260200160405190810160405280929190818152602001828054610b3e906117eb565b8015610b8b5780601f10610b6057610100808354040283529160200191610b8b565b820191906000526020600020905b815481529060010190602001808311610b6e57829003601f168201915b505050505081526020016002820160009054906101000a900473ffffffffffffffffffffffffffffffffffffffff1673ffffffffffffffffffffffffffffffffffffffff1673ffffffffffffffffffffffffffffffffffffffff1681526020016002820160149054906101000a900460ff1615151515815250509050919050565b6060600260008373ffffffffffffffffffffffffffffffffffffffff1673ffffffffffffffffffffffffffffffffffffffff168152602001908152602001600020805480602002602001604051908101604052809291908181526020018280548015610c9757602002820191906000526020600020905b815481526020019060010190808311610c83575b50505050509050919050565b6000825111610ce7576040517f08c379a0000000000000000000000000000000000000000000000000000000008152600401610cde90611d32565b60405180910390fd5b3373ffffffffffffffffffffffffffffffffffffffff166001600085815260200190815260200160002060020160009054906101000a900473ffffffffffffffffffffffffffffffffffffffff1673ffffffffffffffffffffffffffffffffffffffff1614610d8b576040517f08c379a0000000000000000000000000000000000000000000000000000000008152600401610d8290611b16565b60405180910390fd5b6001600084815260200190815260200160002060020160149054906101000a900460ff16610dee576040517f08c379a0000000000000000000000000000000000000000000000000000000008152600401610de590611d9e565b60405180910390fd5b60008111610e31576040517f08c379a0000000000000000000000000000000000000000000000000000000008152600401610e2890611e0a565b60405180910390fd5b6000610e3b611027565b90506003600082815260200190815260200160002060020160149054906101000a900460ff1615610ea1576040517f08c379a0000000000000000000000000000000000000000000000000000000008152600401610e9890611e76565b60405180910390fd5b6040518060c001604052808481526020018281526020013373ffffffffffffffffffffffffffffffffffffffff16815260200160011515815260200183815260200185815250600360008381526020019081526020016000206000820151816000019081610f0f91906119c8565b506020820151816001015560408201518160020160006101000a81548173ffffffffffffffffffffffffffffffffffffffff021916908373ffffffffffffffffffffffffffffffffffffffff16021790555060608201518160020160146101000a81548160ff0219169083151502179055506080820151816003015560a0820151816004015590505060046000858152602001908152602001600020819080600181540180825580915050600190039060005260206000200160009091909190915055803373ffffffffffffffffffffffffffffffffffffffff167f3a8a89b59a31c39a36febecb987e0657ab7b7c73b60ebacb44dcb9886c2d5c8a846040516110199190611258565b60405180910390a350505050565b600042443360405160200161103e93929190611eff565b6040516020818303038152906040528051906020012060001c905090565b60405180608001604052806000815260200160608152602001600073ffffffffffffffffffffffffffffffffffffffff1681526020016000151581525090565b6000604051905090565b600080fd5b600080fd5b600080fd5b600080fd5b6000601f19601f8301169050919050565b7f4e487b7100000000000000000000000000000000000000000000000000000000600052604160045260246000fd5b611103826110ba565b810181811067ffffffffffffffff82111715611122576111216110cb565b5b80604052505050565b600061113561109c565b905061114182826110fa565b919050565b600067ffffffffffffffff821115611161576111606110cb565b5b61116a826110ba565b9050602081019050919050565b82818337600083830152505050565b600061119961119484611146565b61112b565b9050828152602081018484840111156111b5576111b46110b5565b5b6111c0848285611177565b509392505050565b600082601f8301126111dd576111dc6110b0565b5b81356111ed848260208601611186565b91505092915050565b60006020828403121561120c5761120b6110a6565b5b600082013567ffffffffffffffff81111561122a576112296110ab565b5b611236848285016111c8565b91505092915050565b6000819050919050565b6112528161123f565b82525050565b600060208201905061126d6000830184611249565b92915050565b61127c8161123f565b811461128757600080fd5b50565b60008135905061129981611273565b92915050565b6000602082840312156112b5576112b46110a6565b5b60006112c38482850161128a565b91505092915050565b600081519050919050565b600082825260208201905092915050565b60005b838110156113065780820151818401526020810190506112eb565b60008484015250505050565b600061131d826112cc565b61132781856112d7565b93506113378185602086016112e8565b611340816110ba565b840191505092915050565b600073ffffffffffffffffffffffffffffffffffffffff82169050919050565b60006113768261134b565b9050919050565b6113868161136b565b82525050565b60008115159050919050565b6113a18161138c565b82525050565b600060c08201905081810360008301526113c18189611312565b90506113d0602083018861137d565b6113dd6040830187611398565b6113ea6060830186611249565b6113f76080830185611249565b61140460a0830184611249565b979650505050505050565b6114188161136b565b811461142357600080fd5b50565b6000813590506114358161140f565b92915050565b60008060408385031215611452576114516110a6565b5b60006114608582860161128a565b925050602061147185828601611426565b9150509250929050565b600081519050919050565b600082825260208201905092915050565b6000819050602082019050919050565b6114b08161123f565b82525050565b60006114c283836114a7565b60208301905092915050565b6000602082019050919050565b60006114e68261147b565b6114f08185611486565b93506114fb83611497565b8060005b8381101561152c57815161151388826114b6565b975061151e836114ce565b9250506001810190506114ff565b5085935050505092915050565b6000602082019050818103600083015261155381846114db565b905092915050565b600082825260208201905092915050565b6000611577826112cc565b611581818561155b565b93506115918185602086016112e8565b61159a816110ba565b840191505092915050565b6115ae8161136b565b82525050565b6115bd8161138c565b82525050565b60006080830160008301516115db60008601826114a7565b50602083015184820360208601526115f3828261156c565b915050604083015161160860408601826115a5565b50606083015161161b60608601826115b4565b508091505092915050565b6000602082019050818103600083015261164081846115c3565b905092915050565b60006020828403121561165e5761165d6110a6565b5b600061166c84828501611426565b91505092915050565b60008060006060848603121561168e5761168d6110a6565b5b600061169c8682870161128a565b935050602084013567ffffffffffffffff8111156116bd576116bc6110ab565b5b6116c9868287016111c8565b92505060406116da8682870161128a565b9150509250925092565b7f436f6c6c656374696f6e206e616d652063616e6e6f7420626520656d70747900600082015250565b600061171a601f836112d7565b9150611725826116e4565b602082019050919050565b600060208201905081810360008301526117498161170d565b9050919050565b7f436f6c6c656374696f6e20494420636f6c6c6973696f6e000000000000000000600082015250565b60006117866017836112d7565b915061179182611750565b602082019050919050565b600060208201905081810360008301526117b581611779565b9050919050565b7f4e487b7100000000000000000000000000000000000000000000000000000000600052602260045260246000fd5b6000600282049050600182168061180357607f821691505b602082108103611816576118156117bc565b5b50919050565b60008190508160005260206000209050919050565b60006020601f8301049050919050565b600082821b905092915050565b60006008830261187e7fffffffffffffffffffffffffffffffffffffffffffffffffffffffffffffffff82611841565b6118888683611841565b95508019841693508086168417925050509392505050565b6000819050919050565b60006118c56118c06118bb8461123f565b6118a0565b61123f565b9050919050565b6000819050919050565b6118df836118aa565b6118f36118eb826118cc565b84845461184e565b825550505050565b600090565b6119086118fb565b6119138184846118d6565b505050565b5b818110156119375761192c600082611900565b600181019050611919565b5050565b601f82111561197c5761194d8161181c565b61195684611831565b81016020851015611965578190505b61197961197185611831565b830182611918565b50505b505050565b600082821c905092915050565b600061199f60001984600802611981565b1980831691505092915050565b60006119b8838361198e565b9150826002028217905092915050565b6119d1826112cc565b67ffffffffffffffff8111156119ea576119e96110cb565b5b6119f482546117eb565b6119ff82828561193b565b600060209050601f831160018114611a325760008415611a20578287015190505b611a2a85826119ac565b865550611a92565b601f198416611a408661181c565b60005b82811015611a6857848901518255600182019150602085019450602081019050611a43565b86831015611a855784890151611a81601f89168261198e565b8355505b6001600288020188555050505b505050505050565b60006040820190508181036000830152611ab48185611312565b9050611ac3602083018461137d565b9392505050565b7f596f7520646f6e2774206f776e207468697320636f6c6c656374696f6e000000600082015250565b6000611b00601d836112d7565b9150611b0b82611aca565b602082019050919050565b60006020820190508181036000830152611b2f81611af3565b9050919050565b7f436f6c6c656374696f6e20697320616c72656164792061637469766500000000600082015250565b6000611b6c601c836112d7565b9150611b7782611b36565b602082019050919050565b60006020820190508181036000830152611b9b81611b5f565b9050919050565b7f436f6c6c656374696f6e20697320616c726561647920696e6163746976650000600082015250565b6000611bd8601e836112d7565b9150611be382611ba2565b602082019050919050565b60006020820190508181036000830152611c0781611bcb565b9050919050565b7f4e465420646f6573206e6f742065786973740000000000000000000000000000600082015250565b6000611c446012836112d7565b9150611c4f82611c0e565b602082019050919050565b60006020820190508181036000830152611c7381611c37565b9050919050565b7f496e76616c696420636f6c6c656374696f6e2049440000000000000000000000600082015250565b6000611cb06015836112d7565b9150611cbb82611c7a565b602082019050919050565b60006020820190508181036000830152611cdf81611ca3565b9050919050565b7f4e4654206e616d652063616e6e6f7420626520656d7074790000000000000000600082015250565b6000611d1c6018836112d7565b9150611d2782611ce6565b602082019050919050565b60006020820190508181036000830152611d4b81611d0f565b9050919050565b7f436f6c6c656374696f6e206973206e6f74206163746976650000000000000000600082015250565b6000611d886018836112d7565b9150611d9382611d52565b602082019050919050565b60006020820190508181036000830152611db781611d7b565b9050919050565b7f5072696365206d7573742062652067726561746572207468616e207a65726f00600082015250565b6000611df4601f836112d7565b9150611dff82611dbe565b602082019050919050565b60006020820190508181036000830152611e2381611de7565b9050919050565b7f4e465420494420636f6c6c6973696f6e00000000000000000000000000000000600082015250565b6000611e606010836112d7565b9150611e6b82611e2a565b602082019050919050565b60006020820190508181036000830152611e8f81611e53565b9050919050565b6000819050919050565b611eb1611eac8261123f565b611e96565b82525050565b60008160601b9050919050565b6000611ecf82611eb7565b9050919050565b6000611ee182611ec4565b9050919050565b611ef9611ef48261136b565b611ed6565b82525050565b6000611f0b8286611ea0565b602082019150611f1b8285611ea0565b602082019150611f2b8284611ee8565b60148201915081905094935050505056fea2646970667358221220ad3a571e88338886676b605154001deee91cc1c9913f60beb03027bfbb1f83f064736f6c634300081c0033",
  "linkReferences": {},
  "deployedLinkReferences": {}
}